:100000001EEF09F068961200046ED8CF05F0E0CF1D
:1000100006F00001E9CF0CF0EACF07F0E1CF08F0DD
:10002000E2CF09F0D9CF0AF0DACF0BF0F3CF12F01C
:10003000F4CF13F0FACF14F000C00EF001C00FF0AF
:1000400002C010F003C011F0A0AA2AEF00F0A1BA7C
:10005000EDEF06F00EC000F00FC001F010C002F08E
:1000600011C003F00CC0E9FF07C0EAFF078E08C00B
:10007000E1FF09C0E2FF0AC0D9FF0BC0DAFF12C0DE
:10008000F3FF13C0F4FF14C0FAFF045006C0E0FFF2
:1000900005C0D8FF1000F76AA60FF66E000EF72213
:1000A0000900F55012000003FFFFFFFFFFFFFFFFF5
:1000B000FFFFFFFFFFFF07AE03D0F2CF0DF0F29E70
:1000C000F76AD80FF66E000EF7220900F55007AE5A
:1000D00002D00DBEF28E1200400040000000000071
:1000E0000000000000000000000000000000000010
:1000F0000000000000000000F76A080FF66E010E15
:10010000F7220900F55012000600FF0901A10119AC
:100110000129081580257F7508954081021901295C
:1001200008750895409102C0F76A380FF66E010E07
:10013000F7220900F55012000000F76A4A0FF66E28
:10014000010EF7220900F55012002000F76A5C0F3B
:10015000F66E010EF7220900F5501200090229007F
:10016000010102803209040000020300000009219D
:10017000000100012220000705810340000107055E
:10018000010340000100F76A960FF66E010EF72298
:100190000900F55012000100F76AA80FF66E010E73
:1001A000F7220900F55012001200F76ABA0FF66E36
:1001B000010EF7220900F5501200120102000000A2
:1001C000004025000100020001020001F76ADC0F77
:1001D000F66E010EF7220900F5501200040309041F
:1001E0000803500047004D001C03420065006C00EE
:1001F0006100720062006900270073002000500057
:10020000490043006D92699468A402D06894FCD7B9
:10021000F9EF06F0400E0401016F040E036F100E9B
:10022000026F880E006F046B040E076F500E066F8E
:100230000001120070A002D0EDDF7090689A00EF0C
:1002400007F06A6A689205EF07F08C918BBF8C818A
:100250008B9F8B51100803E2000E016E20D08CA101
:1002600010D0036A8B51F2CF8DF0F29E14DF8DBF58
:10027000F28EFF0802E1000E01D0010E016E0FD0D8
:100280000ED0036A8B51F2CF8DF0F29E04DF8DBF4A
:10029000F28EFF0802E1000E01D0010E016E120085
:1002A0008B518D03F3CF01F0F4CF00F08E03F350A8
:1002B00000268C518D03F3500020026E1200036A59
:1002C0008A51700FE96E0F0E0320EA6EEF6A8AC042
:1002D0008BF0BBDF015222E08C6B8AC08BF08E6BFF
:1002E000080E8D6FDDDF01C0E9FF040E0224EA6E07
:1002F000EF6A8C6B8AC08BF08E6B080E8D6FD0DF2F
:1003000002C08CF001C08BF0040E8B27000E8C23F2
:100310008BC0E9FF040E8C25EA6EEF6A1200010E15
:10032000896F89510F0805E389C08AF0C8DF892BDE
:10033000F8D71200256A246A7F6B7F530AE1036AAB
:100340007F51260FE96E000E0320EA6EEF6A7F2BC5
:10035000F4D7186A010E196E176A12006A6A686A81
:100360009F0E6B6E3D0E696E6E6AD9DFE3DF160E6F
:10037000706E68A602D046DEFCD76D984BDF030E88
:100380001F6E0AEF07F0698468986D820FEF07F01F
:10039000689C14EF07F084C020F01200206812005F
:1003A000826B2450251046E082513F0843E31A50E7
:1003B000FC0F2EE2040F25EF02F023C003F02250C1
:1003C000F2CF84F0F29EC2DE84BFF28E836F20D023
:1003D00023C003F02250F2CF84F0F29E8DDE84BF62
:1003E000F28E836F15D023C003F02250F2CF84F039
:1003F000F29EECDE84BFF28E836F0AD023C003F03E
:100400002250F2CF84F0F29ED0DE84BFF28E836F52
:10041000222AD8B4232A2450D8B42506240682518F
:10042000822B500FE96E040EEA6ED8B0EA2A83C020
:10043000EFFFB7D72450251004E18251400801E0B6
:10044000176A82C084F0A7DF1200E824F76AF73643
:10045000650FF66E040EF7220A00F550FA6E0800DA
:10046000F550F96EBA03D003E603FC03236A226A4F
:100470001A6A04011351010A000109E0030A0DE0A0
:10048000010A0FE0220A29E0030A4DE078D0256A2C
:10049000120E246E030E1A6E74D0256A290E246E75
:1004A00070D0020E1A6E036A040112511B0FE96E1E
:1004B000000E0320EA6E236AEFCF22F023C003F080
:1004C0002250F2CF82F0F29E000180DE82BFF28ED7
:1004D000036A246E03C025F054D0D890040112356D
:1004E000036AF2CF82F0F29E000156DE0900F5CFDA
:1004F00003F082BFF28E226E03C023F0223C02D0B2
:1005000023520FE023C003F02250F2CF82F0F29E7C
:100510001DDE82BFF28E036A246E03C025F031D047
:1005200002D03CDF3DD0D89004011435036AF2CFED
:1005300082F0F29E0001F8DD0900F5CF03F082BFE2
:10054000F28E226E03C023F0223C02D0235215E02B
:10055000010E1A6ED89004011435036AF2CF82F0AE
:10056000F29E0001EADD0900F5CF03F082BFF28EB2
:10057000246E03C025F005D002D010DF11D00EDFAD
:100580000FD00401175308E1255203E12450165DF2
:1005900003E2256A16C424F0010E176E000100DF85
:1005A0001200815304E1040E1F6EB9DEE9D0050E7E
:1005B0001F6E040E846F900E836F010E826F825146
:1005C0000F08D8A0DDD082C08AF079DE856B036A7F
:1005D0008251F2CF89F0F29E5EDD89BFF28EFF0874
:1005E00065E0040E856FD8908235036AF2CF89F0FA
:1005F000F29E61DD0900F5CF03F089BFF28E866FB0
:1006000003C087F08C6B82C08BF08E6B080E8D6FF1
:1006100047DE01C089F0010E0124016E000E0220A8
:10062000036E01C0E9FF040E0324EA6E86C0EFFFEB
:100630008C6B82C08BF08E6B080E8D6F31DE01C02B
:1006400089F0020E0124016E000E0220036E01C02B
:10065000E9FF040E0324EA6E84C0ECFFED5283C070
:10066000EFFFD8908235036AF2CF89F0F29E23DD46
:100670000900F5CF03F089BFF28E8327035084234E
:10068000880E886F87A101D0888187A301D08883D5
:100690008C6B82C08BF08E6B080E8D6F01DE01C0FB
:1006A000E9FF040E0224EA6E88C0EFFF036A82515C
:1006B000F2CF89F0F29EEFDC89BFF28EFF0845E0B1
:1006C00085838C6B82C08BF08E6B080E8D6FE8DD9E
:1006D00002C08AF001C089F0040E8927000E8A2327
:1006E000020E8925016E000E8A21036E01C0E9FF0A
:1006F000040E0324EA6E84C0ECFFED5283C0EFFFCA
:10070000D8908235036AF2CF89F0F29ED4DC0900DA
:10071000F5CF03F089BFF28E8327035084238C6BBF
:1007200082C08BF08E6B080E8D6FBADD02C08AF02E
:1007300001C089F0040E8927000E8A2389C0E9FFD1
:10074000040E8A25EA6E400EEF6E8551060802E11E
:100750000E0E856F036A8251F2CF89F0F29E9BDC08
:1007600089BFF28E010801E08589036A8251700F0A
:10077000E96E0F0E0320EA6E85C0EFFF822B1FD7B4
:100780000FEF04F004011151000A00010DE0010A0D
:1007900014E0020A1FE0060A29E0030A2EE00E0A0E
:1007A0002EE0010A32E040D019C050F40401516B30
:1007B000020E0001846FEFDD38D00401122D07D046
:1007C000010E19160001846BE6DD03D0040100015F
:1007D000E5DD2BD00401122D06D019820001846BB7
:1007E000DADD03D004010001D9DD1FD0020E176E3F
:1007F00012C421F0846BCFDD18D038DE16D018C0BB
:1008000050F4010E846FC7DD10D0040112510108AD
:1008100009E312C418F012C481F00001C2D6846B3F
:10082000BADD0401000101D0B9DD40EF05F018C0C8
:1008300081F004011151000A000107E00A0A0DE0ED
:10084000010A2DE00D0A3DE03ED00401506B516BD2
:10085000020E0001846F9FDD37D081531EE0010E30
:10086000815D036AF2CF82F0F29E8DDC82BFF28E50
:10087000016E0401145DD8A002D000010ED0036AFD
:100880001451260FE96E000E0320EA6EEFCF50F4EC
:10089000010E0001846F7FDD01D080DD15D0815312
:1008A0000EE0036A04011451260FE96E000E0320C6
:1008B000EA6E12C4EFFF0001846B6DDD01D06EDDC6
:1008C00003D0D4DD01D06ADD40EF05F0829181BF15
:1008D0008281819F82A117D08C6B81C08BF08E6B3F
:1008E000080E8D6FDDDC02C084F001C083F0040EC1
:1008F0008327000E842383C0E9FF040E8425EA6E5B
:10090000880EEF6E0DD08C6B81C08BF08E6B080E55
:100910008D6FC6DC01C0E9FF040E0224EA6EEF6AA7
:1009200006EF05F0829181BF8281819F82A117D05D
:100930008C6B81C08BF08E6B080E8D6FB1DC02C0AA
:1009400084F001C083F0040E8327000E842383C04B
:10095000E9FF040E8425EA6E840EEF6E0ED08C6BD8
:1009600081C08BF08E6B080E8D6F9ADC01C0E9FFA1
:10097000040E0224EA6E840EEF6E0CEF05F08291F5
:1009800081BF8281819F82A117D08C6B81C08BF047
:100990008E6B080E8D6F84DC02C085F001C084F080
:1009A000040E8427000E852384C0E9FF040E8525EC
:1009B000EA6EEFCF83F00ED08C6B81C08BF08E6B24
:1009C000080E8D6F6DDC01C0E9FF040E0224EA6E93
:1009D000EFCF83F083AF02D083B502D0000E01D0F9
:1009E000010E016E16EF05F014C48BF02EDC0152DF
:1009F00028E004011151010A000105E0020A09E0A2
:100A0000030A0DE01DD014C481F060D7846BC3DCF1
:100A100018D014C481F086D7846BBDDC12D00401D9
:100A2000506B516B14C481F00001A9D7015204E04E
:100A3000010E0401506F0001020E846FACDC01D086
:100A4000ADDC40EF05F0040111510001A7DC40EFDF
:100A500005F0176A040110517F0B000A000107E03E
:100A6000010A07E0030A07E0230A07E008D08AD654
:100A700007D0DDD605D0B8D703D0E5D701D08EDCBE
:100A8000A3EF06F08C6B81C08BF08E6B080E8D6F20
:100A900007DC01C0E9FF040E0224EA6EEFCF83F009
:100AA0008251020806E183AD02D0826B02D0010EB2
:100AB000826F825103081AE1840E836F8C6B81C0B0
:100AC0008BF08E6B080E8D6F50EC01F002C087F03A
:100AD00001C086F0040E8627000E872386C0E9FF3A
:100AE000040E8725EA6E840EEF6E07D0822D03D0A8
:100AF000C80E836F02D0880E836FD8908135036A49
:100B0000F2CF86F0F29E5BEC00F00900F5CF03F027
:100B100086BFF28E846F03C085F08C6B81C08BF032
:100B20008E6B080E8D6F50EC01F001C086F0010E47
:100B30000124016E000E0220036E01C0E9FF040EC5
:100B40000324EA6E84C0EFFF85A101D0838185A3D1
:100B500001D083838C6B81C08BF08E6B080E8D6F00
:100B600050EC01F001C0E9FF040E0224EA6E83C0DC
:100B7000EFFF1200036A8651700FE96E0F0E03201B
:100B8000EA6EEF5219E08C6B86C08BF08E6B080E0C
:100B90008D6F50EC01F002C088F001C087F0040EA8
:100BA0008727000E882387C0E9FF040E8825EA6E98
:100BB000EFCF89F089AF02D0000E01D0010E016E97
:100BC000120081C086F0D6DF0152D8B47DD08C6B84
:100BD00081C08BF08E6B080E8D6F50EC01F002C05F
:100BE00087F001C086F0040E8627000E8723010ED1
:100BF0008625016E000E8721036E01C0E9FF040EF9
:100C00000324EA6E82C0EFFF845102081EE18C6B60
:100C100081C08BF08E6B080E8D6F50EC01F002C01E
:100C200087F001C086F0040E8627000E872386C059
:100C3000E9FF040E8725EA6EEFCF85F085AD02D07F
:100C4000846B02D0010E846F18D08451040815E122
:100C50008C6B81C08BF08E6B080E8D6F50EC01F0A9
:100C600001C0E9FF040E0224EA6EEFCF85F085ADE6
:100C700003D0010E846F01D0846B842D03D0C80E85
:100C8000856F02D0880E856F83A101D0858183A3F3
:100C900001D085838C6B81C08BF08E6B080E8D6FBD
:100CA00050EC01F002C087F001C086F0040E8627E8
:100CB000000E872386C0E9FF040E8725EA6E85C0F3
:100CC000EFFF010E016E02D0000E016E1200815383
:100CD00000E1120082C06EFF825303E0040E1F6E1B
:100CE00002D0020E1F6E7AEF06F0186A176A21C052
:100CF00082F0F0D787EF06F0815309E1172C03D07B
:100D0000D0EC01F004D017500208D8B4EED712008E
:100D10001E307F6F7F337F331F0E7F171E5241E1DE
:100D2000040100513C0B0001806F430E04010017C9
:100D30000001805134081EE104010451800B01E0E0
:100D4000046B000186D66D98203C05D0816B030EA4
:100D5000826F98DE0ED0816B020E826F93DE205080
:100D6000FE0807E0816B836B20C082F0040E846F65
:100D700028DF16D08051040813E1816BA8DF816B56
:100D8000020E826F7FDE2050FE080AE0203C01D078
:100D900007D0816B836B20C082F0010E846F11DF5E
:100DA0001AD01E5004080EE12068816BA5DF203C9C
:100DB00001D007D0816B836B20C082F0020E846F5C
:100DC00000DF09D01EB404D07FC081F080DF03D0E3
:100DD0007FC081F091DF1EEF07F0A19A1F52D8B4B7
:100DE00033D06852D8B430D068A403D069B402EFCD
:100DF00001F06DB229D068AA03D069BA1AEF01F0E8
:100E000068A203D069B221EF01F068A003D069B0F5
:100E1000AEEF01F068A803D069B8C3EF01F068AC89
:100E200003D069BCC8EF01F07E6B68A608D069A644
:100E300006D06CCF1EF002EC00F06AD701D004D0CF
:100E40007E517E2B0308F1E22AEF00F06D6A696A99
:100E5000080E6F6E94503009946E1F6A166AF2BEC7
:100E6000168EF29E9AEC01F016BEF28E39EF07F064
:100E7000EDD72DEF09F0130ED26EA194A0849280CD
:100E800092820D0EC16E030EC06E9284809489947E
:100E900092868096899692888998899A929A8A965B
:100EA00093968A889398938A818AF19E8A949394E0
:100EB0008B9094908B9294928B949494080ED56E10
:100EC000040ECA6E4F0ECB6E0C0EBD6E1D0EBE6EA6
:100ED000070EB46EB56AF28CF28EF28CF28E2EEFA3
:100EE00009F0EA6A6A0EE96EEF500EE00F0E016E2D
:100EF000006A002EFED7012EFBD78F0E006E002E4B
:100F0000FED70000EF2EF2D71200166AF2BE168E40
:100F1000F29E9AEC01F016BEF28E6D6A140E6F6EA0
:100F2000696A6D86010E1F6E99EF07F06DB601D0EC
:100F3000ECD71F2C0BD06DBA09D0686A696AA08AF9
:100F4000C00EF212110E696E020E1F6E34EF09F020
:100F50001850016E35EF09F0036A6751700FE96EA2
:100F60000F0E0320EA6EEF521BE0166AF2BE168ED9
:100F7000F29E8C6B67C08BF08E6B080E8D6F50EC01
:100F800001F016BEF28E02C069F001C068F001C027
:100F9000E9FF040E0224EA6EEFCF6AF06AAF02D0D6
:100FA000000E01D0010E016E3AEF09F0166AF2BE92
:100FB000168EF29E8C6B6FC08BF08E6B080E8D6F51
:100FC00050EC01F016BEF28E01C079F0020E012441
:100FD000016E000E0220036E01C0E9FF040E03241F
:100FE000EA6EECCF75F0ED52EFCF74F0166AF2BEF8
:100FF000168EF29E8C6B6FC08BF08E6B080E8D6F11
:1010000050EC01F016BEF28E01C079F0010E012401
:10101000016E000E0220036E01C0E9FF040E0324DE
:10102000EA6E786BEFCF77F0166AF2BE168EF29EFC
:101030008C6B6FC08BF08E6B080E8D6F50EC01F0D7
:1010400016BEF28E01C0E9FF040E0224EA6EEFCF55
:1010500076F076A101D0788176A301D0788378519B
:10106000735D08E303E17251775D04E278C073F0C9
:1010700077C072F071C0EAFF70C0E9FF75C0E2FF8F
:1010800074C0E1FF73C002F072C001F0015202E0CF
:10109000022A02D0025206E0E6CFEEFF012EFCD774
:1010A000022EFAD772C001F073C002F063EF08F0AD
:1010B0006AC06FF06CC071F06BC070F06EC073F0FE
:1010C0006DC072F073D702C06EF001C06DF0166A89
:1010D000F2BE168EF29E6AC081F0020E826FD2DCE2
:1010E00016BEF28E6DC001F06EC002F0F4EF08F093
:1010F000166AF2BE168EF29E6AC086F03BDD16BE00
:10110000F28E01524FE0166AF2BE168EF29E8C6B82
:101110006AC08BF08E6B080E8D6F50EC01F016BE1E
:10112000F28E02C073F001C072F0040E7227000E3E
:101130007323020E7225016E000E7321036E01C02F
:10114000E9FF040E0324EA6EECCF71F0ED52EFCF0D
:1011500070F071C0EAFF70C0E9FF6CC0E2FF6BC0C5
:10116000E1FF6EC002F06DC001F0015202E0022A00
:1011700002D0025206E0E6CFEEFF012EFCD7022E8F
:10118000FAD7166AF2BE168EF29E6AC081F06EC061
:1011900083F06DC082F06FC084F013DD16BEF28E56
:1011A000015002D0000E016EE6EF08F0040E276E2B
:1011B000286A296A010E2A6E6A6F6C6B270E6B6FA4
:1011C0006E6B400E6D6F020E6F6F92D71CEF09F0C1
:1011D0008B701CEF09F0010E6A6F6C6B270E6B6F42
:1011E0006E6B400E6D6F64D7010E6A6F7ADE27C09A
:1011F00067F0010E686F6751685D1EE2036A68510F
:10120000270FE96E000E0320EA6EEFCF69F06953F5
:10121000D8B412D0010E695FD8906937080E6927DB
:10122000F9506925D8B0FA2AF96E01D002D0BED79C
:1012300003D0CED701D0DFD73DEF09F0F86AD09EBA
:10124000078EC150C00B0F09C16E070EB46E1B6A2A
:10125000040E1C6E0C0E1D6E0BD60DD68B80640E0C
:101260006A6F3FDE8B9062D673D6015206E0010EA4
:0E127000676F72D6015201E0AED7F5D70300CA
:020000040030CA
:0E0000002CCE380E000781000FC00FE00F401D
:00000001FF
;PIC18F2550
;CRC=53F2  CREATED="15-nov.-18 21:27"
