:100000002DEF11F068961200046ED8CF05F0E0CF06
:1000100006F00001E9CF0CF0EACF07F0E1CF08F0DD
:10002000E2CF09F0D9CF0AF0DACF0BF0F3CF12F01C
:10003000F4CF13F0FACF14F000C00EF001C00FF0AF
:1000400002C010F003C011F0A0AA2AEF00F0A1BA7C
:10005000A0EF07F00EC000F00FC001F010C002F0DA
:1000600011C003F00CC0E9FF07C0EAFF078E08C00B
:10007000E1FF09C0E2FF0AC0D9FF0BC0DAFF12C0DE
:10008000F3FF13C0F4FF14C0FAFF045006C0E0FFF2
:1000900005C0D8FF1000F76AA60FF66E000EF72213
:1000A0000900F55012000003FFFFFFFFFFFFFFFFF5
:1000B000FFFFFFFFFFFF07AE03D0F2CF0DF0F29E70
:1000C000F76AD80FF66E000EF7220900F55007AE5A
:1000D00002D00DBEF28E1200400040000000000071
:1000E0000000000000000000000000000000000010
:1000F0000000000000000000F76A080FF66E010E15
:10010000F7220900F55012000600FF0901A10119AC
:100110000129081580257F7508954081021901295C
:1001200008750895409102C0F76A380FF66E010E07
:10013000F7220900F55012000000F76A4A0FF66E28
:10014000010EF7220900F55012002000F76A5C0F3B
:10015000F66E010EF7220900F5501200090229007F
:10016000010102803209040000020300000009219D
:10017000000100012220000705810340000107055E
:10018000010340000100F76A960FF66E010EF72298
:100190000900F55012000100F76AA80FF66E010E73
:1001A000F7220900F55012001200F76ABA0FF66E36
:1001B000010EF7220900F5501200120102000000A2
:1001C000004025000100020001020001F76ADC0F77
:1001D000F66E010EF7220900F5501200040309041F
:1001E0000803500047004D001C03420065006C00EE
:1001F0006100720062006900270073002000500057
:10020000490043006D92699468A402D06894FCD7B9
:10021000ACEF07F0400E0401016F040E036F100EE7
:10022000026F880E006F046B040E076F500E066F8E
:100230000001120070A002D0EDDF7090689AB3EF59
:1002400007F06A6A6892B8EF07F0020140913FBF79
:1002500040813F9F3F51100803E2000E016E24D001
:1002600040A112D0036A3F51F2CF41F2F29E000149
:1002700012DF020141BFF28EFF0802E1000E01D041
:10028000010E016E11D010D0036A3F51F2CF41F23E
:10029000F29E000100DF020141BFF28EFF0802E181
:1002A000000E01D0010E016E0001120002013F514B
:1002B0004103F3CF01F0F4CF00F04203F3500026E6
:1002C00040514103F3500020026E00011200036A06
:1002D00002013E51700FE96E0F0E0320EA6EEF6AC5
:1002E0003EC23FF20001B1DF015228E00201406B43
:1002F0003EC23FF2426B080E416F0001D7DF0201A0
:1003000001C0E9FF040E0224EA6EEF6A406B3EC2B0
:100310003FF2426B080E416F0001C8DF02C040F29D
:1003200001C03FF2040E02013F27000E40233FC2EE
:10033000E9FF040E4025EA6EEF6A00011200010E8B
:1003400002013D6F3D510F0807E33DC23EF200013F
:10035000BEDF02013D2BF6D700011200256A246A98
:100360000201336B33530AE1036A3351260FE96EFE
:10037000000E0320EA6EEF6A332BF4D7186A010EE1
:10038000196E176A000112006A6A686A9F0E6B6E26
:100390003D0E696E6E6AD3DFE1DF160E706E68A6E1
:1003A00002D030DEFCD76D9835DF030E1F6EBDEF37
:1003B00007F0698468986D82C2EF07F0689CC7EF08
:1003C00007F038C220F01200206812000201366BDC
:1003D000245025104DE036513F084AE31A50FC0FD7
:1003E00035E2040F000144EF02F023C003F0225075
:1003F000F2CF38F2F29EAADE020138BFF28E376FDA
:1004000025D023C003F02250F2CF38F2F29E74DEE2
:10041000020138BFF28E376F19D023C003F022508B
:10042000F2CF38F2F29ED2DE020138BFF28E376F81
:100430000DD023C003F02250F2CF38F2F29EB5DE89
:10044000020138BFF28E376F01D00201222AD8B4E0
:10045000232A2450D8B4250624063651362B500FB3
:10046000E96E040EEA6ED8B0EA2A37C2EFFFB0D7C1
:100470002450251004E13651400801E0176A36C2C5
:1004800038F200019EDF1200E824F76AF736A30F66
:10049000F66E040EF7220A00F550FA6E0800F550C9
:1004A000F96EEA0302041A043204236A226A1A6A01
:1004B00004011351010A000109E0030A0DE0010AD9
:1004C0000FE0220A2BE0030A55E085D0256A120EC0
:1004D000246E030E1A6E81D0256A290E246E7DD0FB
:1004E000020E1A6E036A040112511B0FE96E000E10
:1004F0000320EA6E236AEFCF22F023C003F02250DC
:10050000F2CF36F2F29E000161DE020136BFF28EBA
:10051000036A246E03C025F000015FD0D890040167
:100520001235036AF2CF36F2F29E000135DE090081
:10053000F5CF03F0020136BFF28E226E03C023F026
:10054000223C02D0235213E023C003F02250F2CF0A
:1005500036F2F29E0001FADD020136BFF28E036A26
:10056000246E03C025F0000138D004D00201000140
:100570002BDF42D0D89004011435036AF2CF36F253
:10058000F29E0001D1DD0900F5CF03F0020136BF74
:10059000F28E226E03C023F0223C02D0235218E0D8
:1005A000010E1A6ED89004011435036AF2CF36F2A8
:1005B000F29E0001C2DD0900F5CF03F0020136BF53
:1005C000F28E246E03C025F0000107D004D0020192
:1005D0000001FADE11D0F8DE0FD00401175308E154
:1005E000255203E12450165D03E2256A16C424F067
:1005F000010E176E0001EADE12000201355306E11A
:10060000040E1F6E00019BDE02D10201050E1F6E5B
:10061000040E386F900E376F010E366F36510F088B
:10062000D8A0F5D036C23EF2000151DE0201396B8E
:10063000036A3651F2CF3DF2F29E00012CDD020139
:100640003DBFF28EFF086FE0040E396FD89036354B
:10065000036AF2CF3DF2F29E00012DDD0900F5CFD5
:1006600003F002013DBFF28E3A6F03C03BF2406BD4
:1006700036C23FF2426B080E416F000117DE01C027
:100680003DF2010E02010124016E000E0220036EF4
:1006900001C0E9FF040E0324EA6E3AC2EFFF406B8B
:1006A00036C23FF2426B080E416F0001FFDD01C010
:1006B0003DF2020E02010124016E000E0220036EC3
:1006C00001C0E9FF040E0324EA6E38C2ECFFED52CC
:1006D00037C2EFFFD8903635036AF2CF3DF2F29E73
:1006E0000001E9DC0900F5CF03F002013DBFF28E05
:1006F000372703503823880E3C6F3BA101D03C8143
:100700003BA301D03C83406B36C23FF2426B080EE4
:10071000416F0001CBDD020101C0E9FF040E02249C
:10072000EA6E3CC2EFFF036A3651F2CF3DF2F29E11
:100730000001B1DC02013DBFF28EFF084BE03983BE
:10074000406B36C23FF2426B080E416F0001AEDDD6
:1007500002C03EF201C03DF2040E02013D27000E30
:100760003E23020E3D25016E000E3E21036E01C0A8
:10077000E9FF040E0324EA6E38C2ECFFED5237C2E3
:10078000EFFFD8903635036AF2CF3DF2F29E0001BA
:1007900092DC0900F5CF03F002013DBFF28E37274E
:1007A00003503823406B36C23FF2426B080E416F54
:1007B00000017CDD02C03EF201C03DF2040E0201E8
:1007C0003D27000E3E233DC2E9FF040E3E25EA6EA2
:1007D000400EEF6E3951060802E10E0E396F036AC2
:1007E0003651F2CF3DF2F29E000155DC02013DBFD1
:1007F000F28E010801E03989036A3651700FE96E03
:100800000F0E0320EA6E39C2EFFF362B07D7000127
:100810005EEF04F004011151000A00010DE0010A2D
:1008200015E0020A21E0060A2CE0030A33E00E0A72
:1008300033E0010A39E049D019C050F40401516B8A
:10084000020E0201386F0001BCDD40D00401122D00
:1008500008D0010E19160201386B0001B2DD03D079
:1008600004010001B1DD32D00401122D07D019823C
:100870000201386B0001A5DD03D004010001A4DDF5
:1008800025D0020E176E12C421F00201386B000150
:1008900098DD1CD00ADE1AD018C050F4010E0201F7
:1008A000386F00018EDD12D00401125101080BE3F4
:1008B00012C418F012C435F200019FD60201386B41
:1008C00000017FDD0401000101D07EDDB5EF05F000
:1008D00018C035F204011151000A000107E00A0AAC
:1008E0000EE0010A34E00D0A48E049D00401506BE3
:1008F000516B020E0201386F000163DD41D002012D
:10090000355322E0010E355D036AF2CF36F2F29ED6
:10091000000139DC020136BFF28E016E0401145D64
:10092000D8A002D0020110D0036A1451260FE96E3C
:10093000000E0320EA6EEFCF50F4010E0201386F73
:1009400000013FDD03D0020100013EDD19D00201AC
:10095000355310E0036A04011451260FE96E000EAE
:100960000320EA6E12C4EFFF0201386B000129DD9B
:1009700003D00201000128DD03D097DD01D024DD82
:10098000B5EF05F00201369135BF3681359F36A1AE
:1009900019D0406B35C23FF2426B080E416F000127
:1009A00085DC02C038F201C037F2040E020137279D
:1009B000000E382337C2E9FF040E3825EA6E880E90
:1009C000EF6E0FD0406B35C23FF2426B080E416FA5
:1009D00000016CDC020101C0E9FF040E0224EA6E92
:1009E000EF6A000175EF05F00201369135BF3681DF
:1009F000359F36A119D0406B35C23FF2426B080ECD
:100A0000416F000153DC02C038F201C037F2040E1E
:100A100002013727000E382337C2E9FF040E3825BC
:100A2000EA6E840EEF6E10D0406B35C23FF2426B1F
:100A3000080E416F00013ADC020101C0E9FF040E1B
:100A40000224EA6E840EEF6E00017DEF05F00201D4
:100A5000369135BF3681359F36A119D0406B35C2EE
:100A60003FF2426B080E416F000120DC02C039F2F8
:100A700001C038F2040E02013827000E392338C2B3
:100A8000E9FF040E3925EA6EEFCF37F210D0406B44
:100A900035C23FF2426B080E416F000107DC0201D4
:100AA00001C0E9FF040E0224EA6EEFCF37F237AF40
:100AB00002D037B502D0000E01D0010E016E000148
:100AC00089EF05F014C43FF225EC01F001522EE04D
:100AD00004011151010A000105E0020A0BE0030ABA
:100AE00011E023D014C435F24DD70201386B000158
:100AF00068DC1CD014C435F277D70201386B0001D2
:100B000060DC14D00401506B516B14C435F2000149
:100B10009ED7015204E0010E0401506F0001020E45
:100B20000201386F00014DDC01D04EDCB5EF05F05D
:100B300004011151000148DCB5EF05F0176A04010A
:100B400010517F0B000A000107E0010A07E0030AC9
:100B500007E0230A07E008D05DD607D0B9D605D054
:100B6000B1D703D0E5D701D02FDC40EF07F0020169
:100B7000406B35C23FF2426B080E416F000156ECEC
:100B800001F0020101C0E9FF040E0224EA6EEFCF7A
:100B900037F23651020806E137AD02D0366B02D08B
:100BA000010E366F365103081CE1840E376F406B1F
:100BB00035C23FF2426B080E416F000156EC01F066
:100BC00002C03BF201C03AF2040E02013A27000EC5
:100BD0003B233AC2E9FF040E3B25EA6E840EEF6E1A
:100BE00007D0362D03D0C80E376F02D0880E376F6E
:100BF000D8903535036AF2CF3AF2F29E00015BECF1
:100C000000F00900F5CF03F002013ABFF28E386F11
:100C100003C039F2406B35C23FF2426B080E416FA0
:100C2000000156EC01F001C03AF2010E020101246C
:100C3000016E000E0220036E01C0E9FF040E0324C2
:100C4000EA6E38C2EFFF39A101D0378139A301D054
:100C50003783406B35C23FF2426B080E416F000193
:100C600056EC01F0020101C0E9FF040E0224EA6E15
:100C700037C2EFFF00011200036A02013A51700F00
:100C8000E96E0F0E0320EA6EEF521BE0406B3AC292
:100C90003FF2426B080E416F000156EC01F002C0BA
:100CA0003CF201C03BF2040E02013B27000E3C2344
:100CB0003BC2E9FF040E3C25EA6EEFCF3DF23DAFAB
:100CC00002D0000E01D0010E016E0001120035C2EB
:100CD0003AF2D2DF0152D8B487D00201406B35C25C
:100CE0003FF2426B080E416F000156EC01F002C06A
:100CF0003BF201C03AF2040E02013A27000E3B23F8
:100D0000010E3A25016E000E3B21036E01C0E9FF82
:100D1000040E0324EA6E36C2EFFF3851020820E1C8
:100D2000406B35C23FF2426B080E416F000156EC3A
:100D300001F002C03BF201C03AF2040E02013A2770
:100D4000000E3B233AC2E9FF040E3B25EA6EEFCFCB
:100D500039F239AD02D0386B02D0010E386F1AD09B
:100D60003851040817E1406B35C23FF2426B080E60
:100D7000416F000156EC01F0020101C0E9FF040ED1
:100D80000224EA6EEFCF39F239AD03D0010E386F8D
:100D900001D0386B382D03D0C80E396F02D0880EC1
:100DA000396F37A101D0398137A301D03983406B26
:100DB00035C23FF2426B080E416F000156EC01F064
:100DC00002C03BF201C03AF2040E02013A27000EC3
:100DD0003B233AC2E9FF040E3B25EA6E39C2EFFF1E
:100DE000010E016E04D00001000E016E020100012F
:100DF00012000201355300E10001120036C26EFFFD
:100E00000201365303E0040E1F6E02D0020E1F6E65
:100E1000000110EF07F0186A176A21C036F2EED70A
:100E200021EF07F0020135530DE1172C05D0000129
:100E3000E6EC01F006D002011750020803E10001C0
:100E4000EAD70201000112001E300201336F333372
:100E500033331F0E33171E524EE1040100513C0B79
:100E60000201346F430E04010017020134513408AB
:100E700025E104010451800B01E0046B00015ED602
:100E80006D98203C07D00201356B030E366F0001D0
:100E90006EDE12D00201356B020E366F000167DE86
:100EA0002050FE0809E00201356B376B20C036F296
:100EB000040E386F00010BDF1CD00201345104080E
:100EC00019E1356B000195DF0201356B020E366FBB
:100ED00000014DDE2050FE080CE0203C01D009D07E
:100EE0000201356B376B20C036F2010E386F0001FE
:100EF000EEDE020122D01E50040812E12068356B9C
:100F0000000190DF203C01D009D00201356B376B26
:100F100020C036F2020E386F0001D9DE0DD002017A
:100F20001EB406D033C235F2000163DF05D00201E2
:100F300033C235F2000176DF02010001D3EF07F082
:100F4000A19A1F52D8B439D06852D8B436D068A408
:100F500003D069B402EF01F06DB22FD068AA03D0BC
:100F600069BA1AEF01F068A203D069B221EF01F06B
:100F700068A003D069B0C4EF01F068A803D069B8D5
:100F8000D9EF01F068AC03D069BCDEEF01F00201DB
:100F9000326B68A60AD069A608D06CCF1EF000019B
:100FA00002EC00F051D703D0020106D0000102018B
:100FB0003251322B0308EDE200012AEF00F06D6A96
:100FC000696A080E6F6E945030090201946E1F6AB0
:100FD000166AF2BE168EF29E0001AEEC01F016BE4D
:100FE000F28EF4EF07F0EBD753EF11F0130ED26E41
:100FF000A194A084928092820D0EC16E030EC06EE9
:101000009284809489949296809689969288899801
:10101000899A929A8A9693968A889398938A818AD3
:10102000F19E8A9493948B9094908B9294928B944B
:101030009494080ED56E040ECA6E4F0ECB6E0C0E35
:10104000BD6E1D0EBE6E070EB46EB56AF28CF28ECA
:10105000F28CF28E010E02010F6F0E6B106B800E80
:10106000116F000155EF11F0166AF2BE168EF29E56
:10107000AEEC01F016BEF28E6D6A140E6F6E696AE8
:101080006D86010E1F6E48EF08F06DB601D0ECD7EB
:101090001F2C0BD06DBA09D0686A696AA08AC00E8D
:1010A000F212110E696E020E1F6E57EF11F01850FA
:1010B000016E59EF11F0036A02011251700FE96ECF
:1010C0000F0E0320EA6EEF521DE0166AF2BE168E76
:1010D000F29E406B12C23FF2426B080E416F00015C
:1010E00056EC01F016BEF28E02C014F201C013F2EB
:1010F000020101C0E9FF040E0224EA6EEFCF15F2EF
:1011000015AF02D0000E01D0010E016E000161EF9B
:1011100011F0166AF2BE168EF29E0201406B1DC2DD
:101120003FF2426B080E416F000156EC01F016BE13
:10113000F28E01C027F2020E02010124016E000EA0
:101140000220036E01C0E9FF040E0324EA6EECCF17
:1011500023F2ED52EFCF22F2166AF2BE168EF29E05
:10116000406B1DC23FF2426B080E416F000156EC0E
:1011700001F016BEF28E01C027F2010E0201012419
:10118000016E000E0220036E01C0E9FF040E03246D
:10119000EA6E266BEFCF25F2166AF2BE168EF29E2D
:1011A000406B1DC23FF2426B080E416F000156ECCE
:1011B00001F016BEF28E020101C0E9FF040E022406
:1011C000EA6EEFCF24F224A101D0268124A301D01E
:1011D00026832651215D08E303E12051255D04E2C9
:1011E00026C221F225C220F21FC2EAFF1EC2E9FF79
:1011F00023C2E2FF22C2E1FF21C202F020C201F0BD
:10120000015202E0022A02D0025206E0E6CFEEFFCF
:10121000012EFCD7022EFAD720C201F021C202F023
:1012200000011EEF09F018C21DF21AC21FF219C206
:101230001EF21CC221F21BC220F26BD702C01CF2AC
:1012400001C01BF2166AF2BE168EF29E18C235F26B
:10125000020E0201366F00018ADC16BEF28E020118
:101260001BC201F01CC202F0000111EF10F0020ECF
:10127000EA6E180EE96EEF500EE00F0E016E006A76
:10128000002EFED7012EFBD78F0E006E002EFED74C
:101290000000EF2EF2D717EF10F02BC22DF22AC26A
:1012A0002CF202012CC2E9FF2DC2EAFF29C2ECFF99
:1012B000ED5228C2EFFF020E2C25E96E000E2D2103
:1012C000EA6EEC6AED52EF6A2CC201F02DC202F018
:1012D000000113EF0AF0020E02012425E96E000E50
:1012E0002521EA6EECCF29F2ED52EFCF28F22853F8
:1012F0000CE129530AE1020E2625E96E000E272192
:10130000EA6EEC6AED52EF6A1BD0020E2625016EE2
:10131000000E2721036E296F020E2425E96E000EB0
:101320002521EA6EECCF03F0ED52EFCF2AF229C26D
:10133000EAFF01C0E9FF03C0ECFFED522AC2EFFF54
:10134000020E2425E96E000E2521EA6E27C2ECFF6D
:10135000ED5226C2EFFF000120EF0AF002012AC27F
:10136000E9FF2BC2EAFF2DC2ECFFED522CC2EFFFCA
:101370000001120028C01FF227C01EF202011E53F6
:1013800003E11F53D8B489D01EC2E9FF1FC2EAFF90
:10139000ECCF25F2ED52EFCF24F225BF72D01EC262
:1013A000E9FF1FC2EAFFECCF27F2ED52EFCF26F2A2
:1013B0001D51275D66E303E11C51265D62E31EC2F9
:1013C000E9FF1FC2EAFFECCF23F2ED52EFCF22F28A
:1013D000040E1C25016E000E1D21036E0350235DBB
:1013E00040E303E12251015C3CE21C51225D246F89
:1013F0001D512359256F040E245F000E255B040E3A
:101400001E25266F000E1F21276F1C5126271D51F8
:10141000272325C229F224C228F227C22BF226C292
:101420002AF200013AD702C021F201C020F21FC205
:1014300025F21EC224F221C227F220C226F24BD787
:1014400002011CC224F2800E1D25256F1FC22BF243
:101450001EC22AF22D6F1CC22CF200017FDF0FD0BA
:10146000020122C224F2800E2325256F1FC22BF217
:101470001EC22AF22D6F22C22CF200016FDF020180
:101480000CD0020E1E25E96E000E1F21EA6EECCF75
:101490001FF2ED52EFCF1EF272D71E5307E11F531A
:1014A00005E1000E016E026E08D007D0040E1E2565
:1014B000016E000E1F21036E026E00011200166AFB
:1014C000F2BE168EF29E1EC23AF23CEC06F016BE3A
:1014D000F28E015254E0166AF2BE168EF29E02019E
:1014E000406B1EC23FF2426B080E416F000156EC8A
:1014F00001F016BEF28E02C027F201C026F2040EE1
:1015000002012627000E2723020E2625016E000E5B
:101510002721036E01C0E9FF040E0324EA6EECCF1D
:1015200025F2ED52EFCF24F225C2EAFF24C2E9FFF3
:1015300020C2E2FF1FC2E1FF22C202F021C201F07D
:10154000015202E0022A02D0025206E0E6CFEEFF8C
:10155000012EFCD7022EFAD7166AF2BE168EF29E24
:101560001EC235F222C237F221C236F223C238F24D
:10157000000167EC06F016BEF28E015002D0000E9C
:10158000016E120028C02DF227C02CF2020E0201BB
:101590002C25E96E000E2D21EA6EECCF2FF2ED52D4
:1015A000EFCF2EF22A512E5D03E12B512F5D0EE07D
:1015B000020E2C25E96E000E2D21EA6EECCF2DF2E5
:1015C000ED52EFCF2CF20001E1D70201020E2C25E3
:1015D000016E000E2D21036E2F6F020E2A25E96E7B
:1015E000000E2B21EA6EECCF03F0ED52EFCF30F27C
:1015F0002FC2EAFF01C0E9FF03C0ECFFED5230C289
:10160000EFFF2B6B2A6B000165EF0BF028C023F274
:1016100027C022F20201225303E12353D8B47CD025
:1016200022C2E9FF23C2EAFFECCF2BF2ED52EFCF4B
:101630002AF22BBF63D022C2E9FF23C2EAFFECCF1C
:1016400027F2ED52EFCF26F2020E2225E96E000EB0
:101650002321EA6EECCF25F2ED52EFCF24F224C223
:10166000E9FF25C2EAFFECCF2BF2ED52EFCF2AF2D1
:101670002BBF36D0265122252C6F275123212D6FC9
:10168000040E2C25016E000E2D21036E0150245DE9
:1016900027E10350255D24E124C2E9FF25C2EAFFCA
:1016A000ECCF29F2ED52EFCF28F2040E2825016E7F
:1016B000000E2921036E015026270350272325C23F
:1016C0002BF224C22AF200015DD723C22BF222C2E0
:1016D0002AF227C22DF226C22CF240DE0DD00201E2
:1016E000020E2225E96E000E2321EA6EECCF23F2D2
:1016F000ED52EFCF22F200010DD00201020E2225A1
:10170000E96E000E2321EA6EECCF23F2ED52EFCF0B
:1017100022F200017FD702010001C9EF0BF00201A4
:101720001C5304E11D5302E135D031D0040E1C5D81
:101730001E6F000E1D591F6F1EC2E9FF1FC2EAFF78
:10174000ECCF23F2ED52EFCF22F223AF1DD01EC219
:10175000E9FF1FC2EAFFECCF23F2ED52EFCF22F2F6
:10176000000E225D206F800E2359216F1FC22BF2C5
:101770001EC22AF221C22DF220C22CF20001EEDD9F
:1017800002011D6B1C6B03D01D6B1C6B03D0000191
:101790003DD702010001120002011D6B040E1C6FF7
:1017A0000001E8DD02C019F201C018F2020119C2FD
:1017B00003F01851182BD8B4192BE96E03C0EAFFB7
:1017C000040EEF6E19C203F01851182BD8B4192B60
:1017D000E96E03C0EAFFEF6A19C203F01851182B33
:1017E000D8B4192BE96E03C0EAFFEF6A18C2E9FF0B
:1017F00019C2EAFF010EEF6E030E185D1A6F000E9C
:1018000019591B6F010E1E6F1BC220F21AC21FF264
:10181000226B400E216F020E236F000150DE19C2B1
:101820001DF218C21CF27BDF2BEF11F002012051D8
:101830002219800B246F20AF05D01F1F201F1F2BE4
:10184000D8B4202B22AF05D0211F221F212BD8B4C2
:10185000222B1F512103F3CF01F0F4CF00F022031C
:10186000F350002620512103F3500020026E24AFD4
:1018700005D0011E021E012AD8B4022A000180EF01
:101880000CF0166AF2BE168EF29E0201406B1AC26E
:101890003FF2010E426F416B000156EC01F016BEA3
:1018A000F28E01C01FF202011B510124016E000ED5
:1018B000022001C01CF21D6F1D31036E1C31026E2F
:1018C0000332023203320232033202320332023274
:1018D00003320232030E031602C01CF203C01DF2D3
:1018E000036A1051E8BE03061C2703501D231DC2C6
:1018F00020F21CC21FF2226B11C221F2000196D706
:1019000002C01DF201C01CF2D89002011D31036E0D
:101910001C311C6F03C01DF21D511E6F1E0EBE6ECA
:101920001D6B1D31036E1C31026E033202323F0EFD
:10193000031602C01EF2CF0EBD141E09BD6E0001BB
:1019400065EF10F0000ED88002010E551A6F1A5183
:101950001903F3CF1AF21A6B1AC201F00001120038
:1019600002011C5313E0076B086B800ECD6EFA0E5C
:10197000CF6E380ECE6E9E909D80CD809E9C9D9C9D
:10198000260EC06E050EC26EC28205D09D90CD900F
:10199000C26A9E9C9D9C00011200010E02011C2542
:1019A000C26EC282C2500209FDE1000112000201B2
:1019B0002A6B2B6B010E2C6FDA6AD96A020E2F6F1D
:1019C000220E2E6F020EEA6E260EE96E2FC2E2FF85
:1019D0002EC2E1FF2CC22DF2D890E550EE02F3505A
:1019E0002A23F4502B232D2FF7D72AC2DEFF2BC238
:1019F0002AF22B6BD8B02B2B2E2BD8B42F2B2C2BC1
:101A00002C510508DFE100011DEF0DF00201216BF3
:101A1000206B1DC21FF21CC21EF221C225F220C281
:101A200024F21FC223F21EC222F2296B286B0FC2BE
:101A300027F20EC226F20001BAD703C021F202C07B
:101A400020F201C01FF200C01EF21FC21EF220C20F
:101A50001FF221C220F20201216B215303E1205128
:101A6000000804E2216B206B1F691E691EC201F091
:101A70001FC202F00001120002011D6B050E1C6F57
:101A8000000178DC02C01BF201C01AF202011BC285
:101A900003F01A511A2BD8B41B2BE96E03C0EAFFCE
:101AA000050EEF6E1C6B00015BDF040E02011C6F64
:101AB000000173DF166AF2BE168EF29E0201406BC1
:101AC000C4CF3FF2010E426F416B000156EC01F0B2
:101AD00016BEF28EC35002010124186F000E0220C0
:101AE000196F19C21DF218C21CF200018FDF02C06B
:101AF00019F201C018F202011BC203F01A511A2B8D
:101B0000D8B41B2BE96E03C0EAFF18C2EFFF1BC25B
:101B100003F01A511A2BD8B41B2BE96E03C0EAFF4D
:101B20001951EF6E1C6B000138DF166AF2BE168E7B
:101B3000F29E0201406BC4CF3FF2010E426F416B37
:101B4000000156EC01F016BEF28EC35002010124D2
:101B5000186F000E0220196F19C21DF218C21CF274
:101B6000000154DF02C019F201C018F202011BC2C9
:101B700003F01A511A2BD8B41B2BE96E03C0EAFFED
:101B800018C2EFFF1BC203F01AC2E9FF1BC2EAFF33
:101B90001951EF6E040E1A5D1C6F000E1B591D6F5C
:101BA000010E1E6F1DC220F21CC21FF2226B400EDE
:101BB000216F020E236F000182DC1BC21DF21AC2CC
:101BC0001CF2ADDD010E02011C6F0001C9DEAEEF9B
:101BD00010F01AC201F019C200F00066012A0900D3
:101BE000F5CFEEFF002EFBD7012EF9D7F86A08EFEC
:101BF00011F00201266B928480B426818986000050
:101C000000000000899600002643252FF5D726C244
:101C100001F000011200EC517F0801E20FD0EB51FE
:101C2000EB2B036A6A0FE96E000E0320EA6E25C2F1
:101C3000EFFFEB517F0801E2EB6BEC2B120025C2AA
:101C400027F226C228F2020127A1899427B189949C
:101C500000008986000089962743262FF5D70001CA
:101C600012000101EF5303E1000E016E0FD0ED51A0
:101C7000ED2B036AED0FE96E000E0320EA6EEFCF45
:101C800024F2EF07020124C201F001010001120059
:101C90000201246B80A401D0248380A601D024817A
:101CA00024C201F0000151EF0FF002011C6B1F81F3
:101CB000F298070ED56E1953D8B474D119511C5D22
:101CC000D8B070D1D8901C351A25016E000E1B219A
:101CD00001C0E9FFEA6EEFCF1DF2D50E1D5FD8906F
:101CE0001D37080E1D27F9501D25D8B0FA2AF96EA8
:101CF0000DD022D02DD04FD068D0A2D0CBD0CFD015
:101D0000D8D004D123D13DD13FD149D10451042BA6
:101D1000036AF00FE96E010E0320EA6EEFCF24F2A2
:101D200024C225F2000165DF01C024F201C025F2C2
:101D300072DF02011C2BC2D7080E256F000159DF8C
:101D400001C024F201C025F266DF02011C2BB6D7C8
:101D5000010E256F040E266F000171DF0201256B55
:101D6000080E266F00016BDF080E0201256F0001CF
:101D700040DF01C024F201C025F24DDF080E020150
:101D8000256F000136DF01C024F201C025F243DFD8
:101D900002011C2B93D7256B080E266F00014FDF25
:101DA0000201256B080E266F000149DF0201256B39
:101DB000080E266F000143DF0201256B080E266F17
:101DC00000013DDF02011C2B79D7256B040E266F25
:101DD000000135DF02010451042B036AF00FE96EA4
:101DE000010E0320EA6EEFCF24F224C225F2080E82
:101DF000266F000124DF02010451042B036AF00F57
:101E0000E96E010E0320EA6EEFCF24F224C225F220
:101E1000080E266F000113DF02010451042B036A30
:101E2000F00FE96E010E0320EA6EEFCF24F224C218
:101E300025F2080E266F000102DF02011C2B3ED79F
:101E4000256B040E266F0001FADE02010451042BFB
:101E5000036AF00FE96E010E0320EA6EEFCF24F261
:101E600024C225F2080E266F0001E9DE02010451AA
:101E7000042B036AF00FE96E010E0320EA6EEFCF28
:101E800024F224C225F2080E266F0001D8DE0201DA
:101E90001C2B14D70001E5DE02011C2B0FD700011B
:101EA000F7D601C024F201C025F2B5DE02011C2BD9
:101EB00005D71FB10FD02051D8B4210720072053D8
:101EC00005E1215303E11F811C2BF8D61C6B1FB1C8
:101ED0001C2BF4D6010E1C5D1E6F020E045F000168
:101EE000C0DE0201216B01C020F20001BADE000E4B
:101EF0000201202701502123205304E1215302E154
:101F00001C2BDCD61F911EC21CF2D8D60451042B08
:101F1000036AF00FE96E010E0320EA6EEFCF22F2A2
:101F20000F0E236F23C203F00451042B036AF00F3A
:101F3000E96E010E0320EA6EEFCF26F223C2EAFF1C
:101F400022C2E9FF26C2EFFF1C2BB8D60451042B96
:101F5000036AF00FE96E010E0320EA6EEFCF22F262
:101F60000F0E236F23C203F022C2E9FF23C2EAFF50
:101F7000EFCF24F224C225F200014DDE02011C2B1A
:101F80009DD619C21CF29AD60451042B036AF00F95
:101F9000E96E010E0320EA6EEFCF1CF28FD61C2BE8
:101FA0008DD68CD6000119EF11F0692B036A6951A7
:101FB000290FE96E000E0320EA6EEFCF18F202013E
:101FC000196B1851195D1CE2036A1951F00F016E6B
:101FD000010E032203C01BF20001692B036A695141
:101FE000290FE96E000E0320EA6EEFCF1CF202010A
:101FF0001BC2EAFF01C0E9FF1CC2EFFF192BE1D7AA
:10200000046B000128EF11F0010E696F0201186FD7
:102010001A6B290E196F1C6B400E1B6F000113EF1A
:1020200009F0010E0201186F000137EF09F029C015
:1020300012F2020112510001695DD8B00CD1036A9D
:102040006951290FE96E000E0320EA6EEFCF13F2FB
:102050000201135303E10001FED00201010E135FE0
:10206000D8901337080E1327F9501325D8B0FA2A41
:10207000F96E06D00BD00ED03BD06ED072D0E6D029
:102080000001CCEF0BF00001E6D002018B700001E3
:10209000E2D00201020E00016925036A290FE96EF0
:1020A000000E0320EA6EEFCF18F2010E6925036AD5
:1020B000290FE96E000E0320EA6EEFCF19F218C265
:1020C0001AF219C21BF241EF0CF0030E6925036AE4
:1020D000290FE96E000E0320EA6EEFCF18F218C246
:1020E00019F230DC01C005F2040E6927A2D7020103
:1020F000010E00016925036A290FE96E000E032015
:10210000EA6EEFCF0BF2020E6925036A290FE96E22
:10211000000E0320EA6EEFCF18F218C219F212DC9B
:10212000010E012402010C6F020E0C5D0D6F030EF7
:1021300000016925036A290FE96E000E0320EA6E8B
:10214000EFCF18F218C219F2A2EC0CF001C006F29F
:10215000040E69276ED7020100018ED4692B69D75E
:102160000201010E00016925036A290FE96E000EC4
:102170000320EA6EEFCF18F202011D6B18C21CF2A9
:102180000001BAEC09F002C015F201C014F2030E0E
:102190006925036A290FE96E000E0320EA6E166AAC
:1021A000F2BE168EF29E0201406BEFCF3FF2010E9F
:1021B000426F416B000156EC01F016BEF28E020E2A
:1021C0006925036A290FE96E000E0320EA6EEF50BD
:1021D00002010124166F000E0220176F010E00018C
:1021E0006925036A290FE96E000E0320EA6EEFCF1E
:1021F00018F2F86A17C2F7FF16C2F6FF15C2EAFF17
:1022000014C2E9FF02011A6B18C219F20001E1D4ED
:10221000010E6925036A290FE96E000E0320EA6E9C
:10222000EFCF18F218C219F215C21BF214C21AF23B
:102230003CD515C21DF214C21CF28FEC0BF002014A
:10224000046B040E00016927F4D602010001ADD62B
:10225000692BEFD6EED664EF11F0F86AD09E078EA8
:102260000201046BC150C00B0F09C16E070EB46EA2
:10227000020E286E440E276E010E456FB80E446F95
:10228000050E476F100E466F020E0501116FEC0E22
:10229000106F136B126B00011B6A040E1C6E0C0E88
:1022A0001D6EF3EF07F0F6EF07F045EF08F057EF7C
:1022B00008F0015209E0010E0201126F00015BEF0C
:0C22C00008F0015201E0A0D6F0D70300A6
:020000040030CA
:0E0000002CCE380E000781000FC00FE00F401D
:00000001FF
;PIC18F2550
;CRC=1469  CREATED="27-janv.-19 18:03"
