:1000000099EF07F068961200046ED8CF05F0E0CFA4
:1000100006F00001E9CF0CF0EACF07F0E1CF08F0DD
:10002000E2CF09F0D9CF0AF0DACF0BF0F3CF12F01C
:10003000F4CF13F0FACF14F000C00EF001C00FF0AF
:1000400002C010F003C011F0A0AA2AEF00F0A1BA7C
:10005000E5EF06F00EC000F00FC001F010C002F096
:1000600011C003F00CC0E9FF07C0EAFF078E08C00B
:10007000E1FF09C0E2FF0AC0D9FF0BC0DAFF12C0DE
:10008000F3FF13C0F4FF14C0FAFF045006C0E0FFF2
:1000900005C0D8FF1000F76AA60FF66E000EF72213
:1000A0000900F55012000003FFFFFFFFFFFFFFFFF5
:1000B000FFFFFFFFFFFFF76AC60FF66E000EF72285
:1000C0000900F55012004000400000000000000050
:1000D0000000000000000000000000000000000020
:1000E000000000000000F76AF60FF66E000EF7221F
:1000F0000900F55012000600FF0901A101190129AC
:10010000081580257F750895408102190129087519
:100110000895409102C0F76A260FF66E010EF7228D
:100120000900F55012000000F76A380FF66E010E54
:10013000F7220900F55012002000F76A4A0FF66E08
:10014000010EF7220900F5501200090229000101F1
:1001500002803209040000020300000009210001AE
:10016000000122200007058103400001070501036B
:1001700040000100F76A840FF66E010EF7220900B5
:10018000F55012000100F76A960FF66E010EF72285
:100190000900F55012001200F76AA80FF66E010E62
:1001A000F7220900F5501200120102000000004081
:1001B00025000100020001020001F76ACA0FF66E75
:1001C000010EF7220900F550120004030904080388
:1001D000500047004D001C03420065006C006100A8
:1001E000720062006900270073002000500049007F
:1001F00043006D92699468A402D06894FCD7F1EF33
:1002000006F0400E0401016F040E036F100E026F22
:10021000880E006F046B040E076F500E066F00010E
:10022000120070A002D0EDDF7090689AF8EF06F02F
:100230006A6A6892FDEF06F07B917ABF7B817A9FB4
:100240007A51100803E2000E016E20D07BA110D07D
:10025000036A7A51F2CF7CF0F29E1DDF7CBFF28EF2
:10026000FF0802E1000E01D0010E016E0FD00ED08A
:10027000036A7A51F2CF7CF0F29E0DDF7CBFF28EE2
:10028000FF0802E1000E01D0010E016E12007A514A
:100290007C03F3CF01F0F4CF00F07D03F350002690
:1002A0007B517C03F3500020026E1200036A7951E7
:1002B000700FE96E0F0E0320EA6EEF6A79C07AF0D4
:1002C000BBDF015222E07B6B79C07AF07D6B080EB8
:1002D0007C6FDDDF01C0E9FF040E0224EA6EEF6AE5
:1002E0007B6B79C07AF07D6B080E7C6FD0DF02C02B
:1002F0007BF001C07AF0040E7A27000E7B237AC0CF
:10030000E9FF040E7B25EA6EEF6A1200010E786F9A
:1003100078510F0805E378C079F0C8DF782BF8D75B
:100320001200256A246A6E6B6E530AE1036A6E51ED
:10033000260FE96E000E0320EA6EEF6A6E2BF4D7EB
:10034000186A010E196E176A12006A6A686A9F0EAF
:100350006B6E3D0E696E6E6AD9DFE3DF160E706E4E
:1003600068A602D04FDEFCD76D984BDF030E1F6EE0
:1003700002EF07F0698468986D8207EF07F0689CC8
:100380000CEF07F073C020F0120020681200716BB0
:100390002450251046E071513F0843E31A50FC0FEA
:1003A0002EE2040F1CEF02F023C003F02250F2CF24
:1003B00073F0F29EC2DE73BFF28E726F20D023C044
:1003C00003F02250F2CF73F0F29E8DDE73BFF28EF7
:1003D000726F15D023C003F02250F2CF73F0F29E5B
:1003E000ECDE73BFF28E726F0AD023C003F022508E
:1003F000F2CF73F0F29ED0DE73BFF28E726F222ABC
:10040000D8B4232A2450D8B4250624067151712B60
:10041000500FE96E040EEA6ED8B0EA2A72C0EFFF00
:10042000B7D72450251004E17151400801E0176A44
:1004300071C073F0A7DF1200E824F76AF736530F94
:10044000F66E040EF7220A00F550FA6E0800F55019
:10045000F96EA803BE03D403EA03236A226A1A6A68
:1004600004011351010A000109E0030A0DE0010A29
:100470000FE0220A29E0030A4DE078D0256A120E27
:10048000246E030E1A6E74D0256A290E246E70D065
:10049000020E1A6E036A040112511B0FE96E000E60
:1004A0000320EA6E236AEFCF22F023C003F022502C
:1004B000F2CF71F0F29E000180DE71BFF28E036A0E
:1004C000246E03C025F054D0D89004011235036A7D
:1004D000F2CF71F0F29E000156DE0900F5CF03F075
:1004E00071BFF28E226E03C023F0223C02D0235251
:1004F0000FE023C003F02250F2CF71F0F29E1DDE18
:1005000071BFF28E036A246E03C025F031D002D091
:100510003CDF3DD0D89004011435036AF2CF71F06E
:10052000F29E0001F8DD0900F5CF03F071BFF28EF5
:10053000226E03C023F0223C02D0235215E0010EAC
:100540001A6ED89004011435036AF2CF71F0F29E4E
:100550000001EADD0900F5CF03F071BFF28E246ED1
:1005600003C025F005D002D010DF11D00EDF0FD070
:100570000401175308E1255203E12450165D03E2FC
:10058000256A16C424F0010E176E000100DF120068
:10059000705304E1040E1F6EB9DEE9D0050E1F6E24
:1005A000040E736F900E726F010E716F71510F0810
:1005B000D8A0DDD071C079F079DE746B036A715117
:1005C000F2CF78F0F29E67DD78BFF28EFF0865E02B
:1005D000040E746FD8907135036AF2CF78F0F29EF2
:1005E0006ADD0900F5CF03F078BFF28E756F03C0A6
:1005F00076F07B6B71C07AF07D6B080E7C6F47DE06
:1006000001C078F0010E0124016E000E0220036E7D
:1006100001C0E9FF040E0324EA6E75C0EFFF7B6B97
:1006200071C07AF07D6B080E7C6F31DE01C078F00E
:10063000020E0124016E000E0220036E01C0E9FFCC
:10064000040E0324EA6E73C0ECFFED5272C0EFFF9C
:10065000D8907135036AF2CF78F0F29E2CDD090054
:10066000F5CF03F078BFF28E722703507323880E04
:10067000776F76A101D0778176A301D077837B6BEA
:1006800071C07AF07D6B080E7C6F01DE01C0E9FF5E
:10069000040E0224EA6E77C0EFFF036A7151F2CFB5
:1006A00078F0F29EF8DC78BFF28EFF0845E07483A4
:1006B0007B6B71C07AF07D6B080E7C6FE8DD02C049
:1006C00079F001C078F0040E7827000E7923020E2D
:1006D0007825016E000E7921036E01C0E9FF040E3A
:1006E0000324EA6E73C0ECFFED5272C0EFFFD890A6
:1006F0007135036AF2CF78F0F29EDDDC0900F5CFA8
:1007000003F078BFF28E7227035073237B6B71C0A6
:100710007AF07D6B080E7C6FBADD02C079F001C003
:1007200078F0040E7827000E792378C0E9FF040ED4
:100730007925EA6E400EEF6E7451060802E10E0E46
:10074000746F036A7151F2CF78F0F29EA4DC78BF27
:10075000F28E010801E07489036A7151700FE96E2D
:100760000F0E0320EA6E74C0EFFF712B1FD706EF48
:1007700004F004011151000A00010DE0010A14E027
:10078000020A1FE0060A29E0030A2EE00E0A2EE004
:10079000010A32E040D019C050F40401516B020E3E
:1007A0000001736FEFDD38D00401122D07D0010E68
:1007B00019160001736BE6DD03D004010001E5DDCD
:1007C0002BD00401122D06D019820001736BDADDE3
:1007D00003D004010001D9DD1FD0020E176E12C430
:1007E00021F0736BCFDD18D038DE16D018C050F46E
:1007F000010E736FC7DD10D004011251010809E327
:1008000012C418F012C470F00001C2D6736BBADDC6
:100810000401000101D0B9DD37EF05F018C070F018
:1008200004011151000A000107E00A0A0DE0010A63
:100830002DE00D0A3DE03ED00401506B516B020EDD
:100840000001736F9FDD37D070531EE0010E705DA5
:10085000036AF2CF71F0F29E8DDC71BFF28E016EF1
:100860000401145DD8A002D000010ED0036A145117
:10087000260FE96E000E0320EA6EEFCF50F4010E52
:100880000001736F7FDD01D080DD15D070530EE065
:10089000036A04011451260FE96E000E0320EA6E6C
:1008A00012C4EFFF0001736B6DDD01D06EDD03D06C
:1008B000D4DD01D06ADD37EF05F0719170BF718131
:1008C000709F71A117D07B6B70C07AF07D6B080EA2
:1008D0007C6FDDDC02C073F001C072F0040E722781
:1008E000000E732372C0E9FF040E7325EA6E880EB2
:1008F000EF6E0DD07B6B70C07AF07D6B080E7C6F55
:10090000C6DC01C0E9FF040E0224EA6EEF6AFDEFC7
:1009100004F0719170BF7181709F71A117D07B6BD2
:1009200070C07AF07D6B080E7C6FB1DC02C073F092
:1009300001C072F0040E7227000E732372C0E9FF2B
:10094000040E7325EA6E840EEF6E0ED07B6B70C0C2
:100950007AF07D6B080E7C6F9ADC01C0E9FF040E13
:100960000224EA6E840EEF6E03EF05F0719170BF02
:100970007181709F71A117D07B6B70C07AF07D6B15
:10098000080E7C6F84DC02C074F001C073F0040EAA
:100990007327000E742373C0E9FF040E7425EA6EFA
:1009A000EFCF72F00ED07B6B70C07AF07D6B080ECB
:1009B0007C6F6DDC01C0E9FF040E0224EA6EEFCF0C
:1009C00072F072AF02D072B502D0000E01D0010EEB
:1009D000016E0DEF05F014C47AF02EDC015228E010
:1009E00004011151010A000105E0020A09E0030AAD
:1009F0000DE01DD014C470F060D7736BC3DC18D049
:100A000014C470F086D7736BBDDC12D00401506B38
:100A1000516B14C470F00001A9D7015204E0010E1B
:100A20000401506F0001020E736FACDC01D0ADDC2D
:100A300037EF05F0040111510001A7DC37EF05F095
:100A4000176A040110517F0B000A000107E0010A38
:100A500007E0030A07E0230A07E008D08AD607D098
:100A6000DDD605D0B8D703D0E5D701D08EDC9BEF1B
:100A700006F07B6B70C07AF07D6B080E7C6F07DC34
:100A800001C0E9FF040E0224EA6EEFCF72F071514B
:100A9000020806E172AD02D0716B02D0010E716FD7
:100AA000715103081AE1840E726F7B6B70C07AF08B
:100AB0007D6B080E7C6F47EC01F002C076F001C040
:100AC00075F0040E7527000E762375C0E9FF040E3D
:100AD0007625EA6E840EEF6E07D0712D03D0C80E16
:100AE000726F02D0880E726FD8907035036AF2CFA1
:100AF00075F0F29E5BEC00F00900F5CF03F075BFD6
:100B0000F28E736F03C074F07B6B70C07AF07D6BF4
:100B1000080E7C6F47EC01F001C075F0010E012456
:100B2000016E000E0220036E01C0E9FF040E0324D3
:100B3000EA6E73C0EFFF74A101D0728174A301D07B
:100B400072837B6B70C07AF07D6B080E7C6F47EC14
:100B500001F001C0E9FF040E0224EA6E72C0EFFF4B
:100B60001200036A7551700FE96E0F0E0320EA6ED2
:100B7000EF5219E07B6B75C07AF07D6B080E7C6FCD
:100B800047EC01F002C077F001C076F0040E762742
:100B9000000E772376C0E9FF040E7725EA6EEFCFCB
:100BA00078F078AF02D0000E01D0010E016EDCEFBC
:100BB00005F070C075F0D5D70152D8B47DD07B6BED
:100BC00070C07AF07D6B080E7C6F47EC01F002C0BC
:100BD00076F001C075F0040E7527000E7623010E25
:100BE0007525016E000E7621036E01C0E9FF040E2B
:100BF0000324EA6E71C0EFFF735102081EE17B6BA4
:100C000070C07AF07D6B080E7C6F47EC01F002C07B
:100C100076F001C075F0040E7527000E762375C0BE
:100C2000E9FF040E7625EA6EEFCF74F074AD02D0C2
:100C3000736B02D0010E736F18D07351040815E165
:100C40007B6B70C07AF07D6B080E7C6F47EC01F017
:100C500001C0E9FF040E0224EA6EEFCF74F074AD18
:100C600003D0010E736F01D0736B732D03D0C80EC8
:100C7000746F02D0880E746F72A101D0748172A358
:100C800001D074837B6B70C07AF07D6B080E7C6F33
:100C900047EC01F002C076F001C075F0040E752734
:100CA000000E762375C0E9FF040E7625EA6E74C047
:100CB000EFFF010E016E02D0000E016E12007053A4
:100CC00000E1120071C06EFF715303E0040E1F6E4D
:100CD00002D0020E1F6E72EF06F0186A176A21C06A
:100CE00071F0F0D77FEF06F0705309E1172C03D0B5
:100CF000C7EC01F004D017500208D8B4EED71200A8
:100D00001E306E6F6E336E331F0E6E171E5241E132
:100D1000040100513C0B00016F6F430E04010017EA
:100D200000016F5134081EE104010451800B01E001
:100D3000046B000185D66D98203C05D0706B030EC6
:100D4000716F97DE0ED0706B020E716F92DE2050C5
:100D5000FE0807E0706B726B20C071F0040E736FB9
:100D600028DF16D06F51040813E1706BA8DF706B99
:100D7000020E716F7EDE2050FE080AE0203C01D09A
:100D800007D0706B726B20C071F0010E736F11DFB2
:100D90001AD01E5004080EE12068706BA5DF203CBD
:100DA00001D007D0706B726B20C071F0020E736FB0
:100DB00000DF09D01EB404D06EC070F080DF03D015
:100DC0006EC070F091DF16EF07F0A19A1F52D8B4F1
:100DD00033D06852D8B430D068A403D069B4F9EFE6
:100DE00000F06DB229D068AA03D069BA11EF01F002
:100DF00068A203D069B218EF01F068A003D069B00F
:100E0000A5EF01F068A803D069B8BAEF01F068ACAB
:100E100003D069BCBFEF01F06D6B68A608D069A66E
:100E200006D06CCF1EF002EC00F06AD701D004D0DF
:100E30006D516D2B0308F1E22AEF00F06D6A696ACB
:100E4000080E6F6E94503009946E1F6A166AF2BED7
:100E5000168EF29E91EC01F016BEF28E31EF07F085
:100E6000EDD7A8EF07F0EA6A680EE96EEF500EE0E2
:100E70000F0E016E006A002EFED7012EFBD78F0EDB
:100E8000006E002EFED70000EF2EF2D7AEEF07F077
:100E9000166AF2BE168EF29E91EC01F016BEF28E2C
:100EA0006D6A140E6F6E696A6D86010E1F6E5CEFBF
:100EB00007F06DB601D0ECD71F2C0BD06DBA09D05E
:100EC000686A696AA08AC00EF212110E696E020E7B
:100ED0001F6EB2EF07F01850016EB3EF07F0036A10
:100EE0006751700FE96E0F0E0320EA6EEF521BE0A0
:100EF000166AF2BE168EF29E7B6B67C07AF07D6B2F
:100F0000080E7C6F47EC01F016BEF28E02C069F04D
:100F100001C068F001C0E9FF040E0224EA6EEFCFC1
:100F20006AF06AAF02D0000E01D0010E016EB8EF78
:100F300007F0F86AD09E078EC150C00B0F09C16E32
:100F4000070EB46E1B6A040E1C6E0C0E1D6E88D745
:100F50008B80020E676FFA0E686F85D7672FFBD7FD
:100F60008B90A7D7B8D7015205E0010E676FB7D7AE
:080F7000015200E0F6D7030076
:020000040030CA
:0E0000002CCE380E000781000FC00FE00F401D
:00000001FF
;PIC18F2550
;CRC=E2EE  CREATED="28-oct.-18 19:00"
