:10000000B3EF13F068961200046ED8CF05F0E0CF7E
:1000100006F00001E9CF0CF0EACF07F0E1CF08F0DD
:10002000E2CF09F0D9CF0AF0DACF0BF0F3CF12F01C
:10003000F4CF13F0FACF14F000C00EF001C00FF0AF
:1000400002C010F003C011F09DA02AEF00F09EB096
:10005000EBEF07F09DAC30EF00F09EBC0AEF08F02C
:10006000A0AA36EF00F0A1BAACEF07F00EC000F086
:100070000FC001F010C002F011C003F00CC0E9FF86
:1000800007C0EAFF078E08C0E1FF09C0E2FF0AC00F
:10009000D9FF0BC0DAFF12C0F3FF13C0F4FF14C086
:1000A000FAFF045006C0E0FF05C0D8FF1000F76A51
:1000B000BE0FF66E000EF7220900F5501200000385
:1000C000FFFFFFFFFFFFFFFFFFFFFFFFFFFF07AE89
:1000D00003D0F2CF0DF0F29EF76AF00FF66E000E2D
:1000E000F7220900F55007AE02D00DBEF28E1200C5
:1000F0004000400000000000000000000000000080
:1001000000000000000000000000000000000000EF
:10011000F76A200FF66E010EF7220900F550120063
:100120000600FF0901A101190129081580257F7525
:10013000089540810219012908750895409102C06F
:10014000F76A500FF66E010EF7220900F550120003
:100150000000F76A620FF66E010EF7220900F550F3
:1001600012002000F76A740FF66E010EF7220900E4
:10017000F550120009022900010102803209040031
:1001800000020300000009210001000122200007F5
:100190000581034000010705010340000100F76AE3
:1001A000AE0FF66E010EF7220900F55012000100A5
:1001B000F76AC00FF66E010EF7220900F550120023
:1001C0001200F76AD20FF66E010EF7220900F55001
:1001D0001200120102000000004025000100020090
:1001E00001020001F76AF40FF66E010EF722090012
:1001F000F5501200040309040803500047004D00A5
:100200001C03420065006C0061007200620069001E
:100210002700730020005000490043006D9269944C
:1002200068A402D06894FCD7B8EF07F0400E040130
:10023000016F040E036F100E026F880E006F046BC7
:10024000040E076F500E066F0001120070A002D05E
:10025000EDDF7090689ABFEF07F06A6A6892C4EFAA
:1002600007F002016B916ABF6B816A9F6A511008A7
:1002700003E2000E016E24D06BA112D0036A6A5112
:10028000F2CF6CF2F29E000112DF02016CBFF28E1F
:10029000FF0802E1000E01D0010E016E11D010D056
:1002A000036A6A51F2CF6CF2F29E000100DF020194
:1002B0006CBFF28EFF0802E1000E01D0010E016E4C
:1002C0000001120002016A516C03F3CF01F0F4CF78
:1002D00000F06D03F35000266B516C03F3500020C7
:1002E000026E00011200036A02016951700FE96E8B
:1002F0000F0E0320EA6EEF6A69C26AF20001B1DFF5
:10030000015228E002016B6B69C26AF26D6B080E44
:100310006C6F0001D7DF020101C0E9FF040E022467
:10032000EA6EEF6A6B6B69C26AF26D6B080E6C6FF6
:100330000001C8DF02C06BF201C06AF2040E0201C4
:100340006A27000E6B236AC2E9FF040E6B25EA6E72
:10035000EF6A00011200010E0201686F68510F0878
:1003600007E368C269F20001BEDF0201682BF6D71D
:1003700000011200256A246A02015E6B5E530AE1E5
:10038000036A5E51260FE96E000E0320EA6EEF6AE3
:100390005E2BF4D7186A010E196E176A000112005D
:1003A0006A6A686A9F0E6B6E3D0E696E6E6AD3DF75
:1003B000E1DF160E706E68A602D024DEFCD76D98C1
:1003C00035DF030E1F6EC9EF07F0698468986D82F0
:1003D000CEEF07F0689CD3EF07F063C220F0120065
:1003E000206812000201616B245025104DE061511C
:1003F0003F084AE31A50FC0F35E2040F000150EFAA
:1004000002F023C003F02250F2CF63F2F29EAADE84
:10041000020163BFF28E626F25D023C003F0225029
:10042000F2CF63F2F29E74DE020163BFF28E626F5E
:1004300019D023C003F02250F2CF63F2F29ED2DE35
:10044000020163BFF28E626F0DD023C003F0225011
:10045000F2CF63F2F29EB5DE020163BFF28E626FED
:1004600001D00201222AD8B4232A2450D8B4250668
:1004700024066151612B500FE96E040EEA6ED8B06C
:10048000EA2A62C2EFFFB0D72450251004E161517F
:10049000400801E0176A61C263F200019EDF1200AA
:1004A000E824F76AF736BB0FF66E040EF7220A004F
:1004B000F550FA6E0800F550F96E02041A04320481
:1004C0004A04236A226A1A6A04011351010A0001CC
:1004D00009E0030A0DE0010A0FE0220A2BE0030AFB
:1004E00055E085D0256A120E246E030E1A6E81D057
:1004F000256A290E246E7DD0020E1A6E036A04014D
:1005000012511B0FE96E000E0320EA6E236AEFCF33
:1005100022F023C003F02250F2CF61F2F29E0001DC
:1005200061DE020161BFF28E036A246E03C025F012
:1005300000015FD0D89004011235036AF2CF61F256
:10054000F29E000135DE0900F5CF03F0020161BF24
:10055000F28E226E03C023F0223C02D0235213E01D
:1005600023C003F02250F2CF61F2F29E0001FADDC7
:10057000020161BFF28E036A246E03C025F0000100
:1005800038D004D0020100012BDF42D0D890040102
:100590001435036AF2CF61F2F29E0001D1DD090049
:1005A000F5CF03F0020161BFF28E226E03C023F08B
:1005B000223C02D0235218E0010E1A6ED89004019A
:1005C0001435036AF2CF61F2F29E0001C2DD090028
:1005D000F5CF03F0020161BFF28E246E03C025F057
:1005E000000107D004D002010001FADE11D0F8DECC
:1005F0000FD00401175308E1255203E12450165D82
:1006000003E2256A16C424F0010E176E0001EADE2B
:1006100012000201605306E1040E1F6E00019BDE12
:1006200002D10201050E1F6E040E636F900E626F01
:10063000010E616F61510F08D8A0F5D061C269F257
:10064000000151DE0201646B036A6151F2CF68F26E
:10065000F29E00012CDD020168BFF28EFF086FE000
:10066000040E646FD8906135036AF2CF68F2F29E8F
:1006700000012DDD0900F5CF03F0020168BFF28E05
:10068000656F03C066F26B6B61C26AF26D6B080E38
:100690006C6F000117DE01C068F2010E0201012437
:1006A000016E000E0220036E01C0E9FF040E032458
:1006B000EA6E65C2EFFF6B6B61C26AF26D6B080E8A
:1006C0006C6F0001FFDD01C068F2020E020101241F
:1006D000016E000E0220036E01C0E9FF040E032428
:1006E000EA6E63C2ECFFED5262C2EFFFD890613553
:1006F000036AF2CF68F2F29E0001E9DC0900F5CF4F
:1007000003F0020168BFF28E622703506323880E54
:10071000676F66A101D0678166A301D067836B6BA9
:1007200061C26AF26D6B080E6C6F0001CBDD0201D5
:1007300001C0E9FF040E0224EA6E67C2EFFF036AFC
:100740006151F2CF68F2F29E0001B1DC020168BF94
:10075000F28EFF084BE064836B6B61C26AF26D6BD3
:10076000080E6C6F0001AEDD02C069F201C068F2D4
:10077000040E02016827000E6923020E6825016E2F
:10078000000E6921036E01C0E9FF040E0324EA6E26
:1007900063C2ECFFED5262C2EFFFD8906135036A8D
:1007A000F2CF68F2F29E000192DC0900F5CF03F06F
:1007B000020168BFF28E6227035063236B6B61C234
:1007C0006AF26D6B080E6C6F00017CDD02C069F28D
:1007D00001C068F2040E02016827000E692368C296
:1007E000E9FF040E6925EA6E400EEF6E64510608BB
:1007F00002E10E0E646F036A6151F2CF68F2F29E5D
:10080000000155DC020168BFF28E010801E0648935
:10081000036A6151700FE96E0F0E0320EA6E64C225
:10082000EFFF612B07D700016AEF04F004011151BB
:10083000000A00010DE0010A15E0020A21E0060AA3
:100840002CE0030A33E00E0A33E0010A39E049D014
:1008500019C050F40401516B020E0201636F0001D4
:10086000BCDD40D00401122D08D0010E1916020182
:10087000636B0001B2DD03D004010001B1DD32D0B1
:100880000401122D07D019820201636B0001A5DD5E
:1008900003D004010001A4DD25D0020E176E12C49E
:1008A00021F00201636B000198DD1CD00ADE1AD032
:1008B00018C050F4010E0201636F00018EDD12D0EA
:1008C0000401125101080BE312C418F012C460F2C3
:1008D00000019FD60201636B00017FDD040100016E
:1008E00001D07EDDC1EF05F018C060F204011151A6
:1008F000000A000107E00A0A0EE0010A34E00D0ACE
:1009000048E049D00401506B516B020E0201636F45
:10091000000163DD41D00201605322E0010E605D01
:10092000036AF2CF61F2F29E000139DC020161BF7D
:10093000F28E016E0401145DD8A002D0020110D025
:10094000036A1451260FE96E000E0320EA6EEFCF02
:1009500050F4010E0201636F00013FDD03D002017C
:1009600000013EDD19D00201605310E0036A04016A
:100970001451260FE96E000E0320EA6E12C4EFFF39
:100980000201636B000129DD03D00201000128DDB3
:1009900003D097DD01D024DDC1EF05F002016191A4
:1009A00060BF6181609F61A119D06B6B60C26AF208
:1009B0006D6B080E6C6F000185DC02C063F201C034
:1009C00062F2040E02016227000E632362C2E9FF95
:1009D000040E6325EA6E880EEF6E0FD06B6B60C25B
:1009E0006AF26D6B080E6C6F00016CDC020101C0D5
:1009F000E9FF040E0224EA6EEF6A000181EF05F0C0
:100A00000201619160BF6181609F61A119D06B6B30
:100A100060C26AF26D6B080E6C6F000153DC02C09D
:100A200063F201C062F2040E02016227000E63232A
:100A300062C2E9FF040E6325EA6E840EEF6E10D0E9
:100A40006B6B60C26AF26D6B080E6C6F00013ADC72
:100A5000020101C0E9FF040E0224EA6E840EEF6E6B
:100A6000000189EF05F00201619160BF6181609F23
:100A700061A119D06B6B60C26AF26D6B080E6C6F6E
:100A8000000120DC02C064F201C063F2040E020126
:100A90006327000E642363C2E9FF040E6425EA6E37
:100AA000EFCF62F210D06B6B60C26AF26D6B080E12
:100AB0006C6F000107DC020101C0E9FF040E022493
:100AC000EA6EEFCF62F262AF02D062B502D0000EE2
:100AD00001D0010E016E000195EF05F014C46AF219
:100AE00031EC01F001522EE004011151010A000124
:100AF00005E0020A0BE0030A11E023D014C460F2FF
:100B00004DD70201636B000168DC1CD014C460F295
:100B100077D70201636B000160DC14D00401506BD5
:100B2000516B14C460F200019ED7015204E0010E23
:100B30000401506F0001020E0201636F00014DDCE1
:100B400001D04EDCC1EF05F004011151000148DC79
:100B5000C1EF05F0176A040110517F0B000A000174
:100B600007E0010A07E0030A07E0230A07E008D0CC
:100B70005DD607D0B9D605D0B1D703D0E5D701D01F
:100B80002FDC4CEF07F002016B6B60C26AF26D6BF9
:100B9000080E6C6F000162EC01F0020101C0E9FF78
:100BA000040E0224EA6EEFCF62F26151020806E100
:100BB00062AD02D0616B02D0010E616F615103081A
:100BC0001CE1840E626F6B6B60C26AF26D6B080E83
:100BD0006C6F000162EC01F002C066F201C065F2C8
:100BE000040E02016527000E662365C2E9FF040EAC
:100BF0006625EA6E840EEF6E07D0612D03D0C80E15
:100C0000626F02D0880E626FD8906035036AF2CFAF
:100C100065F2F29E000167EC00F00900F5CF03F0E9
:100C2000020165BFF28E636F03C064F26B6B60C23A
:100C30006AF26D6B080E6C6F000162EC01F001C08E
:100C400065F2010E02010124016E000E0220036E06
:100C500001C0E9FF040E0324EA6E63C2EFFF64A142
:100C600001D0628164A301D062836B6B60C26AF2BF
:100C70006D6B080E6C6F000162EC01F0020101C0A7
:100C8000E9FF040E0224EA6E62C2EFFF00011200C7
:100C9000036A02016551700FE96E0F0E0320EA6EC0
:100CA000EF521BE06B6B65C26AF26D6B080E6C6FE6
:100CB000000162EC01F002C067F201C066F2040EAE
:100CC00002016627000E672366C2E9FF040E67254E
:100CD000EA6EEFCF68F268AF02D0000E01D0010ECD
:100CE000016E0001120060C265F2D2DF0152D8B479
:100CF00087D002016B6B60C26AF26D6B080E6C6F7D
:100D0000000162EC01F002C066F201C065F2040E5F
:100D100002016527000E6623010E6525016E000E97
:100D20006621036E01C0E9FF040E0324EA6E61C26E
:100D3000EFFF6351020820E16B6B60C26AF26D6BDA
:100D4000080E6C6F000162EC01F002C066F201C097
:100D500065F2040E02016527000E662365C2E9FFF5
:100D6000040E6625EA6EEFCF64F264AD02D0636BC9
:100D700002D0010E636F1AD06351040817E16B6B48
:100D800060C26AF26D6B080E6C6F000162EC01F0DC
:100D9000020101C0E9FF040E0224EA6EEFCF64F203
:100DA00064AD03D0010E636F01D0636B632D03D07C
:100DB000C80E646F02D0880E646F62A101D0648196
:100DC00062A301D064836B6B60C26AF26D6B080E24
:100DD0006C6F000162EC01F002C066F201C065F2C6
:100DE000040E02016527000E662365C2E9FF040EAA
:100DF0006625EA6E64C2EFFF010E016E04D00001A9
:100E0000000E016E0201000112000201605300E1B8
:100E10000001120061C26EFF0201615303E0040E83
:100E20001F6E02D0020E1F6E00011CEF07F0186A41
:100E3000176A21C061F2EED72DEF07F0020160536F
:100E40000DE1172C05D00001F2EC01F006D00201F3
:100E50001750020803E10001EAD702010001120065
:100E60001E3002015E6F5E335E331F0E5E171E5230
:100E70004EE1040100513C0B02015F6F430E04017F
:100E8000001702015F51340825E104010451800B71
:100E900001E0046B00015ED66D98203C07D0020192
:100EA000606B030E616F00016EDE12D00201606B99
:100EB000020E616F000167DE2050FE0809E00201AA
:100EC000606B626B20C061F2040E636F00010BDF88
:100ED0001CD002015F51040819E1606B000195DF2D
:100EE0000201606B020E616F00014DDE2050FE08B2
:100EF0000CE0203C01D009D00201606B626B20C085
:100F000061F2010E636F0001EEDE020122D01E507D
:100F1000040812E12068606B000190DF203C01D0E2
:100F200009D00201606B626B20C061F2020E636F38
:100F30000001D9DE0DD002011EB406D05EC260F2FF
:100F4000000163DF05D002015EC260F2000176DFBE
:100F500002010001DFEF07F0A19A1F52D8B439D087
:100F60006852D8B436D068A403D069B40EEF01F04B
:100F70006DB22FD068AA03D069BA26EF01F068A23B
:100F800003D069B22DEF01F068A003D069B0D0EFB3
:100F900001F068A803D069B8E5EF01F068AC03D0B0
:100FA00069BCEAEF01F002015D6B68A60AD069A690
:100FB00008D06CCF1EF0000102EC00F051D703D036
:100FC000020106D0000102015D515D2B0308EDE234
:100FD000000136EF00F0FA0ECF6E380ECE6E815261
:100FE00002E0000E01D0010E02013151C45C08E2A2
:100FF00033510C0803E18A948A8801D0332B01D045
:10100000336B9E9C010EC26E9D8CC2829E9000012D
:1010100036EF00F0BA500C080CE1C4500201385D04
:1010200001E2BB6A3951C45C02E237C2BBFF346BD8
:101030000001050EC26E9D9CC2829E9C36EF00F0A0
:101040000201465313E0336B346B800ECD6EFA0E03
:10105000CF6E380ECE6E9E909D80CD809E9C9D9CC6
:10106000260EC06E050EC26EC28205D09D90CD9038
:10107000C26A9E9C9D9C00011200130ED26EA19428
:10108000A094928092820D0EC16E030EC06E928467
:101090008094899492868096899692888998899A74
:1010A000929A8A9693968A889398938A818AF19ED7
:1010B0008A9493948B9094908B9294928B94949422
:1010C000080ED56E040ECA6E4F0ECB6E0C0EBD6EA2
:1010D0001D0EBE6E400E0201376F3E0E386F3C0E85
:1010E000396F7E0E316F2D0E326F070EB46EB56AFA
:1010F000F28CF28E010E466F0001A2DF01012D6B12
:101100002C6B2B6B0201306B2F6B2E6B010E3B6F28
:101110003A6B3C6B800E3D6F0001D8EF13F06D6AA7
:10112000696A080E6F6E945030090201946E1F6A4E
:10113000166AF2BE168EF29E0001BAEC01F016BEDF
:10114000F28EA4EF08F0EBD7DAEF13F0166AF2BED6
:10115000168EF29EBAEC01F016BEF28E6D6A140E77
:101160006F6E696A6D86010E1F6EBAEF08F06DB67C
:1011700001D0ECD71F2C0BD06DBA09D0686A696A10
:10118000A08AC00EF212110E696E020E1F6EDCEF05
:1011900013F01850016EDEEF13F0036A02013E51A6
:1011A000700FE96E0F0E0320EA6EEF521DE0166A13
:1011B000F2BE168EF29E6B6B3EC26AF26D6B080E2B
:1011C0006C6F000162EC01F016BEF28E02C040F2BC
:1011D00001C03FF2020101C0E9FF040E0224EA6EE1
:1011E000EFCF41F241AF02D0000E01D0010E016EEF
:1011F0000001E6EF13F0166AF2BE168EF29E0201AF
:101200006B6B49C26AF26D6B080E6C6F000162EC89
:1012100001F016BEF28E01C053F2020E020101244B
:10122000016E000E0220036E01C0E9FF040E0324CC
:10123000EA6EECCF4FF2ED52EFCF4EF2166AF2BEED
:10124000168EF29E6B6B49C26AF26D6B080E6C6F64
:10125000000162EC01F016BEF28E01C053F2010EE5
:1012600002010124016E000E0220036E01C0E9FF9D
:10127000040E0324EA6E526BEFCF51F2166AF2BEEF
:10128000168EF29E6B6B49C26AF26D6B080E6C6F24
:10129000000162EC01F016BEF28E020101C0E9FF0E
:1012A000040E0224EA6EEFCF50F250A101D0528119
:1012B00050A301D0528352514D5D08E303E14C51DC
:1012C000515D04E252C24DF251C24CF24BC2EAFFF0
:1012D0004AC2E9FF4FC2E2FF4EC2E1FF4DC202F037
:1012E0004CC201F0015202E0022A02D0025206E092
:1012F000E6CFEEFF012EFCD7022EFAD74CC201F04A
:101300004DC202F0000190EF09F044C249F246C21A
:101310004BF245C24AF248C24DF247C24CF26BD77B
:1013200002C048F201C047F2166AF2BE168EF29E63
:1013300044C260F2020E0201616F000124DC16BE9D
:10134000F28E020147C201F048C202F0000152EFE2
:1013500012F0166AF2BE168EF29E46C265F298DC54
:1013600016BEF28E015253E0166AF2BE168EF29E3F
:1013700002016B6B46C26AF26D6B080E6C6F000166
:1013800062EC01F016BEF28E02C04FF201C04EF2C6
:10139000040E02014E27000E4F23020E4E25016E51
:1013A000000E4F21036E01C0E9FF040E0324EA6E14
:1013B000ECCF4DF2ED52EFCF4CF24DC2EAFF4CC2F2
:1013C000E9FF48C2E2FF47C2E1FF4AC202F049C258
:1013D00001F0015202E0022A02D0025206E0E6CFFA
:1013E000EEFF012EFCD7022EFAD7166AF2BE168E39
:1013F000F29E46C260F24AC262F249C261F24BC238
:1014000063F2000170DC16BEF28E015002D0000EB5
:10141000016E1200030E6A6F6B6B020E6C6F160E7C
:101420006D6F010E0201466F486B6A0E476F4A6B83
:10143000400E496F020E4B6F00018BDF80EF12F000
:1014400002014C514E19800B506F4CAF05D04B1F11
:101450004C1F4B2BD8B44C2B4EAF05D04D1F4E1FFD
:101460004D2BD8B44E2B4B514D03F3CF01F0F4CF9D
:1014700000F04E03F35000264C514D03F350002072
:10148000026E50AF05D0011E021E012AD8B4022AF6
:1014900000018AEF0AF0166AF2BE168EF29E020171
:1014A0006B6B46C26AF2010E6D6F6C6B000162ECF1
:1014B00001F016BEF28E01C04BF202014751012429
:1014C000016E000E022001C048F2496F4931036EDF
:1014D0004831026E033202320332023203320232E8
:1014E0000332023203320232030E031602C048F204
:1014F00003C049F2036A3C51E8BE03064827035083
:10150000492349C24CF248C24BF24E6B3DC24DF2E8
:10151000000196D702C049F201C048F2D8900201FA
:101520004931036E4831486F03C049F249514A6F4F
:101530004AC2BEFF496B4931036E4831026E033225
:1015400002323F0E031602C04AF2BD50CF0B4A11C1
:10155000BD6E0001A6EF12F0000ED88002013A55D0
:10156000466F46514503F3CF46F2466B46C201F043
:1015700000011200010E02014625C26EC282C2B2F3
:10158000FED7000112000201546B556B010E566F1D
:10159000DA6AD96A020E596F4C0E586F020EEA6E63
:1015A000500EE96E59C2E2FF58C2E1FF56C257F22F
:1015B000D890E550EE02F3505423F4505523572FA2
:1015C000F7D754C2DEFF55C254F2556BD8B0552B35
:1015D000582BD8B4592B562B56510508DFE1000182
:1015E00009EF0BF002014B6B4A6B47C249F246C24E
:1015F00048F24BC24FF24AC24EF249C24DF248C2C3
:101600004CF2536B526B3BC251F23AC250F20001A2
:10161000BAD703C04BF202C04AF201C049F200C07F
:1016200048F249C248F24AC249F24BC24AF20201A8
:101630004B6B4B5303E14A51000804E24B6B4A6B7E
:101640004969486948C201F049C202F0000112002C
:10165000050E6A6F0201466B0001F2DC040E020106
:10166000466F000187DF166AF2BE168EF29E0201F7
:101670006B6BC4CF6AF2010E6D6F6C6B000162EC94
:1016800001F016BEF28EC35002010124446F000E19
:101690000220456F45C247F244C246F20001A2DF74
:1016A00002C045F201C044F244C26BF00201455150
:1016B00000016C6F0201466B00015CDF166AF2BE2E
:1016C000168EF29E02016B6BC4CF6AF2010E6D6F33
:1016D0006C6B000162EC01F016BEF28EC350020189
:1016E0000124446F000E0220456F45C247F244C2F8
:1016F00046F2000177DF02C045F201C044F244C265
:101700006DF00201455100016E6F010E0201466F3E
:10171000486B6A0E476F4A6B400E496F020E4B6F63
:10172000000117DE010E0201466F000189DCF2EFB5
:1017300012F054C256F253C255F2020155C2E9FFEB
:1017400056C2EAFF52C2ECFFED5251C2EFFF020E49
:101750005525E96E000E5621EA6EEC6AED52EF6AED
:1017600055C201F056C202F000015FEF0CF0020E0C
:1017700002014D25E96E000E4E21EA6EECCF52F2C9
:10178000ED52EFCF51F251530CE152530AE1020EE8
:101790004F25E96E000E5021EA6EEC6AED52EF6AB9
:1017A0001BD0020E4F25016E000E5021036E526FAA
:1017B000020E4D25E96E000E4E21EA6EECCF03F0CD
:1017C000ED52EFCF53F252C2EAFF01C0E9FF03C06E
:1017D000ECFFED5253C2EFFF020E4D25E96E000EF5
:1017E0004E21EA6E50C2ECFFED524FC2EFFF0001F6
:1017F0006CEF0CF0020152C2E9FF53C2EAFF55C27E
:10180000ECFFED5254C2EFFF0001120028C048F275
:1018100027C047F20201475303E14853D8B489D0A7
:1018200047C2E9FF48C2EAFFECCF4EF2ED52EFCFDC
:101830004DF24EBF72D047C2E9FF48C2EAFFECCF7B
:1018400050F2ED52EFCF4FF24651505D66E303E1A7
:1018500045514F5D62E347C2E9FF48C2EAFFECCF62
:101860004CF2ED52EFCF4BF2040E4525016E000E07
:101870004621036E03504C5D40E303E14B51015C94
:101880003CE245514B5D4D6F46514C594E6F040E35
:101890004D5F000E4E5B040E47254F6F000E482132
:1018A000506F45514F27465150234EC252F24DC200
:1018B00051F250C254F24FC253F200013AD702C063
:1018C0004AF201C049F248C24EF247C24DF24AC242
:1018D00050F249C24FF24BD7020145C24DF2800E81
:1018E00046254E6F48C253F247C252F2556F45C269
:1018F00054F200017FDF0FD002014BC24DF2800E87
:101900004C254E6F48C253F247C252F2556F4BC23C
:1019100054F200016FDF02010CD0020E4725E96E80
:10192000000E4821EA6EECCF48F2ED52EFCF47F2BD
:1019300072D7475307E1485305E1000E016E026E6E
:1019400008D007D0040E4725016E000E4821036E13
:10195000026E000107EF13F046C201F045C200F02D
:101960000066012A0900F5CFEEFF002EFBD7012EFD
:10197000F9D7F86A4DEF13F00201596B928480B4E5
:1019800059818986000000000000899600005943B3
:10199000582FF5D759C201F00001120001012D5155
:1019A0007F0801E20FD0036A2C51AB0FE96E000EE5
:1019B0000320EA6E58C2EFFF2C2B2C517F0801E266
:1019C0002C6B2D2B0001120058C25AF259C25BF247
:1019D00002015AA189945AB18994000089860000B5
:1019E00089965A435B2FF5D700011200020130534C
:1019F00003E1000E016E0DD0036A2E512E0FE96E29
:101A0000010E0320EA6EEFCF57F22E2B300757C29C
:101A100001F0000112000201576B80A401D057832E
:101A200080A601D0578157C201F000019DEF0EF052
:101A3000F294FF0ED76E0201581DD66ED62AD58EAF
:101A4000F2A4FED7D59E000185EF0FF0F2940201BB
:101A5000581DD76ED72AD66AD58EF2A4FED7D59E4A
:101A6000000198EF0FF058C259F202015A6B9284AC
:101A7000898600000000000080B45A818996000029
:101A80005A43592FF5D792945AC201F0000112001F
:101A900059C25BF25AC25CF202015BA189945BB14C
:101AA000898400008986000089965B435C2FF5D706
:101AB00000011200020158A502D0010E01D0000E53
:101AC0008996E8B0898658A702D0010E01D0000E91
:101AD0008994E8B0898458A102D0010E01D0000E8B
:101AE0009296E8B0928658A302D0010E01D0000E63
:101AF0009294E8B0928400019AEF10F002014A6BD0
:101B00004E814E83F298070ED56E4753D8B437D323
:101B100047514A5DD8B033D34A514825016E000E73
:101B2000492101C0E9FFEA6EEFCF4BF2D50E4B5FC2
:101B3000D8904B37080E4B27F9504B25D8B0FA2ACE
:101B4000F96E24D03BD046D068D081D0C1D0EED041
:101B5000F2D0FBD02ED14DD168D16AD175D19DD1B3
:101B6000C4D1D6D1E8D11FD231D248D261D28CD2E1
:101B700092D29DD2AAD2BED2E1D2E3D2E5D2E8D2AD
:101B8000EBD2EDD2EFD2F1D2F3D2F5D24A2B4A51B9
:101B90004825016E000E4921036E01C0E9FFEA6E7F
:101BA000EFCF57F257C258F20001E6DE01C057F2FC
:101BB00001C058F2F3DE02014A2BAAD7080E586F73
:101BC0000001DADE01C057F201C058F2E7DE02017F
:101BD0004A2B9ED7010E586F040E596F0001F4DE98
:101BE0000201586B080E596F0001EEDE080E02016B
:101BF000586F0001C1DE01C057F201C058F2CEDEBD
:101C0000080E0201586F0001B7DE01C057F201C093
:101C100058F2C4DE02014A2B7BD7586B080E596F6D
:101C20000001D2DE0201586B080E596F0001CCDEB4
:101C30000201586B080E596F0001C6DE0201586B95
:101C4000080E596F0001C0DE02014A2B61D7586BA4
:101C5000040E596F0001B8DE02014A2B4A51482593
:101C6000016E000E4921036E01C0E9FFEA6EEFCF5D
:101C700057F257C258F2080E596F0001A5DE020153
:101C80004A2B4A514825016E000E4921036E01C0BE
:101C9000E9FFEA6EEFCF57F257C258F2080E596FBC
:101CA000000192DE02014A2B4A514825016E000EC6
:101CB0004921036E01C0E9FFEA6EEFCF57F257C228
:101CC00058F2080E596F00017FDE02014A2B20D71F
:101CD000586B040E596F000177DE02014A2B4A51FE
:101CE0004825016E000E4921036E01C0E9FFEA6E2E
:101CF000EFCF57F257C258F2080E596F000164DE59
:101D000002014A2B4A514825016E000E4921036EFB
:101D100001C0E9FFEA6EEFCF57F257C258F2080E42
:101D2000596F000151DE02014A2BF2D600015EDE3E
:101D300002014A2BEDD600016ED601C057F201C058
:101D400058F22CDE02014A2BE3D64EB10FD04F5190
:101D5000D8B450074F074F5305E1505303E14E816C
:101D60004A2BD6D64A6B4EB14A2BD2D64A2B4A5171
:101D70004825016E000E492101C0E9FFEA6EEF50CF
:101D80004A5D4C6F000132DE0201506B01C04FF220
:101D900000012CDE000E02014F27015050234F534B
:101DA00004E1505302E14A2BB3D64E914CC24AF2A1
:101DB000AFD64A2B4A514825016E000E492101C079
:101DC000E9FFEA6EEFCF55F20F0E566F4A2B4A51DC
:101DD0004825016E000E492101C0E9FFEA6EEFCFF0
:101DE00059F256C2EAFF55C2E9FF59C2EFFF4A2B2A
:101DF0008FD64A2B4A514825016E000E492101C059
:101E0000E9FFEA6EEFCF55F20F0E566F56C203F0A0
:101E100055C2E9FF56C2EAFFEFCF57F257C258F258
:101E20000001BCDD02014A2B73D647C24AF270D6CC
:101E30004A2B4A514825016E000E492101C0E9FF95
:101E4000EA6EEFCF4AF264D6010E01012C5D036AFF
:101E5000AB0FE96E000E0320EA6EEFCF4DF20201E8
:101E60004A2B4A514825016E000E4921036E01C0DC
:101E7000E9FFEA6EEF504D5D0EE00DE34A2B4A514B
:101E80004825016E000E492101C0E9FFEA6EEF50BE
:101E90004A254A6F01D04A2B3BD6010E01012C5D29
:101EA000036AAB0FE96E000E0320EA6EEFCF4DF22E
:101EB00002014A2B4A514825016E000E4921036E4A
:101EC00001C0E9FFEA6EEF504D5D0DE14A2B4A512A
:101ED0004825016E000E492101C0E9FFEA6EEF506E
:101EE0004A254A6F01D04A2B13D64A2B4A5148251E
:101EF000016E000E4921036E01C0E9FFEA6EEFCFCB
:101F000057F257C258F2000193D502014A2B00D66E
:101F10004A2B4A514825016E000E4921036E01C02B
:101F2000E9FFEA6EEFCF57F257C258F200018ED5A3
:101F300002014A2BEDD54EB30FD05151D8B4520700
:101F40005107515306E1525304E14E83030E4A27D1
:101F5000DFD553C24AF2DCD54E934A514825576F1C
:101F6000000E4921586F010E5725016E000E5821B1
:101F700001C0E9FFEA6EEF504A5D536F546B4A515E
:101F80004825576F000E4921586F020E5725016EE4
:101F9000000E582101C0E9FFEA6E526BEFCF51F2FB
:101FA00053C24AF2B5D54A2B4A514825016E000E5C
:101FB0004921036E01C0E9FFEA6EEFCF57F257C225
:101FC00058F2000150DD02014A2BA2D54A2B4A519A
:101FD0004825016E000E4921036E01C0E9FFEA6E3B
:101FE000EFCF57F257C258F200013DDD01C057F262
:101FF00001C058F2D3DC02014A2B8AD50001F6DC7D
:1020000001C057F202014A2B4A514825016E000EC9
:102010004921036E01C0E9FFEA6EEFCF58F257C2C3
:1020200059F258C25AF2000133DD02014A2B70D531
:102030004A514825576F000E4921586F020E572507
:10204000016E000E5821036E01C0E9FFEA6EEFCF6A
:1020500057F24A514825586F000E4921596F010E19
:102060005825016E000E5921036E01C0E9FFEA6E8A
:10207000EFCF58F257C259F258C25AF2000108DDA8
:10208000030E02014A2744D5080E586F0001EBDC0D
:1020900002014A2B3DD5080E586F0001E4DC01C057
:1020A00057F201C058F27ADC02014A2B31D5000107
:1020B0009DDC01C057F201C059F2080E02015A6FAF
:1020C0000001E6DC02014A2B23D54A2B4A51482560
:1020D000016E000E4921036E01C0E9FFEA6EEFCFE9
:1020E00057F257C259F2080E5A6F0001D1DC0201B3
:1020F0004A2B0ED54A514825576F000E4921586F7B
:10210000010E5725016E000E582101C0E9FFEA6E4D
:10211000EFCFAAF04A2B4A514825016E000E492103
:10212000036E01C0E9FFEA6EEFCF57F257C258F2D3
:102130000001C0D4010E02014A27EAD4899A4A2B31
:10214000E7D4898A4A2BE4D4BA6A8B924A2BE0D42A
:102150000C0EBA6E4A2BDCD48A844A2BD9D48A94CA
:102160004A2BD6D48A864A2BD3D48A964A2BD0D4EB
:102170008A984A2BCDD48A884A2BCAD4C9D4000164
:10218000120028C055F227C054F2020E0201542555
:10219000E96E000E5521EA6EECCF57F2ED52EFCF0B
:1021A00056F25251565D03E15351575D0EE0020E57
:1021B0005425E96E000E5521EA6EECCF55F2ED5232
:1021C000EFCF54F20001E1D70201020E5425016E57
:1021D000000E5521036E576F020E5225E96E000E58
:1021E0005321EA6EECCF03F0ED52EFCF58F257C215
:1021F000EAFF01C0E9FF03C0ECFFED5258C2EFFF58
:10220000536B526B000164EF11F028C04BF227C0F2
:102210004AF202014A5303E14B53D8B47DD04AC27B
:10222000E9FF4BC2EAFFECCF53F2ED52EFCF52F28F
:1022300053BF64D04AC2E9FF4BC2EAFFECCF4FF272
:10224000ED52EFCF4EF2020E4A25E96E000E4B2101
:10225000EA6EECCF4DF2ED52EFCF4CF24CC2E9FFFB
:102260004DC2EAFFECCF53F2ED52EFCF52F253BF23
:1022700037D04E514A25546F4F514B21556F040EA4
:102280005425016E000E5521036E01504C5D28E16E
:1022900003504D5D25E14CC2E9FF4DC2EAFFECCF92
:1022A00051F2ED52EFCF50F2040E5025016E000EA8
:1022B0005121036E01504E2703504F234DC253F25C
:1022C0004CC252F200015DD74BC253F24AC252F2E5
:1022D0004FC255F24EC254F2FAEC0BF00DD002018F
:1022E000020E4A25E96E000E4B21EA6EECCF4BF24E
:1022F000ED52EFCF4AF200010DD00201020E4A2545
:10230000E96E000E4B21EA6EECCF4BF2ED52EFCFAF
:102310004AF200017ED702010001CAEF11F002016A
:10232000445304E1455302E136D032D0040E445DFB
:10233000466F000E4559476F46C2E9FF47C2EAFFA4
:10234000ECCF4BF2ED52EFCF4AF24BAF1ED046C26C
:10235000E9FF47C2EAFFECCF4BF2ED52EFCF4AF272
:10236000000E4A5D486F800E4B59496F47C253F2C9
:1023700046C252F249C255F248C254F20001FAEC88
:102380000BF00201456B446B03D0456B446B03D0EB
:1023900000013BD70201000164EF13F06951692B82
:1023A000036A290FE96E000E0320EA6EEFCF44F2B4
:1023B0000201456B4451455D1EE22F512F2B036AEC
:1023C0002E0F016E010E032203C047F20001695176
:1023D000692B036A290FE96E000E0320EA6EEFCF26
:1023E00048F2020147C2EAFF01C0E9FF48C2EFFF1D
:1023F000302B452BDFD7000154EF12F02DC144F2F2
:10240000020144513E0802E3445101D03F0E446FA3
:1024100044C26AF0010E456F4551445D22E3036AF0
:1024200045516A0F016E000E032203C047F20101FD
:102430002B512B2B036AAB0FE96E000E0320EA6EC3
:10244000EFCF48F2020147C2EAFF01C0E9FF48C2EC
:10245000EFFF01012B517F0801E22B6B0201452B9D
:10246000DBD7445101012D5F010E0201466F486B1D
:102470006A0E476F4A6B400E496F020E4B6F0001A8
:10248000A9EC09F07FEF13F08B80010E696F020158
:10249000446F466B290E456F486B400E476F000135
:1024A00085EF09F029C03EF2695102013E5DD8A0D6
:1024B00056D1036A00016951290FE96E000E03200D
:1024C000EA6EEFCF3FF202013F53D8B448D1010E7C
:1024D0003F5FD8903F37080E3F27F9503F25D8B0CF
:1024E000FA2AF96E0AD00ED016D044D078D07DD01A
:1024F000EFD0F5D0FAD001D105D100010AEF0AF0F2
:1025000002012DD1006A8BB0002A010E001A8B90B7
:1025100000B08B8024D1020E00016925036A290FC7
:10252000E96E000E0320EA6EEFCF44F2010E69253A
:10253000036A290FE96E000E0320EA6EEFCF45F221
:1025400044C246F245C247F24BEF0AF0030E69253A
:10255000036A290FE96E000E0320EA6EEFCF44F202
:1025600044C245F2ACEC0AF001C031F2040E692716
:102570009BD70201010E00016925036A290FE96E4C
:10258000000E0320EA6EEFCF37F2020E6925036AD0
:10259000290FE96E000E0320EA6EEFCF44F244C229
:1025A00045F2ACEC0AF0010E01240201386F020E74
:1025B000385D396F030E00016925036A290FE96E42
:1025C000000E0320EA6EEFCF44F244C245F2ACECB9
:1025D0000AF001C032F2040E692766D70201000139
:1025E00028EF0BF0692B60D70201010E000169256D
:1025F000036A290FE96E000E0320EA6EEFCF44F262
:102600000201466B44C245F2000106EF0CF002C025
:1026100041F201C040F2030E6925036A290FE96EF9
:10262000000E0320EA6E166AF2BE168EF29E0201BA
:102630006B6BEFCF6AF2010E6D6F6C6B000162EC99
:1026400001F016BEF28E020E6925036A290FE96EAB
:10265000000E0320EA6EEF5002010124426F000ECB
:102660000220436F010E00016925036A290FE96EFC
:10267000000E0320EA6EEFCF44F2F86A43C2F7FF80
:1026800042C2F6FF41C2EAFF40C2E9FF0201466BC7
:1026900044C245F20001ACEF0CF0010E6925036A5B
:1026A000290FE96E000E0320EA6EEFCF44F244C218
:1026B00047F241C249F240C248F27EEC0DF041C2FD
:1026C00045F240C244F22BD6040E6927EDD6020132
:1026D0002E6B2F6B306B0001692BE6D602010001D7
:1026E000692B5CD60001E0D6020101012B6B2C6B3B
:1026F0002D6B0001692BD8D6020100017FD6692B12
:10270000D3D60201010E00016925036A290FE96E83
:10271000000E0320EA6EEFCF44F2020E6925036A31
:10272000290F016E000E032201C045F203C046F2DC
:1027300044C247F203C049F201C048F200017EECF6
:102740000DF0010E6925036A290FE96E000E0320C2
:10275000EA6E020EEF246927A7D6A6D602018B9057
:102760000001E9EF13F0F86AD09E078EC150C00B4C
:102770000F09C16E070EB46E020E286E6F0E276E23
:10278000010E0201706F8D0E6F6F050E726F100ECD
:10279000716F020E0501116FEC0E106F136B126B4F
:1027A00000011B6A040E1C6E0C0E1D6E3DEF08F03E
:1027B000A3EF08F0B7EF08F0C9EF08F0015209E005
:1027C000010E02013E6F0001CDEF08F0015201E061
:0627D0005BD6F0D7030008
:10300000EF00EA0600EE00EE00EA0606E60305FF22
:10600000F5F1F3EF00E514F0F4E417F5F1E42FEE09
:0E601000B2EEC2EE12EE8AF0F4E509EA0500E7
:04603C00F5F1F2EF99
:0460400003E50AFF6B
:06604A00D9000204D90098
:106050000204D8D8D8D9000204D8D9F00F20D9909A
:106060000188D9060020D8D8D9070020D9B60BBAA4
:0C607000D8D8D9203C88D8D7D8E60D013C
:0260AE00F5F10A
:1060B000F3EF00E514F0F4E417F5F1E42FEEB2EE9F
:0A60C000C2EE12EE0AF0F4E4EBFF6A
:0C60E400DA2A0EDA1509DA0000DAF86E8C
:1060F000DAAA0EDA550ADAF76EDAAA0EDA540ADAF2
:106100000000DAF66EEA0409EE00ECDAFFFFE609B9
:0261100001FF8D
:02613E00F5F179
:10614000F3EF00E514F0F4E47FF1F5F4F0E513FF6C
:10616000F5F1F9F6F3EF00E514F0F4F7F8E47FF158
:06617000F5F4F0E513FF59
:06618A00EA0600EE00EE43
:0C61900000EA0606E60305EA0604ECEC53
:0261AE00F5F109
:1061B000F5F1F3EF00E514F0F0F4F4E42FEEB2EEB5
:0A61C000C2EE12EE0AF0F4E4EBFF69
:0C61E400F5F1F9F6F3EF00E53CF7F8F0F8
:0A61F000F4E47FF1F5F4F0E513FF8D
:020000040030CA
:0E0000002CCE380E000781000FC00FE00F401D
:00000001FF
;PIC18F2550
;CRC=1D84  CREATED="23-févr.-19 15:14"
