:1000000055EF07F068961200046ED8CF05F0E0CFE8
:1000100006F00001E9CF0CF0EACF07F0E1CF08F0DD
:10002000E2CF09F0D9CF0AF0DACF0BF0F3CF12F01C
:10003000F4CF13F0FACF14F000C00EF001C00FF0AF
:1000400002C010F003C011F0A0AA2AEF00F0A1BA7C
:10005000E4EF06F00EC000F00FC001F010C002F097
:1000600011C003F00CC0E9FF07C0EAFF078E08C00B
:10007000E1FF09C0E2FF0AC0D9FF0BC0DAFF12C0DE
:10008000F3FF13C0F4FF14C0FAFF045006C0E0FFF2
:1000900005C0D8FF1000F76AA60FF66E000EF72213
:1000A0000900F55012000003FFFFFFFFFFFFFFFFF5
:1000B000FFFFFFFFFFFFF76AC60FF66E000EF72285
:1000C0000900F55012004000400000000000000050
:1000D0000000000000000000000000000000000020
:1000E000000000000000F76AF60FF66E000EF7221F
:1000F0000900F55012000600FF0901A101190129AC
:10010000081580257F7508954081021901294091C5
:1001100002C0F76A220FF66E010EF7220900F550B1
:1001200012000000F76A340FF66E010EF722090084
:10013000F55012002000F76A460FF66E010EF72206
:100140000900F5501200090229000101028032095C
:100150000400000203000000092100010001222028
:10016000000705810340000107050103400001006D
:10017000F76A800FF66E010EF7220900F5501200A3
:100180000100F76A920FF66E010EF7220900F55092
:1001900012001200F76AA40FF66E010EF722090092
:1001A000F55012001201020000000040D804FF01C7
:1001B000020001020001F76AC60FF66E010EF72277
:1001C0000900F5501200040309040803430043002A
:1001D00053001A0343004300530020004800490025
:1001E00044002000440065006D006F006D9269942A
:1001F00068A402D06894FCD7F0EF06F0400E04012A
:10020000016F040E036F100E026F880E006F046BF7
:10021000040E076F500E066F0001120070A002D08E
:10022000EDDF7090689AF7EF06F06A6A6892FCEF6B
:1002300006F0389037BE3880379E3750100803E2FA
:10024000000E016E20D038A010D0036A3750F2CFD4
:1002500039F0F29E20DF39BEF28EFF0802E1000E77
:1002600001D0010E016E0FD00ED0036A3750F2CFCD
:1002700039F0F29E10DF39BEF28EFF0802E1000E67
:1002800001D0010E016E120037503902F3CF01F098
:10029000F4CF00F03A02F350002638503902F35000
:1002A0000020026E1200036A3650700FE96E0F0EC6
:1002B0000320EA6EEF6A36C037F0BBDF015222E05E
:1002C000386A36C037F03A6A080E396EDDDF01C091
:1002D000E9FF040E0224EA6EEF6A386A36C037F08E
:1002E0003A6A080E396ED0DF02C038F001C037F02C
:1002F000040E3726000E382237C0E9FF040E3824DA
:10030000EA6EEF6A1200010E356E35500F0805E3F4
:1003100035C036F0C8DF352AF8D71200256A246ABE
:100320002B6A2B520AE1036A2B50260FE96E000E4E
:100330000320EA6EEF6A2B2AF4D7186A010E196EB1
:10034000176A12006A6A686A9F0E6B6E3D0E696ECC
:100350006E6AD9DFE3DF160E706E68A602D052DE39
:10036000FCD76D984BDF030E1F6E01EF07F0698419
:1003700068986D8206EF07F0689C0BEF07F030C0BD
:1003800020F01200206812002E6A2450251046E04A
:100390002E503F0843E31A50FC0F2EE2040F19EFD2
:1003A00002F023C003F02250F2CF30F0F29EC3DE01
:1003B00030BEF28E2F6E20D023C003F02250F2CF39
:1003C00030F0F29E90DE30BEF28E2F6E15D023C03C
:1003D00003F02250F2CF30F0F29EEDDE30BEF28E0E
:1003E0002F6E0AD023C003F02250F2CF30F0F29EDD
:1003F000D1DE30BEF28E2F6E222AD8B4232A2450AA
:10040000D8B4250624062E502E2A500FE96E040E6D
:10041000EA6ED8B0EA2A2FC0EFFFB7D724502510D4
:1004200004E12E50400801E0176A2EC030F0A7DF2B
:100430001200E824F76AF7364D0FF66E040EF72225
:100440000A00F550FA6E0800F550F96EA203B803E1
:10045000CE03E403236A226A1A6A04011351010AD3
:10046000000109E0030A0DE0010A0FE0220A29E079
:10047000030A4DE078D0256A120E246E030E1A6E20
:1004800074D0256A290E246E70D0020E1A6E036A8B
:10049000040112511B0FE96E000E0320EA6E236A5D
:1004A000EFCF22F023C003F02250F2CF2EF0F29EC5
:1004B000000181DE2EBEF28E036A246E03C025F099
:1004C00054D0D89004011235036AF2CF2EF0F29E78
:1004D000000157DE0900F5CF03F02EBEF28E226E2A
:1004E00003C023F0223C02D023520FE023C003F0CC
:1004F0002250F2CF2EF0F29E1EDE2EBEF28E036A46
:10050000246E03C025F031D002D03CDF3DD0D8901E
:1005100004011435036AF2CF2EF0F29E0001F9DDDA
:100520000900F5CF03F02EBEF28E226E03C023F039
:10053000223C02D0235215E0010E1A6ED89004011D
:100540001435036AF2CF2EF0F29E0001EBDD0900B4
:10055000F5CF03F02EBEF28E246E03C025F005D039
:1005600002D010DF11D00EDF0FD00401175308E1C5
:10057000255203E12450165D03E2256A16C424F0D7
:10058000010E176E000100DF12002D5204E1040E6F
:100590001F6EB9DEE9D0050E1F6E040E306E900E90
:1005A0002F6E010E2E6E2E500F08D8A0DDD02EC05B
:1005B00036F079DE316A036A2E50F2CF35F0F29EC2
:1005C0006ADD35BEF28EFF0865E0040E316ED8900C
:1005D0002E34036AF2CF35F0F29E6DDD0900F5CFBF
:1005E00003F035BEF28E326E03C033F0386A2EC08F
:1005F00037F03A6A080E396E47DE01C035F0010E59
:100600000124016E000E0220036E01C0E9FF040EFA
:100610000324EA6E32C0EFFF386A2EC037F03A6A20
:10062000080E396E31DE01C035F0020E0124016E74
:10063000000E0220036E01C0E9FF040E0324EA6EDF
:1006400030C0ECFFED522FC0EFFFD8902E34036A7C
:10065000F2CF35F0F29E2FDD0900F5CF03F035BE65
:10066000F28E2F2603503022880E346E33A001D034
:10067000348033A201D03482386A2EC037F03A6A0F
:10068000080E396E01DE01C0E9FF040E0224EA6E95
:1006900034C0EFFF036A2E50F2CF35F0F29EFBDC40
:1006A00035BEF28EFF0845E03182386A2EC037F041
:1006B0003A6A080E396EE8DD02C036F001C035F046
:1006C000040E3526000E3622020E3524016E000E71
:1006D0003620036E01C0E9FF040E0324EA6E30C029
:1006E000ECFFED522FC0EFFFD8902E34036AF2CF0B
:1006F00035F0F29EE0DC0900F5CF03F035BEF28E56
:100700002F2603503022386A2EC037F03A6A080E7E
:10071000396EBADD02C036F001C035F0040E352660
:10072000000E362235C0E9FF040E3624EA6E400E74
:10073000EF6E3150060802E10E0E316E036A2E5044
:10074000F2CF35F0F29EA7DC35BEF28E010801E053
:100750003188036A2E50700FE96E0F0E0320EA6E87
:1007600031C0EFFF2E2A1FD703EF04F0040111510F
:10077000000A00010DE0010A14E0020A1FE0060A67
:1007800029E0030A2EE00E0A2EE0010A32E040D0F2
:1007900019C050F40401516B020E306E0001EFDD00
:1007A00038D00401122D07D0010E1916306A00014D
:1007B000E6DD03D004010001E5DD2BD00401122D9C
:1007C00006D01982306A0001DADD03D0040100018D
:1007D000D9DD1FD0020E176E12C421F0306ACFDDB2
:1007E00018D038DE16D018C050F4010E306EC7DDB8
:1007F00010D004011251010809E312C418F012C408
:100800002DF00001C2D6306ABADD0401000101D02A
:10081000B9DD34EF05F018C02DF004011151000AC4
:10082000000107E00A0A0DE0010A2DE00D0A3DE093
:100830003ED00401506B516B020E306E00019FDD03
:1008400037D02D521EE0010E2D5C036AF2CF2EF040
:10085000F29E8EDC2EBEF28E016E0401145DD8A0D5
:1008600002D000010ED0036A1451260FE96E000E6B
:100870000320EA6EEFCF50F4010E306E00017FDDF1
:1008800001D080DD15D02D520EE0036A0401145111
:10089000260FE96E000E0320EA6E12C4EFFF306AE5
:1008A00000016DDD01D06EDD03D0D4DD01D06ADD45
:1008B00034EF05F02E902DBE2E802D9E2EA017D049
:1008C000386A2DC037F03A6A080E396EDDDC02C096
:1008D00030F001C02FF0040E2F26000E30222FC062
:1008E000E9FF040E3024EA6E880EEF6E0DD0386AF0
:1008F0002DC037F03A6A080E396EC6DC01C0E9FF38
:10090000040E0224EA6EEF6AFAEF04F02E902DBE78
:100910002E802D9E2EA017D0386A2DC037F03A6A4F
:10092000080E396EB1DC02C030F001C02FF0040EA9
:100930002F26000E30222FC0E9FF040E3024EA6E6D
:10094000840EEF6E0ED0386A2DC037F03A6A080E6A
:10095000396E9ADC01C0E9FF040E0224EA6E840EAF
:10096000EF6E00EF05F02E902DBE2E802D9E2EA056
:1009700017D0386A2DC037F03A6A080E396E84DC19
:1009800002C031F001C030F0040E3026000E3122DA
:1009900030C0E9FF040E3124EA6EEFCF2FF00ED005
:1009A000386A2DC037F03A6A080E396E6DDC01C026
:1009B000E9FF040E0224EA6EEFCF2FF02FAE02D033
:1009C0002FB402D0000E01D0010E016E0AEF05F027
:1009D00014C437F02EDC015228E004011151010A41
:1009E000000105E0020A09E0030A0DE01DD014C46D
:1009F0002DF060D7306AC3DC18D014C42DF086D730
:100A0000306ABDDC12D00401506B516B14C42DF060
:100A10000001A9D7015204E0010E0401506F00014A
:100A2000020E306EACDC01D0ADDC34EF05F0040119
:100A300011510001A7DC34EF05F0176A04011051D1
:100A40007F0B000A000107E0010A07E0030A07E044
:100A5000230A07E008D08AD607D0DDD605D0B8D75C
:100A600003D0E5D701D08EDC94EF06F0386A2DC0B4
:100A700037F03A6A080E396E07DC01C0E9FF040E50
:100A80000224EA6EEFCF2FF02E50020806E12FACC1
:100A900002D02E6A02D0010E2E6E2E5003081AE1EB
:100AA000840E2F6E386A2DC037F03A6A080E396E00
:100AB00044EC01F002C033F001C032F0040E3226E3
:100AC000000E332232C0E9FF040E3324EA6E840E96
:100AD000EF6E07D02E2C03D0C80E2F6E02D0880EDA
:100AE0002F6ED8902D34036AF2CF32F0F29E5BEC79
:100AF00000F00900F5CF03F032BEF28E306E03C075
:100B000031F0386A2DC037F03A6A080E396E44EC7D
:100B100001F001C032F0010E0124016E000E02202E
:100B2000036E01C0E9FF040E0324EA6E30C0EFFF3C
:100B300031A001D02F8031A201D02F82386A2DC080
:100B400037F03A6A080E396E44EC01F001C0E9FF53
:100B5000040E0224EA6E2FC0EFFF1200036A325027
:100B6000700FE96E0F0E0320EA6EEF5219E0386A3B
:100B700032C037F03A6A080E396E44EC01F002C018
:100B800034F001C033F0040E3326000E342233C09B
:100B9000E9FF040E3424EA6EEFCF35F035AE02D013
:100BA000000E01D0010E016ED9EF05F02DC032F01C
:100BB000D5D70152D8B47DD0386A2DC037F03A6A03
:100BC000080E396E44EC01F002C033F001C032F07F
:100BD000040E3226000E3322010E3224016E000E66
:100BE0003320036E01C0E9FF040E0324EA6E2EC019
:100BF000EFFF305002081EE1386A2DC037F03A6A24
:100C0000080E396E44EC01F002C033F001C032F03E
:100C1000040E3226000E332232C0E9FF040E3324C4
:100C2000EA6EEFCF31F031AC02D0306A02D0010E63
:100C3000306E18D03050040815E1386A2DC037F0F6
:100C40003A6A080E396E44EC01F001C0E9FF040E67
:100C50000224EA6EEFCF31F031AC03D0010E306EDA
:100C600001D0306A302C03D0C80E316E02D0880E0D
:100C7000316E2FA001D031802FA201D03182386A8D
:100C80002DC037F03A6A080E396E44EC01F002C00C
:100C900033F001C032F0040E3226000E332232C08F
:100CA000E9FF040E3324EA6E31C0EFFF010E016E3E
:100CB00002D0000E016E12002D5200E112002EC073
:100CC0006EFF2E5203E0040E1F6E02D0020E1F6E46
:100CD0006FEF06F0186A176A21C02EF0F0D77CEF8C
:100CE00006F02D5209E1172C03D0C4EC01F004D01A
:100CF00017500208D8B4EED712001E302B6E2B32DC
:100D00002B321F0E2B161E5241E1040100513C0BE9
:100D10002C6E430E00172C5034081EE10451800B3A
:100D200001E0046B000189D66D98203C05D02D6A46
:100D3000030E2E6E9BDE0ED02D6A020E2E6E96DEF8
:100D40002050FE0807E02D6A2F6A20C02EF0040E06
:100D5000306E2CDF18D004012C50040815E12D6AE8
:100D60000001AADF2D6A020E2E6E80DE2050FE08E2
:100D70000AE0203C01D007D02D6A2F6A20C02EF057
:100D8000010E306E13DF04011CD000011E50040858
:100D90000EE120682D6AA5DF203C01D007D02D6A26
:100DA0002F6A20C02EF0020E306E00DF09D01EB474
:100DB00004D02BC02DF080DF03D02BC02DF091DFAD
:100DC0000401000115EF07F0A19A1F52D8B433D0E7
:100DD0006852D8B430D068A403D069B4F6EF00F0FC
:100DE0006DB229D068AA03D069BA0EEF01F068A2EB
:100DF00003D069B215EF01F068A003D069B0A2EF8B
:100E000001F068A803D069B8B7EF01F068AC03D06F
:100E100069BCBCEF01F02A6A68A608D069A606D0B2
:100E20006CCF1EF002EC00F068D701D004D02A503D
:100E30002A2A0308F1E22AEF00F06D6A696A080EB7
:100E40006F6E94503009946E1F6A166AF2BE168E49
:100E5000F29E8EEC01F016BEF28E30EF07F0EDD769
:100E600064EF07F0166AF2BE168EF29E8EEC01F069
:100E700016BEF28E6D6A140E6F6E696A6D86010E73
:100E80001F6E46EF07F06DB601D0ECD71F2C0BD0CC
:100E90006DBA09D0686A696AA08AC00EF212110E92
:100EA000696E020E1F6E65EF07F0F86AD09E078E1E
:100EB000C150C00B0F09C16E070EB46E1B6A040E41
:0E0EC0001C6E0C0E1D6ECBD7DED7FED70300C6
:020000040030CA
:0E0000002CCE380E000781000FC00FE00F401D
:00000001FF
;PIC18F2550
;CRC=7A92  CREATED="19-oct.-18 11:55"
