:10000000A1EF08F068961200046ED8CF05F0E0CF9B
:1000100006F00001E9CF0CF0EACF07F0E1CF08F0DD
:10002000E2CF09F0D9CF0AF0DACF0BF0F3CF12F01C
:10003000F4CF13F0FACF14F000C00EF001C00FF0AF
:1000400002C010F003C011F0A0AA2AEF00F0A1BA7C
:10005000EDEF06F00EC000F00FC001F010C002F08E
:1000600011C003F00CC0E9FF07C0EAFF078E08C00B
:10007000E1FF09C0E2FF0AC0D9FF0BC0DAFF12C0DE
:10008000F3FF13C0F4FF14C0FAFF045006C0E0FFF2
:1000900005C0D8FF1000F76AA60FF66E000EF72213
:1000A0000900F55012000003FFFFFFFFFFFFFFFFF5
:1000B000FFFFFFFFFFFF07AE03D0F2CF0DF0F29E70
:1000C000F76AD80FF66E000EF7220900F55007AE5A
:1000D00002D00DBEF28E1200400040000000000071
:1000E0000000000000000000000000000000000010
:1000F0000000000000000000F76A080FF66E010E15
:10010000F7220900F55012000600FF0901A10119AC
:100110000129081580257F7508954081021901295C
:1001200008750895409102C0F76A380FF66E010E07
:10013000F7220900F55012000000F76A4A0FF66E28
:10014000010EF7220900F55012002000F76A5C0F3B
:10015000F66E010EF7220900F5501200090229007F
:10016000010102803209040000020300000009219D
:10017000000100012220000705810340000107055E
:10018000010340000100F76A960FF66E010EF72298
:100190000900F55012000100F76AA80FF66E010E73
:1001A000F7220900F55012001200F76ABA0FF66E36
:1001B000010EF7220900F5501200120102000000A2
:1001C000004025000100020001020001F76ADC0F77
:1001D000F66E010EF7220900F5501200040309041F
:1001E0000803500047004D001C03420045004C002E
:1001F00041005200420049002700530020005000F7
:10020000490043006D92699468A402D06894FCD7B9
:10021000F9EF06F0400E0401016F040E036F100E9B
:10022000026F880E006F046B040E076F500E066F8E
:100230000001120070A002D0EDDF7090689A00EF0C
:1002400007F06A6A689205EF07F08A9189BF8A8190
:10025000899F8951100803E2000E016E20D08AA107
:1002600010D0036A8951F2CF8BF0F29E14DF8BBF5E
:10027000F28EFF0802E1000E01D0010E016E0FD0D8
:100280000ED0036A8951F2CF8BF0F29E04DF8BBF50
:10029000F28EFF0802E1000E01D0010E016E120085
:1002A00089518B03F3CF01F0F4CF00F08C03F350AE
:1002B00000268A518B03F3500020026E1200036A5D
:1002C0008851700FE96E0F0E0320EA6EEF6A88C046
:1002D00089F0BBDF015222E08A6B88C089F08C6B09
:1002E000080E8B6FDDDF01C0E9FF040E0224EA6E09
:1002F000EF6A8A6B88C089F08C6B080E8B6FD0DF39
:1003000002C08AF001C089F0040E8927000E8A23FA
:1003100089C0E9FF040E8A25EA6EEF6A1200010E19
:10032000876F87510F0805E387C088F0C8DF872BE8
:10033000F8D71200256A246A7D6B7D530AE1036AAF
:100340007D51260FE96E000E0320EA6EEF6A7D2BC9
:10035000F4D7186A010E196E176A12006A6A686A81
:100360009F0E6B6E3D0E696E6E6AD9DFE3DF160E6F
:10037000706E68A602D046DEFCD76D984BDF030E88
:100380001F6E0AEF07F0698468986D820FEF07F01F
:10039000689C14EF07F082C020F012002068120061
:1003A000806B2450251046E080513F0843E31A50EB
:1003B000FC0F2EE2040F25EF02F023C003F02250C1
:1003C000F2CF82F0F29EC2DE82BFF28E816F20D029
:1003D00023C003F02250F2CF82F0F29E8DDE82BF66
:1003E000F28E816F15D023C003F02250F2CF82F03D
:1003F000F29EECDE82BFF28E816F0AD023C003F042
:100400002250F2CF82F0F29ED0DE82BFF28E816F58
:10041000222AD8B4232A2450D8B425062406805191
:10042000802B500FE96E040EEA6ED8B0EA2A81C024
:10043000EFFFB7D72450251004E18051400801E0B8
:10044000176A80C082F0A7DF1200E824F76AF73647
:10045000650FF66E040EF7220A00F550FA6E0800DA
:10046000F550F96EBA03D003E603FC03236A226A4F
:100470001A6A04011351010A000109E0030A0DE0A0
:10048000010A0FE0220A29E0030A4DE078D0256A2C
:10049000120E246E030E1A6E74D0256A290E246E75
:1004A00070D0020E1A6E036A040112511B0FE96E1E
:1004B000000E0320EA6E236AEFCF22F023C003F080
:1004C0002250F2CF80F0F29E000180DE80BFF28EDB
:1004D000036A246E03C025F054D0D890040112356D
:1004E000036AF2CF80F0F29E000156DE0900F5CFDC
:1004F00003F080BFF28E226E03C023F0223C02D0B4
:1005000023520FE023C003F02250F2CF80F0F29E7E
:100510001DDE80BFF28E036A246E03C025F031D049
:1005200002D03CDF3DD0D89004011435036AF2CFED
:1005300080F0F29E0001F8DD0900F5CF03F080BFE6
:10054000F28E226E03C023F0223C02D0235215E02B
:10055000010E1A6ED89004011435036AF2CF80F0B0
:10056000F29E0001EADD0900F5CF03F080BFF28EB4
:10057000246E03C025F005D002D010DF11D00EDFAD
:100580000FD00401175308E1255203E12450165DF2
:1005900003E2256A16C424F0010E176E000100DF85
:1005A00012007F5304E1040E1F6EB9DEE9D0050E80
:1005B0001F6E040E826F900E816F010E806F80514E
:1005C0000F08D8A0DDD080C088F079DE836B036A85
:1005D0008051F2CF87F0F29E5EDD87BFF28EFF087A
:1005E00065E0040E836FD8908035036AF2CF87F000
:1005F000F29E61DD0900F5CF03F087BFF28E846FB4
:1006000003C085F08A6B80C089F08C6B080E8B6FFD
:1006100047DE01C087F0010E0124016E000E0220AA
:10062000036E01C0E9FF040E0324EA6E84C0EFFFED
:100630008A6B80C089F08C6B080E8B6F31DE01C035
:1006400087F0020E0124016E000E0220036E01C02D
:10065000E9FF040E0324EA6E82C0ECFFED5281C074
:10066000EFFFD8908035036AF2CF87F0F29E23DD4A
:100670000900F5CF03F087BFF28E81270350822354
:10068000880E866F85A101D0868185A301D08683DF
:100690008A6B80C089F08C6B080E8B6F01DE01C005
:1006A000E9FF040E0224EA6E86C0EFFF036A805160
:1006B000F2CF87F0F29EEFDC87BFF28EFF0845E0B5
:1006C00083838A6B80C089F08C6B080E8B6FE8DDAA
:1006D00002C088F001C087F0040E8727000E88232F
:1006E000020E8725016E000E8821036E01C0E9FF0E
:1006F000040E0324EA6E82C0ECFFED5281C0EFFFCE
:10070000D8908035036AF2CF87F0F29ED4DC0900DE
:10071000F5CF03F087BFF28E8127035082238A6BC7
:1007200080C089F08C6B080E8B6FBADD02C088F038
:1007300001C087F0040E8727000E882387C0E9FFD9
:10074000040E8825EA6E400EEF6E8351060802E122
:100750000E0E836F036A8051F2CF87F0F29E9BDC0E
:1007600087BFF28E010801E08389036A8051700F10
:10077000E96E0F0E0320EA6E83C0EFFF802B1FD7B8
:100780000FEF04F004011151000A00010DE0010A0D
:1007900014E0020A1FE0060A29E0030A2EE00E0A0E
:1007A0002EE0010A32E040D019C050F40401516B30
:1007B000020E0001826FEFDD38D00401122D07D048
:1007C000010E19160001826BE6DD03D00401000161
:1007D000E5DD2BD00401122D06D019820001826BB9
:1007E000DADD03D004010001D9DD1FD0020E176E3F
:1007F00012C421F0826BCFDD18D038DE16D018C0BD
:1008000050F4010E826FC7DD10D0040112510108AF
:1008100009E312C418F012C47FF00001C2D6826B43
:10082000BADD0401000101D0B9DD40EF05F018C0C8
:100830007FF004011151000A000107E00A0A0DE0EF
:10084000010A2DE00D0A3DE03ED00401506B516BD2
:10085000020E0001826F9FDD37D07F531EE0010E34
:100860007F5D036AF2CF80F0F29E8DDC80BFF28E56
:10087000016E0401145DD8A002D000010ED0036AFD
:100880001451260FE96E000E0320EA6EEFCF50F4EC
:10089000010E0001826F7FDD01D080DD15D07F5316
:1008A0000EE0036A04011451260FE96E000E0320C6
:1008B000EA6E12C4EFFF0001826B6DDD01D06EDDC8
:1008C00003D0D4DD01D06ADD40EF05F080917FBF19
:1008D00080817F9F80A117D08A6B7FC089F08C6B4D
:1008E000080E8B6FDDDC02C082F001C081F0040EC7
:1008F0008127000E822381C0E9FF040E8225EA6E63
:10090000880EEF6E0DD08A6B7FC089F08C6B080E5D
:100910008B6FC6DC01C0E9FF040E0224EA6EEF6AA9
:1009200006EF05F080917FBF80817F9F80A117D067
:100930008A6B7FC089F08C6B080E8B6FB1DC02C0B4
:1009400082F001C081F0040E8127000E822381C055
:10095000E9FF040E8225EA6E840EEF6E0ED08A6BDC
:100960007FC089F08C6B080E8B6F9ADC01C0E9FFA9
:10097000040E0224EA6E840EEF6E0CEF05F08091F7
:100980007FBF80817F9F80A117D08A6B7FC089F055
:100990008C6B080E8B6F84DC02C083F001C082F088
:1009A000040E8227000E832382C0E9FF040E8325F4
:1009B000EA6EEFCF81F00ED08A6B7FC089F08C6B2E
:1009C000080E8B6F6DDC01C0E9FF040E0224EA6E95
:1009D000EFCF81F081AF02D081B502D0000E01D0FF
:1009E000010E016E16EF05F014C489F02EDC0152E1
:1009F00028E004011151010A000105E0020A09E0A2
:100A0000030A0DE01DD014C47FF060D7826BC3DCF5
:100A100018D014C47FF086D7826BBDDC12D00401DD
:100A2000506B516B14C47FF00001A9D7015204E050
:100A3000010E0401506F0001020E826FACDC01D088
:100A4000ADDC40EF05F0040111510001A7DC40EFDF
:100A500005F0176A040110517F0B000A000107E03E
:100A6000010A07E0030A07E0230A07E008D08AD654
:100A700007D0DDD605D0B8D703D0E5D701D08EDCBE
:100A8000A3EF06F08A6B7FC089F08C6B080E8B6F2A
:100A900007DC01C0E9FF040E0224EA6EEFCF81F00B
:100AA0008051020806E181AD02D0806B02D0010EB8
:100AB000806F805103081AE1840E816F8A6B7FC0BA
:100AC00089F08C6B080E8B6F50EC01F002C085F042
:100AD00001C084F0040E8427000E852384C0E9FF42
:100AE000040E8525EA6E840EEF6E07D0802D03D0AC
:100AF000C80E816F02D0880E816FD8907F35036A4F
:100B0000F2CF84F0F29E5BEC00F00900F5CF03F029
:100B100084BFF28E826F03C083F08A6B7FC089F03E
:100B20008C6B080E8B6F50EC01F001C084F0010E4D
:100B30000124016E000E0220036E01C0E9FF040EC5
:100B40000324EA6E82C0EFFF83A101D0818183A3D9
:100B500001D081838A6B7FC089F08C6B080E8B6F0C
:100B600050EC01F001C0E9FF040E0224EA6E81C0DE
:100B7000EFFF1200036A8451700FE96E0F0E03201D
:100B8000EA6EEF5219E08A6B84C089F08C6B080E14
:100B90008B6F50EC01F002C086F001C085F0040EAE
:100BA0008527000E862385C0E9FF040E8625EA6EA0
:100BB000EFCF87F087AF02D0000E01D0010E016E9B
:100BC00012007FC084F0D6DF0152D8B47DD08A6B8A
:100BD0007FC089F08C6B080E8B6F50EC01F002C067
:100BE00085F001C084F0040E8427000E8523010ED9
:100BF0008425016E000E8521036E01C0E9FF040EFD
:100C00000324EA6E80C0EFFF825102081EE18A6B66
:100C10007FC089F08C6B080E8B6F50EC01F002C026
:100C200085F001C084F0040E8427000E852384C063
:100C3000E9FF040E8525EA6EEFCF83F083AD02D085
:100C4000826B02D0010E826F18D08251040815E128
:100C50008A6B7FC089F08C6B080E8B6F50EC01F0B3
:100C600001C0E9FF040E0224EA6EEFCF83F083ADEA
:100C700003D0010E826F01D0826B822D03D0C80E8B
:100C8000836F02D0880E836F81A101D0838181A3FD
:100C900001D083838A6B7FC089F08C6B080E8B6FC9
:100CA00050EC01F002C085F001C084F0040E8427EE
:100CB000000E852384C0E9FF040E8525EA6E83C0FB
:100CC000EFFF010E016E02D0000E016E12007F5385
:100CD00000E1120080C06EFF805303E0040E1F6E1F
:100CE00002D0020E1F6E7AEF06F0186A176A21C052
:100CF00080F0F0D787EF06F07F5309E1172C03D07F
:100D0000D0EC01F004D017500208D8B4EED712008E
:100D10001E307D6F7D337D331F0E7D171E5241E1E6
:100D2000040100513C0B00017E6F430E04010017CB
:100D300000017E5134081EE104010451800B01E0E2
:100D4000046B000186D66D98203C05D07F6B030EA6
:100D5000806F98DE0ED07F6B020E806F93DE205086
:100D6000FE0807E07F6B816B20C080F0040E826F6D
:100D700028DF16D07E51040813E17F6BA8DF7F6B5C
:100D8000020E806F7FDE2050FE080AE0203C01D07A
:100D900007D07F6B816B20C080F0010E826F11DF66
:100DA0001AD01E5004080EE120687F6BA5DF203C9E
:100DB00001D007D07F6B816B20C080F0020E826F64
:100DC00000DF09D01EB404D07DC07FF080DF03D0E7
:100DD0007DC07FF091DF1EEF07F0A19A1F52D8B4BB
:100DE00033D06852D8B430D068A403D069B402EFCD
:100DF00001F06DB229D068AA03D069BA1AEF01F0E8
:100E000068A203D069B221EF01F068A003D069B0F5
:100E1000AEEF01F068A803D069B8C3EF01F068AC89
:100E200003D069BCC8EF01F07C6B68A608D069A646
:100E300006D06CCF1EF002EC00F06AD701D004D0CF
:100E40007C517C2B0308F1E22AEF00F06D6A696A9D
:100E5000080E6F6E94503009946E1F6A166AF2BEC7
:100E6000168EF29E9AEC01F016BEF28E39EF07F064
:100E7000EDD7B0EF08F0166AF2BE168EF29E9AEC2D
:100E800001F016BEF28E6D6A140E6F6E696A6D8681
:100E9000010E1F6E4FEF07F06DB601D0ECD71F2C7F
:100EA0000BD06DBA09D0686A696AA08AC00EF212C6
:100EB000110E696E020E1F6EB1EF08F01850016E30
:100EC000B2EF08F0036A6851700FE96E0F0E03204D
:100ED000EA6EEF521BE0166AF2BE168EF29E8A6B25
:100EE00068C089F08C6B080E8B6F50EC01F016BE59
:100EF000F28E02C06AF001C069F001C0E9FF040E81
:100F00000224EA6EEFCF6BF06BAF02D0000E01D07F
:100F1000010E016EB7EF08F0166AF2BE168EF29E51
:100F20008A6B6DC089F08C6B080E8B6F50EC01F0F2
:100F300016BEF28E01C077F0020E0124016E000E83
:100F40000220036E01C0E9FF040E0324EA6EECCF19
:100F500073F0ED52EFCF72F0166AF2BE168EF29E6B
:100F60008A6B6DC089F08C6B080E8B6F50EC01F0B2
:100F700016BEF28E01C077F0010E0124016E000E44
:100F80000220036E01C0E9FF040E0324EA6E766BB3
:100F9000EFCF75F0166AF2BE168EF29E8A6B6DC0A8
:100FA00089F08C6B080E8B6F50EC01F016BEF28E40
:100FB00001C0E9FF040E0224EA6EEFCF74F074A1C1
:100FC00001D0768174A301D076837651715D08E3F8
:100FD00003E17051755D04E276C071F075C070F088
:100FE0006FC0EAFF6EC0E9FF73C0E2FF72C0E1FFAD
:100FF00071C002F070C001F0015202E0022A02D07A
:10100000025206E0E6CFEEFF012EFCD7022EFAD701
:1010100070C001F071C002F019EF08F068C06DF007
:101020006AC06FF069C06EF06CC071F06BC070F098
:1010300073D702C06CF001C06BF0166AF2BE168E58
:10104000F29E68C07FF0020E806F1CDD16BEF28E2D
:101050006BC001F06CC002F0C2EF08F0EA6A680EE3
:10106000E96EEF500EE00F0E016E006A002EFED703
:10107000012EFBD78F0E006E002EFED70000EF2E44
:10108000F2D7C5EF08F0166AF2BE168EF29E68C05F
:1010900084F070DD16BEF28E01524FE0166AF2BE89
:1010A000168EF29E8A6B68C089F08C6B080E8B6F6F
:1010B00050EC01F016BEF28E02C071F001C070F06B
:1010C000040E7027000E7123020E7025016E000EB3
:1010D0007121036E01C0E9FF040E0324EA6EECCF18
:1010E0006FF0ED52EFCF6EF06FC0EAFF6EC0E9FF18
:1010F0006AC0E2FF69C0E1FF6CC002F06BC001F0A2
:10110000015202E0022A02D0025206E0E6CFEEFFD0
:10111000012EFCD7022EFAD7166AF2BE168EF29E68
:1011200068C07FF06CC081F06BC080F06DC082F051
:1011300048DD16BEF28E015002D0000E016EE0EFC7
:1011400008F0F86AD09E078EC150C00B0F09C16E1F
:10115000070EB46E1B6A040E1C6E0C0E1D6E88D634
:101160009BD6ACD601522CE0010E686FABD6015273
:1011700027E0010E686F6A6B270E696F6C6B400E7B
:101180006B6F4CD7010E686F69D7676B67513F086B
:101190000CE3036A6751270FE96E000E0320EA6E25
:1011A000D890EF34EF6E672BF1D7010E686F6A6B42
:1011B000270E696F6C6B400E6B6F020E6D6F63D7FD
:0411C000CFD7030082
:020000040030CA
:0E0000002CCE380E000781000FC00FE00F401D
:00000001FF
;PIC18F2550
;CRC=92D6  CREATED="19-oct.-18 14:44"
