:10000000EEEF11F068961200046ED8CF05F0E0CF45
:1000100006F00001E9CF0CF0EACF07F0E1CF08F0DD
:10002000E2CF09F0D9CF0AF0DACF0BF0F3CF12F01C
:10003000F4CF13F0FACF14F000C00EF001C00FF0AF
:1000400002C010F003C011F0A0AA2AEF00F0A1BA7C
:10005000A0EF07F00EC000F00FC001F010C002F0DA
:1000600011C003F00CC0E9FF07C0EAFF078E08C00B
:10007000E1FF09C0E2FF0AC0D9FF0BC0DAFF12C0DE
:10008000F3FF13C0F4FF14C0FAFF045006C0E0FFF2
:1000900005C0D8FF1000F76AA60FF66E000EF72213
:1000A0000900F55012000003FFFFFFFFFFFFFFFFF5
:1000B000FFFFFFFFFFFF07AE03D0F2CF0DF0F29E70
:1000C000F76AD80FF66E000EF7220900F55007AE5A
:1000D00002D00DBEF28E1200400040000000000071
:1000E0000000000000000000000000000000000010
:1000F0000000000000000000F76A080FF66E010E15
:10010000F7220900F55012000600FF0901A10119AC
:100110000129081580257F7508954081021901295C
:1001200008750895409102C0F76A380FF66E010E07
:10013000F7220900F55012000000F76A4A0FF66E28
:10014000010EF7220900F55012002000F76A5C0F3B
:10015000F66E010EF7220900F5501200090229007F
:10016000010102803209040000020300000009219D
:10017000000100012220000705810340000107055E
:10018000010340000100F76A960FF66E010EF72298
:100190000900F55012000100F76AA80FF66E010E73
:1001A000F7220900F55012001200F76ABA0FF66E36
:1001B000010EF7220900F5501200120102000000A2
:1001C000004025000100020001020001F76ADC0F77
:1001D000F66E010EF7220900F5501200040309041F
:1001E0000803500047004D001C03420065006C00EE
:1001F0006100720062006900270073002000500057
:10020000490043006D92699468A402D06894FCD7B9
:10021000ACEF07F0400E0401016F040E036F100EE7
:10022000026F880E006F046B040E076F500E066F8E
:100230000001120070A002D0EDDF7090689AB3EF59
:1002400007F06A6A6892B8EF07F002012B912ABFA3
:100250002B812A9F2A51100803E2000E016E24D040
:100260002BA112D0036A2A51F2CF2CF2F29E000188
:1002700012DF02012CBFF28EFF0802E1000E01D056
:10028000010E016E11D010D0036A2A51F2CF2CF268
:10029000F29E000100DF02012CBFF28EFF0802E196
:1002A000000E01D0010E016E0001120002012A5160
:1002B0002C03F3CF01F0F4CF00F02D03F350002610
:1002C0002B512C03F3500020026E00011200036A30
:1002D00002012951700FE96E0F0E0320EA6EEF6ADA
:1002E00029C22AF20001B1DF015228E002012B6B82
:1002F00029C22AF22D6B080E2C6F0001D7DF0201F4
:1003000001C0E9FF040E0224EA6EEF6A2B6B29C2DA
:100310002AF22D6B080E2C6F0001C8DF02C02BF2F1
:1003200001C02AF2040E02012A27000E2B232AC242
:10033000E9FF040E2B25EA6EEF6A00011200010EA0
:100340000201286F28510F0807E328C229F2000193
:10035000BEDF0201282BF6D700011200256A246AAD
:1003600002011E6B1E530AE1036A1E51260FE96E3D
:10037000000E0320EA6EEF6A1E2BF4D7186A010EF6
:10038000196E176A000112006A6A686A9F0E6B6E26
:100390003D0E696E6E6AD3DFE1DF160E706E68A6E1
:1003A00002D030DEFCD76D9835DF030E1F6EBDEF37
:1003B00007F0698468986D82C2EF07F0689CC7EF08
:1003C00007F023C220F01200206812000201216B06
:1003D000245025104DE021513F084AE31A50FC0FEC
:1003E00035E2040F000144EF02F023C003F0225075
:1003F000F2CF23F2F29EAADE020123BFF28E226F19
:1004000025D023C003F02250F2CF23F2F29E74DEF7
:10041000020123BFF28E226F19D023C003F02250B5
:10042000F2CF23F2F29ED2DE020123BFF28E226FC0
:100430000DD023C003F02250F2CF23F2F29EB5DE9E
:10044000020123BFF28E226F01D00201222AD8B40A
:10045000232A2450D8B4250624062151212B500FDD
:10046000E96E040EEA6ED8B0EA2A22C2EFFFB0D7D6
:100470002450251004E12151400801E0176A21C2EF
:1004800023F200019EDF1200E824F76AF736A30F7B
:10049000F66E040EF7220A00F550FA6E0800F550C9
:1004A000F96EEA0302041A043204236A226A1A6A01
:1004B00004011351010A000109E0030A0DE0010AD9
:1004C0000FE0220A2BE0030A55E085D0256A120EC0
:1004D000246E030E1A6E81D0256A290E246E7DD0FB
:1004E000020E1A6E036A040112511B0FE96E000E10
:1004F0000320EA6E236AEFCF22F023C003F02250DC
:10050000F2CF21F2F29E000161DE020121BFF28EE4
:10051000036A246E03C025F000015FD0D890040167
:100520001235036AF2CF21F2F29E000135DE090096
:10053000F5CF03F0020121BFF28E226E03C023F03B
:10054000223C02D0235213E023C003F02250F2CF0A
:1005500021F2F29E0001FADD020121BFF28E036A50
:10056000246E03C025F0000138D004D00201000140
:100570002BDF42D0D89004011435036AF2CF21F268
:10058000F29E0001D1DD0900F5CF03F0020121BF89
:10059000F28E226E03C023F0223C02D0235218E0D8
:1005A000010E1A6ED89004011435036AF2CF21F2BD
:1005B000F29E0001C2DD0900F5CF03F0020121BF68
:1005C000F28E246E03C025F0000107D004D0020192
:1005D0000001FADE11D0F8DE0FD00401175308E154
:1005E000255203E12450165D03E2256A16C424F067
:1005F000010E176E0001EADE12000201205306E12F
:10060000040E1F6E00019BDE02D10201050E1F6E5B
:10061000040E236F900E226F010E216F21510F08DF
:10062000D8A0F5D021C229F2000151DE0201246BCD
:10063000036A2151F2CF28F2F29E00012CDD020163
:1006400028BFF28EFF086FE0040E246FD89021358A
:10065000036AF2CF28F2F29E00012DDD0900F5CFEA
:1006600003F0020128BFF28E256F03C026F22B6B28
:1006700021C22AF22D6B080E2C6F000117DE01C07B
:1006800028F2010E02010124016E000E0220036E09
:1006900001C0E9FF040E0324EA6E25C2EFFF2B6BB5
:1006A00021C22AF22D6B080E2C6F0001FFDD01C064
:1006B00028F2020E02010124016E000E0220036ED8
:1006C00001C0E9FF040E0324EA6E23C2ECFFED52E1
:1006D00022C2EFFFD8902135036AF2CF28F2F29EB2
:1006E0000001E9DC0900F5CF03F0020128BFF28E1A
:1006F000222703502323880E276F26A101D02781AC
:1007000026A301D027832B6B21C22AF22D6B080E62
:100710002C6F0001CBDD020101C0E9FF040E0224B1
:10072000EA6E27C2EFFF036A2151F2CF28F2F29E50
:100730000001B1DC020128BFF28EFF084BE02483E8
:100740002B6B21C22AF22D6B080E2C6F0001AEDD3F
:1007500002C029F201C028F2040E02012827000E6F
:100760002923020E2825016E000E2921036E01C0E7
:10077000E9FF040E0324EA6E23C2ECFFED5222C20D
:10078000EFFFD8902135036AF2CF28F2F29E0001E4
:1007900092DC0900F5CF03F0020128BFF28E222778
:1007A000035023232B6B21C22AF22D6B080E2C6FD2
:1007B00000017CDD02C029F201C028F2040E020112
:1007C0002827000E292328C2E9FF040E2925EA6EF6
:1007D000400EEF6E2451060802E10E0E246F036AEC
:1007E0002151F2CF28F2F29E000155DC020128BF10
:1007F000F28E010801E02489036A2151700FE96E2D
:100800000F0E0320EA6E24C2EFFF212B07D7000151
:100810005EEF04F004011151000A00010DE0010A2D
:1008200015E0020A21E0060A2CE0030A33E00E0A72
:1008300033E0010A39E049D019C050F40401516B8A
:10084000020E0201236F0001BCDD40D00401122D15
:1008500008D0010E19160201236B0001B2DD03D08E
:1008600004010001B1DD32D00401122D07D019823C
:100870000201236B0001A5DD03D004010001A4DD0A
:1008800025D0020E176E12C421F00201236B000165
:1008900098DD1CD00ADE1AD018C050F4010E0201F7
:1008A000236F00018EDD12D00401125101080BE309
:1008B00012C418F012C420F200019FD60201236B6B
:1008C00000017FDD0401000101D07EDDB5EF05F000
:1008D00018C020F204011151000A000107E00A0AC1
:1008E0000EE0010A34E00D0A48E049D00401506BE3
:1008F000516B020E0201236F000163DD41D0020142
:10090000205322E0010E205D036AF2CF21F2F29E15
:10091000000139DC020121BFF28E016E0401145D79
:10092000D8A002D0020110D0036A1451260FE96E3C
:10093000000E0320EA6EEFCF50F4010E0201236F88
:1009400000013FDD03D0020100013EDD19D00201AC
:10095000205310E0036A04011451260FE96E000EC3
:100960000320EA6E12C4EFFF0201236B000129DDB0
:1009700003D00201000128DD03D097DD01D024DD82
:10098000B5EF05F00201219120BF2181209F21A117
:1009900019D02B6B20C22AF22D6B080E2C6F000190
:1009A00085DC02C023F201C022F2040E02012227DC
:1009B000000E232322C2E9FF040E2325EA6E880ECF
:1009C000EF6E0FD02B6B20C22AF22D6B080E2C6F0E
:1009D00000016CDC020101C0E9FF040E0224EA6E92
:1009E000EF6A000175EF05F00201219120BF21811E
:1009F000209F21A119D02B6B20C22AF22D6B080E4B
:100A00002C6F000153DC02C023F201C022F2040E5D
:100A100002012227000E232322C2E9FF040E232510
:100A2000EA6E840EEF6E10D02B6B20C22AF22D6B73
:100A3000080E2C6F00013ADC020101C0E9FF040E30
:100A40000224EA6E840EEF6E00017DEF05F00201D4
:100A5000219120BF2181209F21A119D02B6B20C281
:100A60002AF22D6B080E2C6F000120DC02C024F24C
:100A700001C023F2040E02012327000E242323C207
:100A8000E9FF040E2425EA6EEFCF22F210D02B6B83
:100A900020C22AF22D6B080E2C6F000107DC020128
:100AA00001C0E9FF040E0224EA6EEFCF22F222AF6A
:100AB00002D022B502D0000E01D0010E016E00015D
:100AC00089EF05F014C42AF225EC01F001522EE062
:100AD00004011151010A000105E0020A0BE0030ABA
:100AE00011E023D014C420F24DD70201236B000182
:100AF00068DC1CD014C420F277D70201236B0001FC
:100B000060DC14D00401506B516B14C420F200015E
:100B10009ED7015204E0010E0401506F0001020E45
:100B20000201236F00014DDC01D04EDCB5EF05F072
:100B300004011151000148DCB5EF05F0176A04010A
:100B400010517F0B000A000107E0010A07E0030AC9
:100B500007E0230A07E008D05DD607D0B9D605D054
:100B6000B1D703D0E5D701D02FDC40EF07F0020169
:100B70002B6B20C22AF22D6B080E2C6F000156EC55
:100B800001F0020101C0E9FF040E0224EA6EEFCF7A
:100B900022F22151020806E122AD02D0216B02D0DF
:100BA000010E216F215103081CE1840E226F2B6B73
:100BB00020C22AF22D6B080E2C6F000156EC01F0BA
:100BC00002C026F201C025F2040E02012527000E04
:100BD000262325C2E9FF040E2625EA6E840EEF6E59
:100BE00007D0212D03D0C80E226F02D0880E226FAD
:100BF000D8902035036AF2CF25F2F29E00015BEC1B
:100C000000F00900F5CF03F0020125BFF28E236F3B
:100C100003C024F22B6B20C22AF22D6B080E2C6F1E
:100C2000000156EC01F001C025F2010E0201012481
:100C3000016E000E0220036E01C0E9FF040E0324C2
:100C4000EA6E23C2EFFF24A101D0228124A301D0A8
:100C500022832B6B20C22AF22D6B080E2C6F000111
:100C600056EC01F0020101C0E9FF040E0224EA6E15
:100C700022C2EFFF00011200036A02012551700F2A
:100C8000E96E0F0E0320EA6EEF521BE02B6B25C2BC
:100C90002AF22D6B080E2C6F000156EC01F002C0F9
:100CA00027F201C026F2040E02012627000E272398
:100CB00026C2E9FF040E2725EA6EEFCF28F228AFFF
:100CC00002D0000E01D0010E016E0001120020C200
:100CD00025F2D2DF0152D8B487D002012B6B20C29B
:100CE0002AF22D6B080E2C6F000156EC01F002C0A9
:100CF00026F201C025F2040E02012527000E26234C
:100D0000010E2525016E000E2621036E01C0E9FFAC
:100D1000040E0324EA6E21C2EFFF2351020820E1F2
:100D20002B6B20C22AF22D6B080E2C6F000156ECA3
:100D300001F002C026F201C025F2040E02012527AF
:100D4000000E262325C2E9FF040E2625EA6EEFCF0A
:100D500024F224AD02D0236B02D0010E236F1AD0EF
:100D60002351040817E12B6B20C22AF22D6B080EC9
:100D70002C6F000156EC01F0020101C0E9FF040EE6
:100D80000224EA6EEFCF24F224AD03D0010E236FCC
:100D900001D0236B232D03D0C80E246F02D0880E00
:100DA000246F22A101D0248122A301D024832B6BA4
:100DB00020C22AF22D6B080E2C6F000156EC01F0B8
:100DC00002C026F201C025F2040E02012527000E02
:100DD000262325C2E9FF040E2625EA6E24C2EFFF72
:100DE000010E016E04D00001000E016E020100012F
:100DF00012000201205300E10001120021C26EFF27
:100E00000201215303E0040E1F6E02D0020E1F6E7A
:100E1000000110EF07F0186A176A21C021F2EED71F
:100E200021EF07F0020120530DE1172C05D000013E
:100E3000E6EC01F006D002011750020803E10001C0
:100E4000EAD70201000112001E3002011E6F1E339C
:100E50001E331F0E1E171E524EE1040100513C0BA3
:100E600002011F6F430E0401001702011F513408D5
:100E700025E104010451800B01E0046B00015ED602
:100E80006D98203C07D00201206B030E216F0001FA
:100E90006EDE12D00201206B020E216F000167DEB0
:100EA0002050FE0809E00201206B226B20C021F2D5
:100EB000040E236F00010BDF1CD002011F51040838
:100EC00019E1206B000195DF0201206B020E216FFA
:100ED00000014DDE2050FE080CE0203C01D009D07E
:100EE0000201206B226B20C021F2010E236F000152
:100EF000EEDE020122D01E50040812E12068206BB1
:100F0000000190DF203C01D009D00201206B226B50
:100F100020C021F2020E236F0001D9DE0DD00201A4
:100F20001EB406D01EC220F2000163DF05D002010C
:100F30001EC220F2000176DF02010001D3EF07F0AC
:100F4000A19A1F52D8B439D06852D8B436D068A408
:100F500003D069B402EF01F06DB22FD068AA03D0BC
:100F600069BA1AEF01F068A203D069B221EF01F06B
:100F700068A003D069B0C4EF01F068A803D069B8D5
:100F8000D9EF01F068AC03D069BCDEEF01F00201DB
:100F90001D6B68A60AD069A608D06CCF1EF00001B0
:100FA00002EC00F051D703D0020106D0000102018B
:100FB0001D511D2B0308EDE200012AEF00F06D6AC0
:100FC000696A080E6F6E945030090101946E1F6AB1
:100FD000166AF2BE168EF29E0001AEEC01F016BE4D
:100FE000F28EF4EF07F0EBD713EF12F0130ED26E80
:100FF000A194A084928092820D0EC16E030EC06EE9
:101000009284809489949296809689969288899801
:10101000899A929A8A9693968A889398938A818AD3
:10102000F19E8A9493948B9094908B9294928B944B
:101030009494080ED56E040ECA6E4F0ECB6E0C0E35
:10104000BD6E1D0EBE6E070EB46EB56AF28CF28ECA
:10105000F28CF28E010E0101FA6FF96BFB6B800EC0
:10106000FC6F000115EF12F0166AF2BE168EF29EAA
:10107000AEEC01F016BEF28E6D6A140E6F6E696AE8
:101080006D86010E1F6E48EF08F06DB601D0ECD7EB
:101090001F2C0BD06DBA09D0686A696AA08AC00E8D
:1010A000F212110E696E020E1F6E17EF12F0185039
:1010B000016E19EF12F0036A0101FD51700FE96E24
:1010C0000F0E0320EA6EEF5220E0166AF2BE168E73
:1010D000F29E02012B6BFDC12AF22D6B080E2C6FC4
:1010E000000156EC01F016BEF28E02C0FFF101C005
:1010F000FEF1010101C0E9FF040E0224EA6EEFCF08
:1011000000F2020100AF03D00101000E02D0010E77
:101110000101016E000121EF12F0166AF2BE168E77
:10112000F29E02012B6B08C22AF22D6B080E2C6F67
:10113000000156EC01F016BEF28E01C012F2020E52
:1011400002010124016E000E0220036E01C0E9FFBE
:10115000040E0324EA6EECCF0EF2ED52EFCF0DF247
:10116000166AF2BE168EF29E2B6B08C22AF22D6B07
:10117000080E2C6F000156EC01F016BEF28E01C075
:1011800012F2010E02010124016E000E0220036E14
:1011900001C0E9FF040E0324EA6E116BEFCF10F2D9
:1011A000166AF2BE168EF29E2B6B08C22AF22D6BC7
:1011B000080E2C6F000156EC01F016BEF28E0201F3
:1011C00001C0E9FF040E0224EA6EEFCF0FF20FA177
:1011D00001D011810FA301D0118311510C5D08E3DF
:1011E00003E10B51105D04E211C20CF210C20BF2CC
:1011F0000AC2EAFF09C2E9FF0EC2E2FF0DC2E1FF27
:101200000CC202F00BC201F0015202E0022A02D02D
:10121000025206E0E6CFEEFF012EFCD7022EFAD7EF
:101220000BC201F00CC202F0000122EF09F003C270
:1012300008F205C20AF204C209F207C20CF206C2A1
:101240000BF26BD702C007F201C006F2166AF2BEBB
:10125000168EF29E03C220F2020E0201216F0001DF
:1012600086DC16BEF28E020106C201F007C202F051
:101270000001D3EF10F0020EEA6E030EE96EEF509C
:101280000EE00F0E016E006A002EFED7012EFBD776
:101290008F0E006E002EFED70000EF2EF2D7D9EF92
:1012A00010F016C218F215C217F2020117C2E9FFB8
:1012B00018C2EAFF14C2ECFFED5213C2EFFF020E98
:1012C0001725E96E000E1821EA6EEC6AED52EF6AFE
:1012D00017C201F018C202F0000117EF0AF0020E67
:1012E00002010F25E96E000E1021EA6EECCF14F218
:1012F000ED52EFCF13F213530CE114530AE1020E37
:101300001125E96E000E1221EA6EEC6AED52EF6AC9
:101310001BD0020E1125016E000E1221036E146FF8
:10132000020E0F25E96E000E1021EA6EECCF03F0DD
:10133000ED52EFCF15F214C2EAFF01C0E9FF03C07E
:10134000ECFFED5215C2EFFF020E0F25E96E000E05
:101350001021EA6E12C2ECFFED5211C2EFFF000144
:1013600024EF0AF0020115C2E9FF16C2EAFF18C213
:10137000ECFFED5217C2EFFF0001120028C00AF285
:1013800027C009F20201095303E10A53D8B489D0F6
:1013900009C2E9FF0AC2EAFFECCF10F2ED52EFCF2B
:1013A0000FF210BF72D009C2E9FF0AC2EAFFECCF08
:1013B00012F2ED52EFCF11F20851125D66E303E134
:1013C0000751115D62E309C2E9FF0AC2EAFFECCFEF
:1013D0000EF2ED52EFCF0DF2040E0725016E000E56
:1013E0000821036E03500E5D40E303E10D51015CE3
:1013F0003CE207510D5D0F6F08510E59106F040E3E
:101400000F5F000E105B040E0925116F000E0A21FC
:10141000126F075111270851122310C214F20FC284
:1014200013F212C216F211C215F200013AD702C02D
:101430000CF201C00BF20AC210F209C20FF20CC288
:1014400012F20BC211F24BD7020107C20FF2800E4B
:101450000825106F0AC216F209C215F2186F07C2EA
:1014600017F200017FDF0FD002010DC20FF2800ED4
:101470000E25106F0AC216F209C215F2186F0DC2BE
:1014800017F200016FDF02010CD0020E0925E96E90
:10149000000E0A21EA6EECCF0AF2ED52EFCF09F20C
:1014A00072D7095307E10A5305E1000E016E026E7F
:1014B00008D007D0040E0925016E000E0A21036E24
:1014C000026E00011200166AF2BE168EF29E09C26A
:1014D00025F23CEC06F016BEF28E015254E0166A7C
:1014E000F2BE168EF29E02012B6B09C22AF22D6B00
:1014F000080E2C6F000156EC01F016BEF28E02C0F1
:1015000012F201C011F2040E02011127000E122383
:10151000020E1125016E000E1221036E01C0E9FFBB
:10152000040E0324EA6EECCF10F2ED52EFCF0FF26F
:1015300010C2EAFF0FC2E9FF0BC2E2FF0AC2E1FFDD
:101540000DC202F00CC201F0015202E0022A02D0E8
:10155000025206E0E6CFEEFF012EFCD7022EFAD7AC
:10156000166AF2BE168EF29E09C220F20DC222F257
:101570000CC221F20EC223F2000167EC06F016BE87
:10158000F28E015002D0000E016E120028C018F237
:1015900027C017F2020E02011725E96E000E18216E
:1015A000EA6EECCF1AF2ED52EFCF19F21551195D38
:1015B00003E116511A5D0EE0020E1725E96E000ECA
:1015C0001821EA6EECCF18F2ED52EFCF17F20001BE
:1015D000E1D70201020E1725016E000E1821036EDD
:1015E0001A6F020E1525E96E000E1621EA6EECCF79
:1015F00003F0ED52EFCF1BF21AC2EAFF01C0E9FF80
:1016000003C0ECFFED521BC2EFFF166B156B000120
:1016100069EF0BF028C00EF227C00DF202010D5346
:1016200003E10E53D8B47CD00DC2E9FF0EC2EAFF2D
:10163000ECCF16F2ED52EFCF15F216BF63D00DC20C
:10164000E9FF0EC2EAFFECCF12F2ED52EFCF11F23A
:10165000020E0D25E96E000E0E21EA6EECCF10F29F
:10166000ED52EFCF0FF20FC2E9FF10C2EAFFECCF4D
:1016700016F2ED52EFCF15F216BF36D011510D25EF
:10168000176F12510E21186F040E1725016E000EF0
:101690001821036E01500F5D27E10350105D24E116
:1016A0000FC2E9FF10C2EAFFECCF14F2ED52EFCF08
:1016B00013F2040E1325016E000E1421036E015067
:1016C00011270350122310C216F20FC215F20001A7
:1016D0005DD70EC216F20DC215F212C218F211C277
:1016E00017F240DE0DD00201020E0D25E96E000E4C
:1016F0000E21EA6EECCF0EF2ED52EFCF0DF20001AB
:101700000DD00201020E0D25E96E000E0E21EA6ECB
:10171000ECCF0EF2ED52EFCF0DF200017FD70201B8
:101720000001CDEF0BF00201075304E1085302E181
:1017300035D031D0040E075D096F000E08590A6FCD
:1017400009C2E9FF0AC2EAFFECCF0EF2ED52EFCF79
:101750000DF20EAF1DD009C2E9FF0AC2EAFFECCFBD
:101760000EF2ED52EFCF0DF2000E0D5D0B6F800EFD
:101770000E590C6F0AC216F209C215F20CC218F209
:101780000BC217F20001EEDD0201086B076B03D0FC
:10179000086B076B03D000013DD702010001120066
:1017A0000201086B040E076F0001E8DD02C004F2BD
:1017B00001C003F2020104C203F00351032BD8B4A9
:1017C000042BE96E03C0EAFF040EEF6E04C203F0BF
:1017D0000351032BD8B4042BE96E03C0EAFFEF6A70
:1017E00004C203F00351032BD8B4042BE96E03C0E9
:1017F000EAFFEF6A03C2E9FF04C2EAFF010EEF6EDF
:10180000030E035D056F000E0459066F010E096F8C
:1018100006C20BF205C20AF20D6B400E0C6F020EEF
:101820000E6F000150DE04C208F203C207F27BDF34
:10183000ECEF11F002010B510D19800B0F6F0BAF84
:1018400005D00A1F0B1F0A2BD8B40B2B0DAF05D0E8
:101850000C1F0D1F0C2BD8B40D2B0A510C03F3CF0A
:1018600001F0F4CF00F00D03F35000260B510C03F0
:10187000F3500020026E0FAF05D0011E021E012A98
:10188000D8B4022A000186EF0CF0166AF2BE168E5A
:10189000F29E02012B6B05C22AF2010E2D6F2C6BFA
:1018A000000156EC01F016BEF28E01C00AF20201F0
:1018B00006510124016E000E022001C007F2086FDC
:1018C0000831036E0731026E0332023203320232F4
:1018D000033202320332023203320232030E0316A3
:1018E00002C007F203C008F2036A0101FB51E8BE1F
:1018F0000306020107270350082308C20BF207C2A0
:101900000AF20D6BFCC10CF2000194D702C008F280
:1019100001C007F2D89002010831036E0731076F4A
:1019200003C008F20851096F090EBE6E086B08313A
:10193000036E0731026E033202323F0E031602C0FD
:1019400009F2CF0EBD140909BD6E000127EF11F099
:10195000000ED8800101F9550201056F05510403FD
:10196000F3CF05F2056B05C201F000011200020180
:10197000075315E00101F26BF36B800ECD6EFA0E8A
:10198000CF6E380ECE6E9E909D80CD809E9C9D9C8D
:10199000260EC06E050EC26EC28207D002019D9057
:1019A000CD90C26A9E9C9D9C010100011200010E17
:1019B00002010725C26EC282C2500209FDE1000188
:1019C00012000201156B166B010E176FDA6AD96AE5
:1019D000020E1A6F0D0E196F020EEA6E110EE96EED
:1019E0001AC2E2FF19C2E1FF17C218F2D890E550FF
:1019F000EE02F3501523F4501623182FF7D715C213
:101A0000DEFF16C215F2166BD8B0162B192BD8B400
:101A10001A2B172B17510508DFE1000127EF0DF0F6
:101A200002010C6B0B6B08C20AF207C209F20CC26E
:101A300010F20BC20FF20AC20EF209C20DF2146BC1
:101A4000136BFAC112F2F9C111F20001BAD703C047
:101A50000CF202C00BF201C00AF200C009F20AC285
:101A600009F20BC20AF20CC20BF202010C6B0C530E
:101A700003E10B51000804E20C6B0B6B0A69096966
:101A800009C201F00AC202F0000112000201086B53
:101A9000050E076F000172DC02C006F201C005F2FC
:101AA000020106C203F00551052BD8B4062BE96EDE
:101AB00003C0EAFF050EEF6E076B000158DF040E4E
:101AC0000201076F000173DF166AF2BE168EF29EE6
:101AD00002012B6BC4CF2AF2010E2D6F2C6B00017B
:101AE00056EC01F016BEF28EC35002010124036FC2
:101AF000000E0220046F04C208F203C207F20001C4
:101B00008FDF02C004F201C003F2020106C203F03B
:101B10000551052BD8B4062BE96E03C0EAFF03C2BA
:101B2000EFFF06C203F00551052BD8B4062BE96E72
:101B300003C0EAFF0451EF6E076B000138DF166A3D
:101B4000F2BE168EF29E02012B6BC4CF2AF2010E5A
:101B50002D6F2C6B000156EC01F016BEF28EC350B7
:101B600002010124036F000E0220046F04C208F278
:101B700003C207F2000154DF02C004F201C003F205
:101B8000020106C203F00551052BD8B4062BE96EFD
:101B900003C0EAFF03C2EFFF06C203F005C2E9FF7C
:101BA00006C2EAFF0451EF6E040E055D076F000EDA
:101BB0000659086F010E096F08C20BF207C20AF23C
:101BC0000D6B400E0C6F020E0E6F00017CDC06C226
:101BD00008F205C207F2A7DD010E0201076F00013E
:101BE000C6DE73EF11F005C201F004C200F000661A
:101BF000012A0900F5CFEEFF002EFBD7012EF9D701
:101C0000F86ACDEF11F00201136B928480B4138156
:101C10008986000000000000899600001343122FFF
:101C2000F5D713C201F000011200EC517F0801E268
:101C30000FD0EB51EB2B036A6A0FE96E000E032005
:101C4000EA6E11C2EFFFEB517F0801E2EB6BEC2B68
:101C5000120012C214F213C215F2020114A18994E7
:101C600014B1899400008986000089961443132FCB
:101C7000F5D7000112000101EF5303E1000E016EE0
:101C80000FD0ED51ED2B036AED0FE96E000E03202E
:101C9000EA6EEFCF10F2EF07020110C201F001016E
:101CA000000112000201106B80A401D0108380A6F5
:101CB00001D0108110C201F000019DEF0FF0F294ED
:101CC000FF0ED76E0201121DD66ED62AD58EF2A453
:101CD000FED7D59E0001A9EF10F0F2940201121D6B
:101CE000D76ED72AD66AD58EF2A4FED7D59E00012C
:101CF000C0EF10F00201076B0B81F298070ED56E52
:101D00000453D8B440D20451075DD8B03CD2D89027
:101D100007350525016E000E062101C0E9FFEA6EB8
:101D2000EFCF08F2D50E085FD8900837080E0827C5
:101D3000F9500825D8B0FA2AF96E10D02BD036D039
:101D400058D071D0BDD0F2D0F6D0FFD036D15ED110
:101D50007ED180D18CD1BBD1E8D1FED1072BD890D8
:101D600007350525016E000E0621036E01C0E9FF4F
:101D7000EA6EECCF11F2ED52EFCF10F210C212F278
:101D8000000141DF01C010F201C011F24EDF02017B
:101D9000072BB9D7080E126F000135DF01C010F212
:101DA00001C011F242DF0201072BADD7010E126F05
:101DB000040E136F00014DDF0201126B080E136F4A
:101DC000000147DF080E0201126F00011CDF01C095
:101DD00010F201C011F229DF080E0201126F00019A
:101DE00012DF01C010F201C011F21FDF0201072B48
:101DF0008AD7126B080E136F00012BDF0201126BE2
:101E0000080E136F000125DF0201126B080E136F1D
:101E100000011FDF0201126B080E136F000119DFB2
:101E20000201072B70D7126B040E136F000111DF34
:101E30000201072BD89007350525016E000E0621FB
:101E4000036E01C0E9FFEA6EECCF11F2ED52EFCF65
:101E500010F210C212F2080E136F0001FADE020136
:101E6000072BD89007350525016E000E0621036E5D
:101E700001C0E9FFEA6EECCF11F2ED52EFCF10F2A4
:101E800010C212F2080E136F0001E3DE0201072BED
:101E9000D89007350525016E000E0621036E01C09E
:101EA000E9FFEA6EECCF11F2ED52EFCF10F210C263
:101EB00012F2080E136F0001CCDE0201072B23D7AC
:101EC000126B040E136F0001C4DE0201072BD890C1
:101ED00007350525016E000E0621036E01C0E9FFDE
:101EE000EA6EECCF11F2ED52EFCF10F210C212F207
:101EF000080E136F0001ADDE0201072BD8900735E5
:101F00000525016E000E0621036E01C0E9FFEA6E91
:101F1000ECCF11F2ED52EFCF10F210C212F2080E18
:101F2000136F000196DE0201072BEDD60001A3DE40
:101F30000201072BE8D60001B5D601C010F201C09E
:101F400011F273DE0201072BDED60BB10FD00C515C
:101F5000D8B40D070C070C5305E10D5303E10B81B9
:101F6000072BD1D6076B0BB1072BCDD6072BD890FB
:101F700007350525016E000E062101C0E9FFEA6E56
:101F8000ECCF03F0ED52EF50075D096F000173DEF7
:101F900002010D6B01C00CF200016DDE000E0201AA
:101FA0000C2701500D230C5304E10D5302E1072BC4
:101FB000AAD60B9109C207F2A6D6072BD8900735EF
:101FC0000525016E000E062101C0E9FFEA6EECCF87
:101FD00003F0ED52EFCF0EF20F0E03240F6F072B1D
:101FE000D89007350525016E000E062101C0E9FFD6
:101FF000EA6EECCF03F0ED52EFCF12F20FC2EAFF20
:102000000EC2E9FF12C2EFFF072B7DD6072BD89037
:1020100007350525016E000E062101C0E9FFEA6EB5
:10202000ECCF03F0ED52EFCF0EF20F0E03240F6F43
:102030000FC203F00EC2E9FF0FC2EAFFEFCF10F2AA
:1020400010C211F20001F1DD0201072B5CD604C2BF
:1020500007F259D6072BD89007350525016E000EDB
:10206000062101C0E9FFEA6EEFCF07F24CD6010E60
:102070000001EB5D036A6A0FE96E000E0320EA6E51
:10208000EFCF0AF20201072BD89007350525016E24
:10209000000E062101C0E9FFEA6EECCF03F0ED521D
:1020A000EFCF01F0035211E10A51015C0EE2072B60
:1020B000D89007350525016E000E062101C0E9FF05
:1020C000EA6EEF500725076F01D0072B1CD6010ED3
:1020D0000001EB5D036A6A0FE96E000E0320EA6EF1
:1020E000EFCF0AF20201072BD89007350525016EC4
:1020F000000E062101C0E9FFEA6EECCF03F0ED52BD
:10210000EF500A5D10E103520EE1072BD89007351E
:102110000525016E000E062101C0E9FFEA6EEF50B1
:102120000725076F01D0072BEED5072BD890073571
:102130000525016E000E0621036E01C0E9FFEA6E5F
:10214000ECCF11F2ED52EFCF10F210C212F20001FB
:10215000B6D50201072BD7D5072BD8900735052513
:10216000016E000E0621036E01C0E9FFEA6EECCF9E
:1021700011F2ED52EFCF10F210C212F20001ADD504
:102180000201072BC0D50001DEEF11F0010E696FCF
:102190000201036F056B290E046F076B400E066F7B
:1021A000000117EF09F0010E0201036F00013BEF80
:1021B00009F029C0FDF10101FD510001695DD8B0B0
:1021C0000BD1036A6951290FE96E000E0320EA6EF4
:1021D000EFCFFEF10101FE5303E10001FDD001014B
:1021E000010EFE5FD890FE37080EFE27F950FE253F
:1021F000D8B0FA2AF96E06D00BD00ED03CD070D0F1
:1022000075D0E6D00001D0EF0BF00001E5D0010160
:102210008B700001E1D00101020E00016925036A03
:10222000290FE96E000E0320EA6EEFCF03F2010ED4
:102230006925036A290FE96E000E0320EA6EEFCFCD
:1022400004F203C205F204C206F245EF0CF0030EDD
:102250006925036A290FE96E000E0320EA6EEFCFAD
:1022600003F203C204F2A8EC0CF001C0F0F1040E7A
:102270006927A1D70101010E00016925036A290F11
:10228000E96E000E0320EA6EEFCFF6F1020E69252B
:10229000036A290FE96E000E0320EA6EEFCF03F206
:1022A00003C204F2A8EC0CF0010E01240101F76F47
:1022B000020EF75DF86F030E00016925036A290F0E
:1022C000E96E000E0320EA6EEFCF03F203C204F2C0
:1022D000A8EC0CF001C0F1F1040E69276CD70101E4
:1022E000000146EF0DF0692B66D70101010E0001D8
:1022F0006925036A290FE96E000E0320EA6EEFCF0D
:1023000003F20201086B03C207F20001BEEC09F000
:1023100002C000F201C0FFF1030E6925036A290F14
:10232000E96E000E0320EA6E166AF2BE168EF29E69
:1023300002012B6BEFCF2AF2010E2D6F2C6B0001E7
:1023400056EC01F016BEF28E020E6925036A290FC3
:10235000E96E000E0320EA6EEF5002010124016FC6
:10236000000E0220026F010E00016925036A290F89
:10237000E96E000E0320EA6EEFCF03F2F86A02C2A4
:10238000F7FF01C2F6FF00C2EAFFFFC1E9FF020149
:10239000056B03C204F2000126D4010E6925036A0D
:1023A000290FE96E000E0320EA6EEFCF03F203C29D
:1023B00004F200C206F2FFC105F29CD400C208F28A
:1023C000FFC107F293EC0BF0040E6927F4D601016C
:1023D0000001692BF0D6EFD624EF12F0F86AD09EF8
:1023E000078EC150C00B0F09C16E070EB46E020EEE
:1023F000286E2F0E276E010E0201306FCD0E2F6F4B
:10240000050E326F100E316F020E0501116FEC0ECA
:10241000106F136B126B00011B6A040E1C6E0C0E06
:102420001D6EF3EF07F0F6EF07F045EF08F057EFFA
:1024300008F0015209E0010E0101FD6F00015BEFA0
:0C24400008F0015201E0A2D6F0D7030022
:020000040030CA
:0E0000002CCE380E000781000FC00FE00F401D
:00000001FF
;PIC18F2550
;CRC=16D0  CREATED="30-janv.-19 16:22"
