:10000000E2EF13F068961200046ED8CF05F0E0CF4F
:1000100006F00001E9CF0CF0EACF07F0E1CF08F0DD
:10002000E2CF09F0D9CF0AF0DACF0BF0F3CF12F01C
:10003000F4CF13F0FACF14F000C00EF001C00FF0AF
:1000400002C010F003C011F0A0AA2AEF00F0A1BA7C
:10005000A0EF07F00EC000F00FC001F010C002F0DA
:1000600011C003F00CC0E9FF07C0EAFF078E08C00B
:10007000E1FF09C0E2FF0AC0D9FF0BC0DAFF12C0DE
:10008000F3FF13C0F4FF14C0FAFF045006C0E0FFF2
:1000900005C0D8FF1000F76AA60FF66E000EF72213
:1000A0000900F55012000003FFFFFFFFFFFFFFFFF5
:1000B000FFFFFFFFFFFF07AE03D0F2CF0DF0F29E70
:1000C000F76AD80FF66E000EF7220900F55007AE5A
:1000D00002D00DBEF28E1200400040000000000071
:1000E0000000000000000000000000000000000010
:1000F0000000000000000000F76A080FF66E010E15
:10010000F7220900F55012000600FF0901A10119AC
:100110000129081580257F7508954081021901295C
:1001200008750895409102C0F76A380FF66E010E07
:10013000F7220900F55012000000F76A4A0FF66E28
:10014000010EF7220900F55012002000F76A5C0F3B
:10015000F66E010EF7220900F5501200090229007F
:10016000010102803209040000020300000009219D
:10017000000100012220000705810340000107055E
:10018000010340000100F76A960FF66E010EF72298
:100190000900F55012000100F76AA80FF66E010E73
:1001A000F7220900F55012001200F76ABA0FF66E36
:1001B000010EF7220900F5501200120102000000A2
:1001C000004025000100020001020001F76ADC0F77
:1001D000F66E010EF7220900F5501200040309041F
:1001E0000803500047004D001C03420065006C00EE
:1001F0006100720062006900270073002000500057
:10020000490043006D92699468A402D06894FCD7B9
:10021000ACEF07F0400E0401016F040E036F100EE7
:10022000026F880E006F046B040E076F500E066F8E
:100230000001120070A002D0EDDF7090689AB3EF59
:1002400007F06A6A6892B8EF07F002016C916BBF21
:100250006C816B9F6B51100803E2000E016E24D07D
:100260006CA112D0036A6B51F2CF6DF2F29E0001C5
:1002700012DF02016DBFF28EFF0802E1000E01D015
:10028000010E016E11D010D0036A6B51F2CF6DF2E6
:10029000F29E000100DF02016DBFF28EFF0802E155
:1002A000000E01D0010E016E0001120002016B511F
:1002B0006D03F3CF01F0F4CF00F06E03F35000268E
:1002C0006C516D03F3500020026E00011200036AAE
:1002D00002016A51700FE96E0F0E0320EA6EEF6A99
:1002E0006AC26BF20001B1DF015228E002016C6BBF
:1002F0006AC26BF26E6B080E6D6F0001D7DF0201F0
:1003000001C0E9FF040E0224EA6EEF6A6C6B6AC258
:100310006BF26E6B080E6D6F0001C8DF02C06CF2ED
:1003200001C06BF2040E02016B27000E6C236BC23E
:10033000E9FF040E6C25EA6EEF6A00011200010E5F
:100340000201696F69510F0807E369C26AF200018F
:10035000BEDF0201692BF6D700011200256A246A6C
:1003600002015F6B5F530AE1036A5F51260FE96E7A
:10037000000E0320EA6EEF6A5F2BF4D7186A010EB5
:10038000196E176A000112006A6A686A9F0E6B6E26
:100390003D0E696E6E6AD3DFE1DF160E706E68A6E1
:1003A00002D030DEFCD76D9835DF030E1F6EBDEF37
:1003B00007F0698468986D82C2EF07F0689CC7EF08
:1003C00007F064C220F01200206812000201626B84
:1003D000245025104DE062513F084AE31A50FC0FAB
:1003E00035E2040F000144EF02F023C003F0225075
:1003F000F2CF64F2F29EAADE020164BFF28E636F56
:1004000025D023C003F02250F2CF64F2F29E74DEB6
:10041000020164BFF28E636F19D023C003F0225033
:10042000F2CF64F2F29ED2DE020164BFF28E636FFD
:100430000DD023C003F02250F2CF64F2F29EB5DE5D
:10044000020164BFF28E636F01D00201222AD8B488
:10045000232A2450D8B4250624066251622B500F5B
:10046000E96E040EEA6ED8B0EA2A63C2EFFFB0D795
:100470002450251004E16251400801E0176A62C26D
:1004800064F200019EDF1200E824F76AF736A30F3A
:10049000F66E040EF7220A00F550FA6E0800F550C9
:1004A000F96EEA0302041A043204236A226A1A6A01
:1004B00004011351010A000109E0030A0DE0010AD9
:1004C0000FE0220A2BE0030A55E085D0256A120EC0
:1004D000246E030E1A6E81D0256A290E246E7DD0FB
:1004E000020E1A6E036A040112511B0FE96E000E10
:1004F0000320EA6E236AEFCF22F023C003F02250DC
:10050000F2CF62F2F29E000161DE020162BFF28E62
:10051000036A246E03C025F000015FD0D890040167
:100520001235036AF2CF62F2F29E000135DE090055
:10053000F5CF03F0020162BFF28E226E03C023F0FA
:10054000223C02D0235213E023C003F02250F2CF0A
:1005500062F2F29E0001FADD020162BFF28E036ACE
:10056000246E03C025F0000138D004D00201000140
:100570002BDF42D0D89004011435036AF2CF62F227
:10058000F29E0001D1DD0900F5CF03F0020162BF48
:10059000F28E226E03C023F0223C02D0235218E0D8
:1005A000010E1A6ED89004011435036AF2CF62F27C
:1005B000F29E0001C2DD0900F5CF03F0020162BF27
:1005C000F28E246E03C025F0000107D004D0020192
:1005D0000001FADE11D0F8DE0FD00401175308E154
:1005E000255203E12450165D03E2256A16C424F067
:1005F000010E176E0001EADE12000201615306E1EE
:10060000040E1F6E00019BDE02D10201050E1F6E5B
:10061000040E646F900E636F010E626F62510F08DB
:10062000D8A0F5D062C26AF2000151DE0201656B0A
:10063000036A6251F2CF69F2F29E00012CDD0201E1
:1006400069BFF28EFF086FE0040E656FD8906235C7
:10065000036AF2CF69F2F29E00012DDD0900F5CFA9
:1006600003F0020169BFF28E666F03C067F26C6B24
:1006700062C26BF26E6B080E6D6F000117DE01C077
:1006800069F2010E02010124016E000E0220036EC8
:1006900001C0E9FF040E0324EA6E66C2EFFF6C6B33
:1006A00062C26BF26E6B080E6D6F0001FFDD01C060
:1006B00069F2020E02010124016E000E0220036E97
:1006C00001C0E9FF040E0324EA6E64C2ECFFED52A0
:1006D00063C2EFFFD8906235036AF2CF69F2F29EEF
:1006E0000001E9DC0900F5CF03F0020169BFF28ED9
:1006F000632703506423880E686F67A101D0688167
:1007000067A301D068836C6B62C26BF26E6B080EDC
:100710006D6F0001CBDD020101C0E9FF040E022470
:10072000EA6E68C2EFFF036A6251F2CF69F2F29E8D
:100730000001B1DC020169BFF28EFF084BE0658366
:100740006C6B62C26BF26E6B080E6D6F0001AEDDFA
:1007500002C06AF201C069F2040E02016927000EAC
:100760006A23020E6925016E000E6A21036E01C024
:10077000E9FF040E0324EA6E64C2ECFFED5263C28B
:10078000EFFFD8906235036AF2CF69F2F29E000162
:1007900092DC0900F5CF03F0020169BFF28E6327F6
:1007A000035064236C6B62C26BF26E6B080E6D6F4C
:1007B00000017CDD02C06AF201C069F2040E020190
:1007C0006927000E6A2369C2E9FF040E6A25EA6EF2
:1007D000400EEF6E6551060802E10E0E656F036A6A
:1007E0006251F2CF69F2F29E000155DC020169BF4D
:1007F000F28E010801E06589036A6251700FE96EAB
:100800000F0E0320EA6E65C2EFFF622B07D70001CF
:100810005EEF04F004011151000A00010DE0010A2D
:1008200015E0020A21E0060A2CE0030A33E00E0A72
:1008300033E0010A39E049D019C050F40401516B8A
:10084000020E0201646F0001BCDD40D00401122DD4
:1008500008D0010E19160201646B0001B2DD03D04D
:1008600004010001B1DD32D00401122D07D019823C
:100870000201646B0001A5DD03D004010001A4DDC9
:1008800025D0020E176E12C421F00201646B000124
:1008900098DD1CD00ADE1AD018C050F4010E0201F7
:1008A000646F00018EDD12D00401125101080BE3C8
:1008B00012C418F012C461F200019FD60201646BE9
:1008C00000017FDD0401000101D07EDDB5EF05F000
:1008D00018C061F204011151000A000107E00A0A80
:1008E0000EE0010A34E00D0A48E049D00401506BE3
:1008F000516B020E0201646F000163DD41D0020101
:10090000615322E0010E615D036AF2CF62F2F29E52
:10091000000139DC020162BFF28E016E0401145D38
:10092000D8A002D0020110D0036A1451260FE96E3C
:10093000000E0320EA6EEFCF50F4010E0201646F47
:1009400000013FDD03D0020100013EDD19D00201AC
:10095000615310E0036A04011451260FE96E000E82
:100960000320EA6E12C4EFFF0201646B000129DD6F
:1009700003D00201000128DD03D097DD01D024DD82
:10098000B5EF05F00201629161BF6281619F62A1D2
:1009900019D06C6B61C26BF26E6B080E6D6F00014B
:1009A00085DC02C064F201C063F2040E0201632719
:1009B000000E642363C2E9FF040E6425EA6E880E0C
:1009C000EF6E0FD06C6B61C26BF26E6B080E6D6FC9
:1009D00000016CDC020101C0E9FF040E0224EA6E92
:1009E000EF6A000175EF05F00201629161BF62815B
:1009F000619F62A119D06C6B61C26BF26E6B080EC5
:100A00006D6F000153DC02C064F201C063F2040E9A
:100A100002016327000E642363C2E9FF040E64250C
:100A2000EA6E840EEF6E10D06C6B61C26BF26E6B6F
:100A3000080E6D6F00013ADC020101C0E9FF040EEF
:100A40000224EA6E840EEF6E00017DEF05F00201D4
:100A5000629161BF6281619F62A119D06C6B61C2BA
:100A60006BF26E6B080E6D6F000120DC02C065F248
:100A700001C064F2040E02016427000E652364C203
:100A8000E9FF040E6525EA6EEFCF63F210D06C6BC0
:100A900061C26BF26E6B080E6D6F000107DC020124
:100AA00001C0E9FF040E0224EA6EEFCF63F263AFE8
:100AB00002D063B502D0000E01D0010E016E00011C
:100AC00089EF05F014C46BF225EC01F001522EE021
:100AD00004011151010A000105E0020A0BE0030ABA
:100AE00011E023D014C461F24DD70201646B000100
:100AF00068DC1CD014C461F277D70201646B00017A
:100B000060DC14D00401506B516B14C461F200011D
:100B10009ED7015204E0010E0401506F0001020E45
:100B20000201646F00014DDC01D04EDCB5EF05F031
:100B300004011151000148DCB5EF05F0176A04010A
:100B400010517F0B000A000107E0010A07E0030AC9
:100B500007E0230A07E008D05DD607D0B9D605D054
:100B6000B1D703D0E5D701D02FDC40EF07F0020169
:100B70006C6B61C26BF26E6B080E6D6F000156EC10
:100B800001F0020101C0E9FF040E0224EA6EEFCF7A
:100B900063F26251020806E163AD02D0626B02D0DB
:100BA000010E626F625103081CE1840E636F6C6B6F
:100BB00061C26BF26E6B080E6D6F000156EC01F0B6
:100BC00002C067F201C066F2040E02016627000E41
:100BD000672366C2E9FF040E6725EA6E840EEF6E96
:100BE00007D0622D03D0C80E636F02D0880E636FEA
:100BF000D8906135036AF2CF66F2F29E00015BEC99
:100C000000F00900F5CF03F0020166BFF28E646FB9
:100C100003C065F26C6B61C26BF26E6B080E6D6F98
:100C2000000156EC01F001C066F2010E0201012440
:100C3000016E000E0220036E01C0E9FF040E0324C2
:100C4000EA6E64C2EFFF65A101D0638165A301D0A4
:100C500063836C6B61C26BF26E6B080E6D6F00018B
:100C600056EC01F0020101C0E9FF040E0224EA6E15
:100C700063C2EFFF00011200036A02016651700FA8
:100C8000E96E0F0E0320EA6EEF521BE06C6B66C23A
:100C90006BF26E6B080E6D6F000156EC01F002C036
:100CA00068F201C067F2040E02016727000E682394
:100CB00067C2E9FF040E6825EA6EEFCF69F269AFFB
:100CC00002D0000E01D0010E016E0001120061C2BF
:100CD00066F2D2DF0152D8B487D002016C6B61C2D8
:100CE0006BF26E6B080E6D6F000156EC01F002C0E6
:100CF00067F201C066F2040E02016627000E672348
:100D0000010E6625016E000E6721036E01C0E9FF2A
:100D1000040E0324EA6E62C2EFFF6451020820E170
:100D20006C6B61C26BF26E6B080E6D6F000156EC5E
:100D300001F002C067F201C066F2040E02016627EC
:100D4000000E672366C2E9FF040E6725EA6EEFCF47
:100D500065F265AD02D0646B02D0010E646F1AD0EB
:100D60006451040817E16C6B61C26BF26E6B080E84
:100D70006D6F000156EC01F0020101C0E9FF040EA5
:100D80000224EA6EEFCF65F265AD03D0010E646F09
:100D900001D0646B642D03D0C80E656F02D0880E3D
:100DA000656F63A101D0658163A301D065836C6B1E
:100DB00061C26BF26E6B080E6D6F000156EC01F0B4
:100DC00002C067F201C066F2040E02016627000E3F
:100DD000672366C2E9FF040E6725EA6E65C2EFFF6E
:100DE000010E016E04D00001000E016E020100012F
:100DF00012000201615300E10001120062C26EFFA5
:100E00000201625303E0040E1F6E02D0020E1F6E39
:100E1000000110EF07F0186A176A21C062F2EED7DE
:100E200021EF07F0020161530DE1172C05D00001FD
:100E3000E6EC01F006D002011750020803E10001C0
:100E4000EAD70201000112001E3002015F6F5F331A
:100E50005F331F0E5F171E524EE1040100513C0B21
:100E60000201606F430E0401001702016051340853
:100E700025E104010451800B01E0046B00015ED602
:100E80006D98203C07D00201616B030E626F000178
:100E90006EDE12D00201616B020E626F000167DE2E
:100EA0002050FE0809E00201616B636B20C062F212
:100EB000040E646F00010BDF1CD0020160510408B6
:100EC00019E1616B000195DF0201616B020E626F37
:100ED00000014DDE2050FE080CE0203C01D009D07E
:100EE0000201616B636B20C062F2010E646F00014E
:100EF000EEDE020122D01E50040812E12068616B70
:100F0000000190DF203C01D009D00201616B636BCE
:100F100020C062F2020E646F0001D9DE0DD0020122
:100F20001EB406D05FC261F2000163DF05D002018A
:100F30005FC261F2000176DF02010001D3EF07F02A
:100F4000A19A1F52D8B439D06852D8B436D068A408
:100F500003D069B402EF01F06DB22FD068AA03D0BC
:100F600069BA1AEF01F068A203D069B221EF01F06B
:100F700068A003D069B0C4EF01F068A803D069B8D5
:100F8000D9EF01F068AC03D069BCDEEF01F00201DB
:100F90005E6B68A60AD069A608D06CCF1EF000016F
:100FA00002EC00F051D703D0020106D0000102018B
:100FB0005E515E2B0308EDE200012AEF00F06D6A3E
:100FC000696A080E6F6E945030090201946E1F6AB0
:100FD000166AF2BE168EF29E0001AEEC01F016BE4D
:100FE000F28EF4EF07F0EBD707EF14F0130ED26E8A
:100FF000A194A084928092820D0EC16E030EC06EE9
:101000009284809489949296809689969288899801
:10101000899A929A8A9693968A889398938A818AD3
:10102000F19E8A9493948B9094908B9294928B944B
:101030009494080ED56E040ECA6E4F0ECB6E0C0E35
:10104000BD6E1D0EBE6E070EB46EB56AF28CF28ECA
:10105000F28CF28E010E02013B6F3A6B3C6B800EFC
:101060003D6F000109EF14F0166AF2BE168EF29E73
:10107000AEEC01F016BEF28E6D6A140E6F6E696AE8
:101080006D86010E1F6E48EF08F06DB601D0ECD7EB
:101090001F2C0BD06DBA09D0686A696AA08AC00E8D
:1010A000F212110E696E020E1F6E0BEF14F0185043
:1010B000016E0DEF14F0036A02013E51700FE96EEC
:1010C0000F0E0320EA6EEF521DE0166AF2BE168E76
:1010D000F29E6C6B3EC26BF26E6B080E6D6F000180
:1010E00056EC01F016BEF28E02C040F201C03FF293
:1010F000020101C0E9FF040E0224EA6EEFCF41F2C3
:1011000041AF02D0000E01D0010E016E000115EFBB
:1011100014F0166AF2BE168EF29E02016C6B49C282
:101120006BF26E6B080E6D6F000156EC01F016BE8F
:10113000F28E01C053F2020E02010124016E000E74
:101140000220036E01C0E9FF040E0324EA6EECCF17
:101150004FF2ED52EFCF4EF2166AF2BE168EF29EAD
:101160006C6B49C26BF26E6B080E6D6F000156EC32
:1011700001F016BEF28E01C053F2010E02010124ED
:10118000016E000E0220036E01C0E9FF040E03246D
:10119000EA6E526BEFCF51F2166AF2BE168EF29ED5
:1011A0006C6B49C26BF26E6B080E6D6F000156ECF2
:1011B00001F016BEF28E020101C0E9FF040E022406
:1011C000EA6EEFCF50F250A101D0528150A301D06E
:1011D000528352514D5D08E303E14C51515D04E2ED
:1011E00052C24DF251C24CF24BC2EAFF4AC2E9FF71
:1011F0004FC2E2FF4EC2E1FF4DC202F04CC201F00D
:10120000015202E0022A02D0025206E0E6CFEEFFCF
:10121000012EFCD7022EFAD74CC201F04DC202F0CB
:1012200000011EEF09F044C249F246C24BF245C22A
:101230004AF248C24DF247C24CF26BD702C048F2A4
:1012400001C047F2166AF2BE168EF29E44C261F2E7
:10125000020E0201626F00018ADC16BEF28E0201EC
:1012600047C201F048C202F00001A9EF12F0020EDD
:10127000EA6E440EE96EEF500EE00F0E016E006A4A
:10128000002EFED7012EFBD78F0E006E002EFED74C
:101290000000EF2EF2D7AFEF12F0166AF2BE168EF4
:1012A000F29E4AC266F2E8DC16BEF28E015253E0AC
:1012B000166AF2BE168EF29E02016C6B4AC26BF287
:1012C0006E6B080E6D6F000156EC01F016BEF28ECB
:1012D00002C053F201C052F2040E02015227000E66
:1012E0005323020E5225016E000E5321036E01C0DE
:1012F000E9FF040E0324EA6EECCF51F2ED52EFCF7A
:1013000050F251C2EAFF50C2E9FF4CC2E2FF4BC2A9
:10131000E1FF4EC202F04DC201F0015202E0022A8A
:1013200002D0025206E0E6CFEEFF012EFCD7022EDD
:10133000FAD7166AF2BE168EF29E4AC261F24EC209
:1013400063F24DC262F24FC264F20001C0DC16BE0D
:10135000F28E015002D0000E016E1200030E6A6F71
:101360006B6B020E6C6F6D6F010E02014A6F4C6B5E
:101370006A0E4B6F4E6B400E4D6F020E4F6F0001A9
:101380008CDFDCEF12F002014C514E19800B506FD4
:101390004CAF05D04B1F4C1F4B2BD8B44C2B4EAF32
:1013A00005D04D1F4E1F4D2BD8B44E2B4B514D0326
:1013B000F3CF01F0F4CF00F04E03F35000264C5170
:1013C0004D03F3500020026E50AF05D0011E021EE7
:1013D000012AD8B4022A00012DEF0AF0166AF2BEE3
:1013E000168EF29E02016C6B46C26BF2010E6E6F9E
:1013F0006D6B000156EC01F016BEF28E01C04BF28F
:10140000020147510124016E000E022001C048F282
:10141000496F4931036E4831026E033202320332A2
:101420000232033202320332023203320232030E3C
:10143000031602C048F203C049F2036A3C51E8BEF9
:10144000030648270350492349C24CF248C24BF2D5
:101450004E6B3DC24DF2000196D702C049F201C069
:1014600048F2D89002014931036E4831486F03C0F9
:1014700049F249514A6F4A0EBE6E496B4931036EBB
:101480004831026E033202323F0E031602C04AF2A6
:10149000BD50CF0B4A11BD6E0001FBEF12F0000EE4
:1014A000D88002013A55466F46514503F3CF46F2C4
:1014B000466B46C201F00001120057C259F256C2F3
:1014C00058F2020158C2E9FF59C2EAFF55C2ECFFC7
:1014D000ED5254C2EFFF020E5825E96E000E59215D
:1014E000EA6EEC6AED52EF6A58C201F059C202F09E
:1014F000000123EF0BF0020E02015025E96E000EF1
:101500005121EA6EECCF55F2ED52EFCF54F2545325
:101510000CE155530AE1020E5225E96E000E5321EB
:10152000EA6EEC6AED52EF6A1BD0020E5225016E94
:10153000000E5321036E556F020E5025E96E000E0A
:101540005121EA6EECCF03F0ED52EFCF56F255C2C7
:10155000EAFF01C0E9FF03C0ECFFED5256C2EFFF06
:10156000020E5025E96E000E5121EA6E53C2ECFFC7
:10157000ED5252C2EFFF000130EF0BF0020156C2F4
:10158000E9FF57C2EAFF59C2ECFFED5258C2EFFF24
:101590000001120028C04BF227C04AF202014A5350
:1015A00003E14B53D8B489D04AC2E9FF4BC2EAFFEA
:1015B000ECCF51F2ED52EFCF50F251BF72D04AC290
:1015C000E9FF4BC2EAFFECCF53F2ED52EFCF52F2FC
:1015D0004951535D66E303E14851525D62E34AC2FB
:1015E000E9FF4BC2EAFFECCF4FF2ED52EFCF4EF2E4
:1015F000040E4825016E000E4921036E03504F5D15
:1016000040E303E14E51015C3CE248514E5D506FB6
:1016100049514F59516F040E505F000E515B040E3B
:101620004A25526F000E4B21536F485152274951A2
:10163000532351C255F250C254F253C257F252C210
:1016400056F200013AD702C04DF201C04CF24BC233
:1016500051F24AC250F24DC253F24CC252F24BD731
:10166000020148C250F2800E4925516F4BC257F219
:101670004AC256F2596F48C258F200017FDF0FD0BC
:1016800002014EC250F2800E4F25516F4BC257F2ED
:101690004AC256F2596F4EC258F200016FDF020182
:1016A0000CD0020E4A25E96E000E4B21EA6EECCFFB
:1016B0004BF2ED52EFCF4AF272D74A5307E14B5348
:1016C00005E1000E016E026E08D007D0040E4A2517
:1016D000016E000E4B21036E026E0001120002012A
:1016E000485313E0336B346B800ECD6EFA0ECF6E21
:1016F000380ECE6E9E909D80CD809E9C9D9C260E29
:10170000C06E050EC26EC28205D09D90CD90C26A99
:101710009E9C9D9C00011200010E02014825C26E94
:10172000C282C2500209FDE1000112000201566BA3
:10173000576B010E586FDA6AD96A020E5B6F4E0E54
:101740005A6F020EEA6E520EE96E5BC2E2FF5AC297
:10175000E1FF58C259F2D890E550EE02F3505623FB
:10176000F4505723592FF7D756C2DEFF57C256F20F
:10177000576BD8B0572B5A2BD8B45B2B582B5851DA
:101780000508DFE10001DCEF0BF002014D6B4C6B53
:1017900049C24BF248C24AF24DC251F24CC250F219
:1017A0004BC24FF24AC24EF2556B546B3BC253F2DE
:1017B0003AC252F20001BAD703C04DF202C04CF255
:1017C00001C04BF200C04AF24BC24AF24CC24BF28B
:1017D0004DC24CF202014D6B4D5303E14C510008D8
:1017E00004E24D6B4C6B4B694A694AC201F04BC233
:1017F00002F00001120028C059F227C058F2020E70
:1018000002015825E96E000E5921EA6EECCF5BF219
:10181000ED52EFCF5AF256515A5D03E157515B5DDD
:101820000EE0020E5825E96E000E5921EA6EECCF4B
:1018300059F2ED52EFCF58F20001E1D70201020E4A
:101840005825016E000E5921036E5B6F020E56255E
:10185000E96E000E5721EA6EECCF03F0ED52EFCFA8
:101860005CF25BC2EAFF01C0E9FF03C0ECFFED528E
:101870005CC2EFFF576B566B00019EEF0CF028C067
:101880004FF227C04EF202014E5303E14F53D8B43A
:101890007CD04EC2E9FF4FC2EAFFECCF57F2ED52C7
:1018A000EFCF56F257BF63D04EC2E9FF4FC2EAFFF7
:1018B000ECCF53F2ED52EFCF52F2020E4E25E96E0D
:1018C000000E4F21EA6EECCF51F2ED52EFCF50F205
:1018D00050C2E9FF51C2EAFFECCF57F2ED52EFCF11
:1018E00056F257BF36D052514E25586F53514F21A3
:1018F000596F040E5825016E000E5921036E0150D8
:10190000505D27E10350515D24E150C2E9FF51C20F
:10191000EAFFECCF55F2ED52EFCF54F2040E54250E
:10192000016E000E5521036E0150522703505323C0
:1019300051C257F250C256F200015DD74FC257F262
:101940004EC256F253C259F252C258F217DE0DD0AF
:101950000201020E4E25E96E000E4F21EA6EECCF19
:101960004FF2ED52EFCF4EF200010DD00201020E08
:101970004E25E96E000E4F21EA6EECCF4FF2ED528C
:10198000EFCF4EF200017FD70201000102EF0DF010
:101990000201485304E1495302E135D031D0040E2D
:1019A000485D4A6F000E49594B6F4AC2E9FF4BC26E
:1019B000EAFFECCF4FF2ED52EFCF4EF24FAF1DD01A
:1019C0004AC2E9FF4BC2EAFFECCF4FF2ED52EFCF34
:1019D0004EF2000E4E5D4C6F800E4F594D6F4BC254
:1019E00057F24AC256F24DC259F24CC258F20001A7
:1019F000C5DD0201496B486B03D0496B486B03D0CE
:101A000000013DD70201000112000201496B050EE1
:101A1000486F0001BFDD02C047F201C046F202017B
:101A200047C203F04651462BD8B4472BE96E03C09A
:101A3000EAFF050EEF6E486B000151DE040E020155
:101A4000486F000169DE166AF2BE168EF29E020130
:101A50006C6BC4CF6BF2010E6E6F6D6B000156ECB8
:101A600001F016BEF28EC35002010124446F000E35
:101A70000220456F45C249F244C248F2000185DEAA
:101A800002C045F201C044F2020147C203F04651D0
:101A9000462BD8B4472BE96E03C0EAFF44C2EFFFE0
:101AA00047C203F04651462BD8B4472BE96E03C01A
:101AB000EAFF4551EF6E486B00012EDE166AF2BE5A
:101AC000168EF29E02016C6BC4CF6BF2010E6E6F2C
:101AD0006D6B000156EC01F016BEF28EC350020190
:101AE0000124446F000E0220456F45C249F244C2F2
:101AF00048F200014ADE02C045F201C044F2020190
:101B000047C203F04651462BD8B4472BE96E03C0B9
:101B1000EAFF44C2EFFF47C203F046C2E9FF47C2F3
:101B2000EAFF4551EF6E040E465D486F000E4759BF
:101B3000496F010E4A6F49C24CF248C24BF24E6BDC
:101B4000400E4D6F020E4F6F00014DEC09F047C281
:101B500049F246C248F21CDF010E0201486F000143
:101B6000BEDD47EF13F046C201F045C200F000664B
:101B7000012A0900F5CFEEFF002EFBD7012EF9D781
:101B8000F86AA6EF13F00201586B928480B4588172
:101B90008986000000000000899600005843572FF6
:101BA000F5D758C201F00001120001012D517F0844
:101BB00001E20FD02C512C2B036AAB0FE96E000E03
:101BC0000320EA6E56C2EFFF2C517F0801E22C6B16
:101BD0002D2B00011200020157A1899457B189945D
:101BE00000008986000089965743582FF5D70001D9
:101BF00012000201305303E1000E016E0DD02E5190
:101C00002E2B036A2E0FE96E010E0320EA6EEFCF32
:101C100055F2300755C201F0000112000201556B68
:101C200080A401D0558380A601D0558155C201F012
:101C3000000139EF10F0F294FF0ED76E0201571D2C
:101C4000D66ED62AD58EF2A4FED7D59E000149EFD6
:101C500011F0F2940201571DD76ED72AD66AD58E9D
:101C6000F2A4FED7D59E000160EF11F00201586B7F
:101C70009284898600000000000080B45881899613
:101C800000005843572FF5D79294080ED880575527
:101C9000016E015204E0D8905833012EFCD758C28F
:101CA00001F0000112009294020159A1899459B1E6
:101CB0008984000089860000899659435A2FF5D7F8
:101CC00000011200020155A502D0010E01D0000E44
:101CD0008996E8B0898655A702D0010E01D0000E82
:101CE0008994E8B0898455A102D0010E01D0000E7C
:101CF0009296E8B0928655A302D0010E01D0000E54
:101D00009294E8B09284000174EF12F06951692B4B
:101D1000036A290FE96E000E0320EA6EEFCF44F24A
:101D20000201456B4451455D1DE22F512F2B036A83
:101D30002E0F466F010E0320476F00016951692B7A
:101D4000036A290FE96E000E0320EA6EEFCF48F216
:101D5000020147C2EAFF46C2E9FF48C2EFFF302B4B
:101D6000452BE0D70001B1EF12F02DC144F2020182
:101D700044513E0802E3445101D03F0E446F44C237
:101D80006AF0010E456F4551445D22E3036A4551F7
:101D90006A0F016E000E032203C047F201012B51AE
:101DA0002B2B036AAB0FE96E000E0320EA6EEFCF18
:101DB00048F2020147C2EAFF01C0E9FF48C2EFFF53
:101DC00001012B517F0801E22B6B0201452BDBD770
:101DD000445101012D5F010E02014425466F010EA1
:101DE0004A6F4C6B6A0E4B6F4E6B46C24DF2020E41
:0C1DF0004F6F00014DEC09F0DBEF13F029
:101E0000F8FF0201486B4C814C83F298070ED56EA7
:101E10004553D8B48ED34551485DD8B08AD3D890B5
:101E200048354625016E000E472101C0E9FFEA6EE4
:101E3000EFCF49F2D50E495FD8904937080E4927B0
:101E4000F9504925D8B0FA2AF96E24D03FD04AD0AB
:101E50006CD085D0D1D006D10AD113D14AD178D156
:101E600098D19AD1A6D1D4D100D216D22CD269D28F
:101E70007FD29AD2B7D2EAD2F0D2FCD20AD323D3FD
:101E800036D338D33AD33DD340D342D344D346D3C9
:101E900048D34BD3482BD89048354625016E000EC9
:101EA0004721036E01C0E9FFEA6EECCF56F2ED5216
:101EB000EFCF55F255C257F2000165DE01C055F271
:101EC00055C256F272DE0201482BA5D7080E576F95
:101ED000000159DE01C055F255C256F266DE02011C
:101EE000482B99D7010E576F040E586F000173DE0F
:101EF0000201576B080E586F00016DDE080E0201DB
:101F0000576F000140DE01C055F255C256F24DDE5A
:101F1000080E0201576F000136DE01C055F255C2AE
:101F200056F243DE0201482B76D7576B080E586FE6
:101F3000000151DE0201576B080E586F00014BDEA5
:101F40000201576B080E586F000145DE0201576B06
:101F5000080E586F00013FDE0201482B5CD7576B1B
:101F6000040E586F000137DE0201482BD890483527
:101F70004625016E000E4721036E01C0E9FFEA6E9F
:101F8000ECCF56F2ED52EFCF55F255C257F2080E94
:101F9000586F000120DE0201482BD89048354625B5
:101FA000016E000E4721036E01C0E9FFEA6EECCF1F
:101FB00056F2ED52EFCF55F255C257F2080E586F58
:101FC000000109DE0201482BD89048354625016EF4
:101FD000000E4721036E01C0E9FFEA6EECCF56F216
:101FE000ED52EFCF55F255C257F2080E586F00016F
:101FF000F2DD0201482B0FD7576B040E586F00011A
:10200000EADD0201482BD89048354625016E000EC6
:102010004721036E01C0E9FFEA6EECCF56F2ED52A4
:10202000EFCF55F255C257F2080E586F0001D3DDBD
:102030000201482BD89048354625016E000E4721F5
:10204000036E01C0E9FFEA6EECCF56F2ED52EFCF1E
:1020500055F255C257F2080E586F0001BCDD02015F
:10206000482BD9D60001C5DD0201482BD4D600018A
:10207000D5D501C055F255C256F297DD0201482B65
:10208000CAD64CB10FD04D51D8B44E074D074D5361
:1020900005E14E5303E14C81482BBDD6486B4CB152
:1020A000482BB9D6482BD89048354625016E000EEE
:1020B000472101C0E9FFEA6EECCF03F0ED52EF508B
:1020C000485D4A6F000195DD02014E6B01C04DF283
:1020D00000018FDD000E02014D2701504E234D53AC
:1020E00004E14E5302E1482B96D64C914AC248F285
:1020F00092D6482BD89048354625016E000E4721D0
:1021000001C0E9FFEA6EECCF03F0ED52EFCF53F2DE
:102110000F0E0324546F53C255F254C256F2482B8B
:10212000D89048354625016E000E472101C0E9FFD1
:10213000EA6EECCF03F0ED52EFCF57F203C058F246
:1021400056C2EAFF55C2E9FF57C2EFFF482B63D6DC
:10215000482BD89048354625016E000E472101C016
:10216000E9FFEA6EECCF03F0ED52EFCF53F20F0E22
:102170000324546F54C203F053C2E9FF54C2EAFF70
:10218000EFCF55F255C256F200010FDD0201482B88
:1021900042D645C248F23FD6482BD890483546250E
:1021A000016E000E472101C0E9FFEA6EEFCF48F251
:1021B00032D6010E01012C5D036AAB0FE96E000EF1
:1021C0000320EA6EEFCF4BF20201482BD89048353E
:1021D0004625016E000E472101C0E9FFEA6EECCFF3
:1021E00003F0ED52EFCF01F0035210E14B51015CCF
:1021F0000DE2482BD89048354625016E000E472148
:1022000001C0E9FFEA6EEF50482701D0482B03D602
:10221000010E01012C5D036AAB0FE96E000E032075
:10222000EA6EEFCF4BF20201482BD8904835462595
:10223000016E000E472101C0E9FFEA6EECCF03F00A
:10224000ED52EF504B5D0FE103520DE1482BD8905A
:1022500048354625016E000E472101C0E9FFEA6EB0
:10226000EF50482701D0482BD6D5482BD890483579
:102270004625016E000E4721036E01C0E9FFEA6E9C
:10228000ECCF56F2ED52EFCF55F255C257F20001A6
:10229000D2D40201482BBFD5482BD89048354625CB
:1022A000016E000E4721036E01C0E9FFEA6EECCF1C
:1022B00056F2ED52EFCF55F255C257F20001C9D494
:1022C0000201482BA8D54CB30CD04F51D8B45007BD
:1022D0004F074F5306E1505304E14C83030E482748
:1022E0009AD54C93D89048354625556F000E472116
:1022F000566F020E5525016E000E562101C0E9FFF2
:10230000EA6EECCF03F0ED52EF50485D516F000ED6
:102310000354526FD89048354625556F000E47211B
:10232000566F040E5525016E000E562101C0E9FFBF
:10233000EA6EECCF50F2ED52EFCF4FF251C248F2BD
:102340006AD5482BD89048354625016E000E4721A6
:10235000036E01C0E9FFEA6EECCF56F2ED52EFCF0B
:1023600055F255C257F2000181DC0201482B53D5CA
:10237000482BD89048354625016E000E4721036E44
:1023800001C0E9FFEA6EECCF56F2ED52EFCF55F205
:1023900055C257F200016ADC01C055F255C256F22F
:1023A00004DC0201482B37D5000123DC01C055F2C3
:1023B0000201482BD89048354625016E000E472172
:1023C000036E01C0E9FFEA6EECCF57F2ED52EFCF9A
:1023D00056F255C259F256C25AF2000164DC0201AB
:1023E000482B19D5D89048354625556F000E472102
:1023F000566F040E5525016E000E5621036E01C066
:10240000E9FFEA6EECCF56F2ED52EFCF55F2D890DD
:1024100048354625576F000E4721586F020E572545
:10242000016E000E5821036E01C0E9FFEA6EECCF89
:1024300058F2ED52EFCF57F255C259F257C25AF245
:10244000000131DC030E02014827E5D4080E576F66
:1024500000010CDC0201482BDED4080E576F00018E
:1024600005DC01C055F255C256F2D5EC0DF0020163
:10247000482BD1D40001F9EC0DF001C055F255C242
:1024800059F2080E02015A6F00010DDC0201482BBF
:10249000C2D4482BD89048354625016E000E4721FE
:1024A000036E01C0E9FFEA6EECCF56F2ED52EFCFBA
:1024B00055F255C259F2080E5A6F000153EC0EF056
:1024C0000201482BA8D4482BD89048354625016EE8
:1024D000000E472101C0E9FFEA6EEFCFAAF0AAC0C3
:1024E00055F2000162EF0EF00201482B94D4899A54
:1024F000482B91D4898A482B8ED4BA6A8B92482B68
:102500008AD40C0EBA6E482B86D48A84482B83D486
:102510008A94482B80D48A86482B7DD48A96482B6F
:102520007AD48A988B80482B76D48A88482B73D4A7
:1025300072D40001B8EF13F0010E696F0201446F0D
:10254000466B290E456F486B400E476F000113EF35
:1025500009F0010E0201446F000137EF09F029C0B4
:102560003EF2695102013E5DD8A029D1036A000103
:102570006951290FE96E000E0320EA6EEFCF3FF29A
:1025800002013F53D8B41BD1010E3F5FD8903F37B3
:10259000080E3F27F9503F25D8B0FA2AF96E09D026
:1025A0000DD00ED03CD070D075D0ECD0F2D0F8D099
:1025B000FFD00001AEEF09F0020101D18B70FFD016
:1025C000020E00016925036A290FE96E000E03203F
:1025D000EA6EEFCF44F2010E6925036A290FE96E16
:1025E000000E0320EA6EEFCF45F244C246F245C228
:1025F00047F2EEEF09F0030E6925036A290FE96E31
:10260000000E0320EA6EEFCF44F244C245F24FECD5
:102610000AF001C031F2040E6927A3D70201010EAE
:1026200000016925036A290FE96E000E0320EA6E96
:10263000EFCF37F2020E6925036A290FE96E000E0B
:102640000320EA6EEFCF44F244C245F24FEC0AF0A9
:10265000010E01240201386F020E385D396F030E3E
:1026600000016925036A290FE96E000E0320EA6E56
:10267000EFCF44F244C245F24FEC0AF001C032F20F
:10268000040E69276ED70201000105EF0DF0692BDA
:1026900068D70201010E00016925036A290FE96E5E
:1026A000000E0320EA6EEFCF44F20201496B44C2F0
:1026B00048F20001CAEC0AF002C041F201C040F247
:1026C000030E6925036A290FE96E000E0320EA6EE6
:1026D000166AF2BE168EF29E02016C6BEFCF6BF2A1
:1026E000010E6E6F6D6B000156EC01F016BEF28E9E
:1026F00002C045F201C044F2020E6925036A290FA7
:10270000E96E000E0320EA6EEF5002014425426F8D
:10271000000E4521436F010E00016925036A290F50
:10272000E96E000E0320EA6EEFCF44F2F86A43C26E
:10273000F7FF42C2F6FF41C2EAFF40C2E9FF0201D1
:10274000466B44C245F20001B3EF0DF0010E69255E
:10275000036A290FE96E000E0320EA6EEFCF44F200
:1027600044C245F241C247F240C246F201EF0FF0C7
:1027700041C249F240C248F2C8EC0CF0040E69278D
:10278000F0D602012E6B2F6B306B0001692BE9D65E
:1027900002010001692B86EF0EF00001E2D6020172
:1027A00001012B6B2C6B2D6B0001692BDAD602011A
:1027B0000001B5EF0EF0692BD4D6D3D6020100018B
:1027C00018EF14F0F86AD09E078EC150C00B0F09A5
:1027D000C16E070EB46E020E286E700E276E010ECB
:1027E0000201716F8C0E706F050E736F100E726F99
:1027F000020E0501116FEC0E106F136B126B0001CE
:102800001B6A040E1C6E0C0E1D6EF3EF07F0F6EF44
:1028100007F045EF08F057EF08F0015209E0010E0C
:1028200002013E6F00015BEF08F0015201E084D627
:04283000F0D70300DA
:020000040030CA
:0E0000002CCE380E000781000FC00FE00F401D
:00000001FF
;PIC18F2550
;CRC=AAF0  CREATED="02-févr.-19 16:16"
