:1000000080EF13F068961200046ED8CF05F0E0CFB1
:1000100006F00001E9CF0CF0EACF07F0E1CF08F0DD
:10002000E2CF09F0D9CF0AF0DACF0BF0F3CF12F01C
:10003000F4CF13F0FACF14F000C00EF001C00FF0AF
:1000400002C010F003C011F0A0AA2AEF00F0A1BA7C
:10005000A0EF07F00EC000F00FC001F010C002F0DA
:1000600011C003F00CC0E9FF07C0EAFF078E08C00B
:10007000E1FF09C0E2FF0AC0D9FF0BC0DAFF12C0DE
:10008000F3FF13C0F4FF14C0FAFF045006C0E0FFF2
:1000900005C0D8FF1000F76AA60FF66E000EF72213
:1000A0000900F55012000003FFFFFFFFFFFFFFFFF5
:1000B000FFFFFFFFFFFF07AE03D0F2CF0DF0F29E70
:1000C000F76AD80FF66E000EF7220900F55007AE5A
:1000D00002D00DBEF28E1200400040000000000071
:1000E0000000000000000000000000000000000010
:1000F0000000000000000000F76A080FF66E010E15
:10010000F7220900F55012000600FF0901A10119AC
:100110000129081580257F7508954081021901295C
:1001200008750895409102C0F76A380FF66E010E07
:10013000F7220900F55012000000F76A4A0FF66E28
:10014000010EF7220900F55012002000F76A5C0F3B
:10015000F66E010EF7220900F5501200090229007F
:10016000010102803209040000020300000009219D
:10017000000100012220000705810340000107055E
:10018000010340000100F76A960FF66E010EF72298
:100190000900F55012000100F76AA80FF66E010E73
:1001A000F7220900F55012001200F76ABA0FF66E36
:1001B000010EF7220900F5501200120102000000A2
:1001C000004025000100020001020001F76ADC0F77
:1001D000F66E010EF7220900F5501200040309041F
:1001E0000803500047004D001C03420065006C00EE
:1001F0006100720062006900270073002000500057
:10020000490043006D92699468A402D06894FCD7B9
:10021000ACEF07F0400E0401016F040E036F100EE7
:10022000026F880E006F046B040E076F500E066F8E
:100230000001120070A002D0EDDF7090689AB3EF59
:1002400007F06A6A6892B8EF07F0020130912FBF99
:1002500030812F9F2F51100803E2000E016E24D031
:1002600030A112D0036A2F51F2CF31F2F29E000179
:1002700012DF020131BFF28EFF0802E1000E01D051
:10028000010E016E11D010D0036A2F51F2CF31F25E
:10029000F29E000100DF020131BFF28EFF0802E191
:1002A000000E01D0010E016E0001120002012F515B
:1002B0003103F3CF01F0F4CF00F03203F350002606
:1002C00030513103F3500020026E00011200036A26
:1002D00002012E51700FE96E0F0E0320EA6EEF6AD5
:1002E0002EC22FF20001B1DF015228E00201306B73
:1002F0002EC22FF2326B080E316F0001D7DF0201E0
:1003000001C0E9FF040E0224EA6EEF6A306B2EC2D0
:100310002FF2326B080E316F0001C8DF02C030F2DD
:1003200001C02FF2040E02012F27000E30232FC22E
:10033000E9FF040E3025EA6EEF6A00011200010E9B
:1003400002012D6F2D510F0807E32DC22EF200017F
:10035000BEDF02012D2BF6D700011200256A246AA8
:100360000201236B23530AE1036A2351260FE96E2E
:10037000000E0320EA6EEF6A232BF4D7186A010EF1
:10038000196E176A000112006A6A686A9F0E6B6E26
:100390003D0E696E6E6AD3DFE1DF160E706E68A6E1
:1003A00002D030DEFCD76D9835DF030E1F6EBDEF37
:1003B00007F0698468986D82C2EF07F0689CC7EF08
:1003C00007F028C220F01200206812000201266BFC
:1003D000245025104DE026513F084AE31A50FC0FE7
:1003E00035E2040F000144EF02F023C003F0225075
:1003F000F2CF28F2F29EAADE020128BFF28E276F0A
:1004000025D023C003F02250F2CF28F2F29E74DEF2
:10041000020128BFF28E276F19D023C003F02250AB
:10042000F2CF28F2F29ED2DE020128BFF28E276FB1
:100430000DD023C003F02250F2CF28F2F29EB5DE99
:10044000020128BFF28E276F01D00201222AD8B400
:10045000232A2450D8B4250624062651262B500FD3
:10046000E96E040EEA6ED8B0EA2A27C2EFFFB0D7D1
:100470002450251004E12651400801E0176A26C2E5
:1004800028F200019EDF1200E824F76AF736A30F76
:10049000F66E040EF7220A00F550FA6E0800F550C9
:1004A000F96EEA0302041A043204236A226A1A6A01
:1004B00004011351010A000109E0030A0DE0010AD9
:1004C0000FE0220A2BE0030A55E085D0256A120EC0
:1004D000246E030E1A6E81D0256A290E246E7DD0FB
:1004E000020E1A6E036A040112511B0FE96E000E10
:1004F0000320EA6E236AEFCF22F023C003F02250DC
:10050000F2CF26F2F29E000161DE020126BFF28EDA
:10051000036A246E03C025F000015FD0D890040167
:100520001235036AF2CF26F2F29E000135DE090091
:10053000F5CF03F0020126BFF28E226E03C023F036
:10054000223C02D0235213E023C003F02250F2CF0A
:1005500026F2F29E0001FADD020126BFF28E036A46
:10056000246E03C025F0000138D004D00201000140
:100570002BDF42D0D89004011435036AF2CF26F263
:10058000F29E0001D1DD0900F5CF03F0020126BF84
:10059000F28E226E03C023F0223C02D0235218E0D8
:1005A000010E1A6ED89004011435036AF2CF26F2B8
:1005B000F29E0001C2DD0900F5CF03F0020126BF63
:1005C000F28E246E03C025F0000107D004D0020192
:1005D0000001FADE11D0F8DE0FD00401175308E154
:1005E000255203E12450165D03E2256A16C424F067
:1005F000010E176E0001EADE12000201255306E12A
:10060000040E1F6E00019BDE02D10201050E1F6E5B
:10061000040E286F900E276F010E266F26510F08CB
:10062000D8A0F5D026C22EF2000151DE0201296BBE
:10063000036A2651F2CF2DF2F29E00012CDD020159
:100640002DBFF28EFF086FE0040E296FD89026357B
:10065000036AF2CF2DF2F29E00012DDD0900F5CFE5
:1006600003F002012DBFF28E2A6F03C02BF2306B14
:1006700026C22FF2326B080E316F000117DE01C067
:100680002DF2010E02010124016E000E0220036E04
:1006900001C0E9FF040E0324EA6E2AC2EFFF306BAB
:1006A00026C22FF2326B080E316F0001FFDD01C050
:1006B0002DF2020E02010124016E000E0220036ED3
:1006C00001C0E9FF040E0324EA6E28C2ECFFED52DC
:1006D00027C2EFFFD8902635036AF2CF2DF2F29EA3
:1006E0000001E9DC0900F5CF03F002012DBFF28E15
:1006F000272703502823880E2C6F2BA101D02C8193
:100700002BA301D02C83306B26C22FF2326B080E44
:10071000316F0001CBDD020101C0E9FF040E0224AC
:10072000EA6E2CC2EFFF036A2651F2CF2DF2F29E41
:100730000001B1DC02012DBFF28EFF084BE02983DE
:10074000306B26C22FF2326B080E316F0001AEDD26
:1007500002C02EF201C02DF2040E02012D27000E60
:100760002E23020E2D25016E000E2E21036E01C0D8
:10077000E9FF040E0324EA6E28C2ECFFED5227C203
:10078000EFFFD8902635036AF2CF2DF2F29E0001DA
:1007900092DC0900F5CF03F002012DBFF28E27276E
:1007A00003502823306B26C22FF2326B080E316FB4
:1007B00000017CDD02C02EF201C02DF2040E020108
:1007C0002D27000E2E232DC2E9FF040E2E25EA6EE2
:1007D000400EEF6E2951060802E10E0E296F036AE2
:1007E0002651F2CF2DF2F29E000155DC02012DBF01
:1007F000F28E010801E02989036A2651700FE96E23
:100800000F0E0320EA6E29C2EFFF262B07D7000147
:100810005EEF04F004011151000A00010DE0010A2D
:1008200015E0020A21E0060A2CE0030A33E00E0A72
:1008300033E0010A39E049D019C050F40401516B8A
:10084000020E0201286F0001BCDD40D00401122D10
:1008500008D0010E19160201286B0001B2DD03D089
:1008600004010001B1DD32D00401122D07D019823C
:100870000201286B0001A5DD03D004010001A4DD05
:1008800025D0020E176E12C421F00201286B000160
:1008900098DD1CD00ADE1AD018C050F4010E0201F7
:1008A000286F00018EDD12D00401125101080BE304
:1008B00012C418F012C425F200019FD60201286B61
:1008C00000017FDD0401000101D07EDDB5EF05F000
:1008D00018C025F204011151000A000107E00A0ABC
:1008E0000EE0010A34E00D0A48E049D00401506BE3
:1008F000516B020E0201286F000163DD41D002013D
:10090000255322E0010E255D036AF2CF26F2F29E06
:10091000000139DC020126BFF28E016E0401145D74
:10092000D8A002D0020110D0036A1451260FE96E3C
:10093000000E0320EA6EEFCF50F4010E0201286F83
:1009400000013FDD03D0020100013EDD19D00201AC
:10095000255310E0036A04011451260FE96E000EBE
:100960000320EA6E12C4EFFF0201286B000129DDAB
:1009700003D00201000128DD03D097DD01D024DD82
:10098000B5EF05F00201269125BF2681259F26A1FE
:1009900019D0306B25C22FF2326B080E316F000177
:1009A00085DC02C028F201C027F2040E02012727CD
:1009B000000E282327C2E9FF040E2825EA6E880EC0
:1009C000EF6E0FD0306B25C22FF2326B080E316FF5
:1009D00000016CDC020101C0E9FF040E0224EA6E92
:1009E000EF6A000175EF05F00201269125BF26810F
:1009F000259F26A119D0306B25C22FF2326B080E2D
:100A0000316F000153DC02C028F201C027F2040E4E
:100A100002012727000E282327C2E9FF040E2825FC
:100A2000EA6E840EEF6E10D0306B25C22FF2326B5F
:100A3000080E316F00013ADC020101C0E9FF040E2B
:100A40000224EA6E840EEF6E00017DEF05F00201D4
:100A5000269125BF2681259F26A119D0306B25C25E
:100A60002FF2326B080E316F000120DC02C029F238
:100A700001C028F2040E02012827000E292328C2F3
:100A8000E9FF040E2925EA6EEFCF27F210D0306B74
:100A900025C22FF2326B080E316F000107DC020114
:100AA00001C0E9FF040E0224EA6EEFCF27F227AF60
:100AB00002D027B502D0000E01D0010E016E000158
:100AC00089EF05F014C42FF225EC01F001522EE05D
:100AD00004011151010A000105E0020A0BE0030ABA
:100AE00011E023D014C425F24DD70201286B000178
:100AF00068DC1CD014C425F277D70201286B0001F2
:100B000060DC14D00401506B516B14C425F2000159
:100B10009ED7015204E0010E0401506F0001020E45
:100B20000201286F00014DDC01D04EDCB5EF05F06D
:100B300004011151000148DCB5EF05F0176A04010A
:100B400010517F0B000A000107E0010A07E0030AC9
:100B500007E0230A07E008D05DD607D0B9D605D054
:100B6000B1D703D0E5D701D02FDC40EF07F0020169
:100B7000306B25C22FF2326B080E316F000156EC3C
:100B800001F0020101C0E9FF040E0224EA6EEFCF7A
:100B900027F22651020806E127AD02D0266B02D0CB
:100BA000010E266F265103081CE1840E276F306B5F
:100BB00025C22FF2326B080E316F000156EC01F0A6
:100BC00002C02BF201C02AF2040E02012A27000EF5
:100BD0002B232AC2E9FF040E2B25EA6E840EEF6E4A
:100BE00007D0262D03D0C80E276F02D0880E276F9E
:100BF000D8902535036AF2CF2AF2F29E00015BEC11
:100C000000F00900F5CF03F002012ABFF28E286F31
:100C100003C029F2306B25C22FF2326B080E316F00
:100C2000000156EC01F001C02AF2010E020101247C
:100C3000016E000E0220036E01C0E9FF040E0324C2
:100C4000EA6E28C2EFFF29A101D0278129A301D094
:100C50002783306B25C22FF2326B080E316F0001F3
:100C600056EC01F0020101C0E9FF040E0224EA6E15
:100C700027C2EFFF00011200036A02012A51700F20
:100C8000E96E0F0E0320EA6EEF521BE0306B2AC2B2
:100C90002FF2326B080E316F000156EC01F002C0EA
:100CA0002CF201C02BF2040E02012B27000E2C2384
:100CB0002BC2E9FF040E2C25EA6EEFCF2DF22DAFEB
:100CC00002D0000E01D0010E016E0001120025C2FB
:100CD0002AF2D2DF0152D8B487D00201306B25C28C
:100CE0002FF2326B080E316F000156EC01F002C09A
:100CF0002BF201C02AF2040E02012A27000E2B2338
:100D0000010E2A25016E000E2B21036E01C0E9FFA2
:100D1000040E0324EA6E26C2EFFF2851020820E1E8
:100D2000306B25C22FF2326B080E316F000156EC8A
:100D300001F002C02BF201C02AF2040E02012A27A0
:100D4000000E2B232AC2E9FF040E2B25EA6EEFCFFB
:100D500029F229AD02D0286B02D0010E286F1AD0DB
:100D60002851040817E1306B25C22FF2326B080EB0
:100D7000316F000156EC01F0020101C0E9FF040EE1
:100D80000224EA6EEFCF29F229AD03D0010E286FBD
:100D900001D0286B282D03D0C80E296F02D0880EF1
:100DA000296F27A101D0298127A301D02983306B86
:100DB00025C22FF2326B080E316F000156EC01F0A4
:100DC00002C02BF201C02AF2040E02012A27000EF3
:100DD0002B232AC2E9FF040E2B25EA6E29C2EFFF5E
:100DE000010E016E04D00001000E016E020100012F
:100DF00012000201255300E10001120026C26EFF1D
:100E00000201265303E0040E1F6E02D0020E1F6E75
:100E1000000110EF07F0186A176A21C026F2EED71A
:100E200021EF07F0020125530DE1172C05D0000139
:100E3000E6EC01F006D002011750020803E10001C0
:100E4000EAD70201000112001E300201236F233392
:100E500023331F0E23171E524EE1040100513C0B99
:100E60000201246F430E04010017020124513408CB
:100E700025E104010451800B01E0046B00015ED602
:100E80006D98203C07D00201256B030E266F0001F0
:100E90006EDE12D00201256B020E266F000167DEA6
:100EA0002050FE0809E00201256B276B20C026F2C6
:100EB000040E286F00010BDF1CD00201245104082E
:100EC00019E1256B000195DF0201256B020E266FEB
:100ED00000014DDE2050FE080CE0203C01D009D07E
:100EE0000201256B276B20C026F2010E286F00013E
:100EF000EEDE020122D01E50040812E12068256BAC
:100F0000000190DF203C01D009D00201256B276B46
:100F100020C026F2020E286F0001D9DE0DD002019A
:100F20001EB406D023C225F2000163DF05D0020102
:100F300023C225F2000176DF02010001D3EF07F0A2
:100F4000A19A1F52D8B439D06852D8B436D068A408
:100F500003D069B402EF01F06DB22FD068AA03D0BC
:100F600069BA1AEF01F068A203D069B221EF01F06B
:100F700068A003D069B0C4EF01F068A803D069B8D5
:100F8000D9EF01F068AC03D069BCDEEF01F00201DB
:100F9000226B68A60AD069A608D06CCF1EF00001AB
:100FA00002EC00F051D703D0020106D0000102018B
:100FB0002251222B0308EDE200012AEF00F06D6AB6
:100FC000696A080E6F6E945030090101946E1F6AB1
:100FD000166AF2BE168EF29E0001AEEC01F016BE4D
:100FE000F28EF4EF07F0EBD7A5EF13F0130ED26EED
:100FF000A194A084928092820D0EC16E030EC06EE9
:101000009284809489949296809689969288899801
:10101000899A929A8A9693968A889398938A818AD3
:10102000F19E8A9493948B9094908B9294928B944B
:101030009494080ED56E040ECA6E4F0ECB6E0C0E35
:10104000BD6E1D0EBE6E070EB46EB56AF28CF28ECA
:10105000F28CF28E010E0101FB6FFA6BFC6B800EBD
:10106000FD6F0001A7EF13F0020EEA6E060EE96EA7
:10107000EF500EE00F0E016E006A002EFED7012E1B
:10108000FBD78F0E006E002EFED70000EF2EF2D79A
:101090001200166AF2BE168EF29EAEEC01F016BE7B
:1010A000F28E6D6A140E6F6E696A6D86010E1F6E88
:1010B0005DEF08F06DB601D0ECD71F2C0BD06DBAE8
:1010C00009D0686A696AA08AC00EF212110E696EB0
:1010D000020E1F6EB8EF13F01850016EBAEF13F046
:1010E000036A0101FE51700FE96E0F0E0320EA6ED4
:1010F000EF521FE0166AF2BE168EF29E0201306BAE
:10110000FEC12FF2326B080E316F000156EC01F078
:1011100016BEF28E02C001F201C000F2020101C04F
:10112000E9FF040E0224EA6EEFCF02F202AF03D011
:101130000101000E02D0010E0101016E0001C2EF9B
:1011400013F0166AF2BE168EF29E0201306B0BC2CD
:101150002FF2326B080E316F000156EC01F016BE13
:10116000F28E01C015F2020E02010124016E000E82
:101170000220036E01C0E9FF040E0324EA6EECCFE7
:1011800011F2ED52EFCF10F2166AF2BE168EF29EF9
:10119000306B0BC22FF2326B080E316F000156EC30
:1011A00001F016BEF28E01C015F2010E02010124FB
:1011B000016E000E0220036E01C0E9FF040E03243D
:1011C000EA6E146BEFCF13F2166AF2BE168EF29E21
:1011D000306B0BC22FF2326B080E316F000156ECF0
:1011E00001F016BEF28E020101C0E9FF040E0224D6
:1011F000EA6EEFCF12F212A101D0148112A301D036
:10120000148314510F5D08E303E10E51135D04E2F2
:1012100014C20FF213C20EF20DC2EAFF0CC2E9FFB4
:1012200011C2E2FF10C2E1FF0FC202F00EC201F0D4
:10123000015202E0022A02D0025206E0E6CFEEFF9F
:10124000012EFCD7022EFAD70EC201F00FC202F017
:10125000000136EF09F006C20BF208C20DF207C218
:101260000CF20AC20FF209C20EF26BD702C00AF2E8
:1012700001C009F2166AF2BE168EF29E06C225F26F
:10128000020E0201266F000172DC16BEF28E020110
:1012900009C201F00AC202F0000163EF12F019C2A4
:1012A0001BF218C21AF202011AC2E9FF1BC2EAFFBE
:1012B00017C2ECFFED5216C2EFFF020E1A25E96EBF
:1012C000000E1B21EA6EEC6AED52EF6A1AC201F0C1
:1012D0001BC202F0000115EF0AF0020E02011225F6
:1012E000E96E000E1321EA6EECCF17F2ED52EFCF4C
:1012F00016F216530CE117530AE1020E1425E96E9B
:10130000000E1521EA6EEC6AED52EF6A1BD0020E58
:101310001425016E000E1521036E176F020E1225A3
:10132000E96E000E1321EA6EECCF03F0ED52EFCF21
:1013300018F217C2EAFF01C0E9FF03C0ECFFED524B
:1013400018C2EFFF020E1225E96E000E1321EA6E9D
:1013500015C2ECFFED5214C2EFFF000122EF0AF0BC
:10136000020118C2E9FF19C2EAFF1BC2ECFFED52ED
:101370001AC2EFFF0001120028C00DF227C00CF2C4
:1013800002010C5303E10D53D8B489D00CC2E9FF1C
:101390000DC2EAFFECCF13F2ED52EFCF12F213BF02
:1013A00072D00CC2E9FF0DC2EAFFECCF15F2ED528C
:1013B000EFCF14F20B51155D66E303E10A51145DA2
:1013C00062E30CC2E9FF0DC2EAFFECCF11F2ED526D
:1013D000EFCF10F2040E0A25016E000E0B21036EF2
:1013E0000350115D40E303E11051015C3CE20A51FE
:1013F000105D126F0B511159136F040E125F000E26
:10140000135B040E0C25146F000E0D21156F0A518D
:1014100014270B51152313C217F212C216F215C26C
:1014200019F214C218F200013AD702C00FF201C03B
:101430000EF20DC213F20CC212F20FC215F20EC25E
:1014400014F24BD702010AC212F2800E0B25136F61
:101450000DC219F20CC218F21B6F0AC21AF2000177
:101460007FDF0FD0020110C212F2800E1125136F20
:101470000DC219F20CC218F21B6F10C21AF2000151
:101480006FDF02010CD0020E0C25E96E000E0D215B
:10149000EA6EECCF0DF2ED52EFCF0CF272D70C5397
:1014A00007E10D5305E1000E016E026E08D007D072
:1014B000040E0C25016E000E0D21036E026E00015C
:1014C0001200166AF2BE168EF29E0CC22AF23CEC94
:1014D00006F016BEF28E015254E0166AF2BE168E67
:1014E000F29E0201306B0CC22FF2326B080E316F8C
:1014F000000156EC01F016BEF28E02C015F201C0DA
:1015000014F2040E02011427000E1523020E1425F6
:10151000016E000E1521036E01C0E9FF040E0324C5
:10152000EA6EECCF13F2ED52EFCF12F213C2EAFFE4
:1015300012C2E9FF0EC2E2FF0DC2E1FF10C202F0CB
:101540000FC201F0015202E0022A02D0025206E06C
:10155000E6CFEEFF012EFCD7022EFAD7166AF2BEB6
:10156000168EF29E0CC225F210C227F20FC226F28E
:1015700011C228F2000167EC06F016BEF28E01508F
:1015800002D0000E016E120028C01BF227C01AF212
:10159000020E02011A25E96E000E1B21EA6EECCF45
:1015A0001DF2ED52EFCF1CF218511C5D03E11951F1
:1015B0001D5D0EE0020E1A25E96E000E1B21EA6E7B
:1015C000ECCF1BF2ED52EFCF1AF20001E1D702018E
:1015D000020E1A25016E000E1B21036E1D6F020EF6
:1015E0001825E96E000E1921EA6EECCF03F0ED52DA
:1015F000EFCF1EF21DC2EAFF01C0E9FF03C0ECFFFE
:10160000ED521EC2EFFF196B186B000167EF0BF074
:1016100028C011F227C010F20201105303E1115348
:10162000D8B47CD010C2E9FF11C2EAFFECCF19F2A6
:10163000ED52EFCF18F219BF63D010C2E9FF11C20B
:10164000EAFFECCF15F2ED52EFCF14F2020E1025A7
:10165000E96E000E1121EA6EECCF13F2ED52EFCFDE
:1016600012F212C2E9FF13C2EAFFECCF19F2ED52F7
:10167000EFCF18F219BF36D0145110251A6F15513B
:1016800011211B6F040E1A25016E000E1B21036E23
:101690000150125D27E10350135D24E112C2E9FFFE
:1016A00013C2EAFFECCF17F2ED52EFCF16F2040EA1
:1016B0001625016E000E1721036E015014270350EA
:1016C000152313C219F212C218F200015DD711C21C
:1016D00019F210C218F215C21BF214C21AF240DE3F
:1016E0000DD00201020E1025E96E000E1121EA6EE6
:1016F000ECCF11F2ED52EFCF10F200010DD002014C
:10170000020E1025E96E000E1121EA6EECCF11F2E7
:10171000ED52EFCF10F200017FD702010001CBEFB5
:101720000BF002010A5304E10B5302E135D031D032
:10173000040E0A5D0C6F000E0B590D6F0CC2E9FF11
:101740000DC2EAFFECCF11F2ED52EFCF10F211AF64
:101750001DD00CC2E9FF0DC2EAFFECCF11F2ED5231
:10176000EFCF10F2000E105D0E6F800E11590F6F4B
:101770000DC219F20CC218F20FC21BF20EC21AF2FD
:101780000001EEDD02010B6B0A6B03D00B6B0A6BE1
:1017900003D000013DD702010001120002010B6BD2
:1017A000040E0A6F0001E8DD02C007F201C006F274
:1017B000020107C203F00651062BD8B4072BE96ECD
:1017C00003C0EAFF040EEF6E07C203F00651062BBA
:1017D000D8B4072BE96E03C0EAFFEF6A07C203F033
:1017E0000651062BD8B4072BE96E03C0EAFFEF6A57
:1017F00006C2E9FF07C2EAFF010EEF6E030E065DA7
:10180000086F000E0759096F010E0C6F09C20EF226
:1018100008C20DF2106B400E0F6F020E116F000127
:1018200050DE07C20BF206C20AF27BDF7EEF13F036
:1018300002010E511019800B126F0EAF05D00D1F53
:101840000E1F0D2BD8B40E2B10AF05D00F1F101F7D
:101850000F2BD8B4102B0D510F03F3CF01F0F4CFA1
:1018600000F01003F35000260E510F03F350002038
:10187000026E12AF05D0011E021E012AD8B4022A40
:10188000000184EF0CF0166AF2BE168EF29E020181
:10189000306B08C22FF2010E326F316B000156EC33
:1018A00001F016BEF28E01C00DF2020109510124B1
:1018B000016E000E022001C00AF20B6F0B31036EA5
:1018C0000A31026E03320232033202320332023232
:1018D0000332023203320232030E031602C00AF24E
:1018E00003C00BF2036A0101FC51E8BE03060201CA
:1018F0000A2703500B230BC20EF20AC20DF2106B23
:10190000FDC10FF2000194D702C00BF201C00AF230
:10191000D89002010B31036E0A310A6F03C00BF23B
:101920000B510C6F0C0EBE6E0B6B0B31036E0A313C
:10193000026E033202323F0E031602C00CF2CF0ECB
:10194000BD140C09BD6E0001B7EF12F0000ED88077
:101950000101FA550201086F08510703F3CF08F29D
:10196000086B08C201F00001120002010A5315E0E1
:101970000101F36BF46B800ECD6EFA0ECF6E380E54
:10198000CE6E9E909D80CD809E9C9D9C260EC06EAE
:10199000050EC26EC28207D002019D90CD90C26A30
:1019A0009E9C9D9C010100011200010E02010A256E
:1019B000C26EC282C2500209FDE1000112000201A2
:1019C000186B196B010E1A6FDA6AD96A020E1D6F55
:1019D000100E1C6F020EEA6E140EE96E1DC2E2FFBD
:1019E0001CC2E1FF1AC21BF2D890E550EE02F35080
:1019F0001823F45019231B2FF7D718C2DEFF19C282
:101A000018F2196BD8B0192B1C2BD8B41D2B1A2B1C
:101A10001A510508DFE1000125EF0DF002010F6BFF
:101A20000E6B0BC20DF20AC20CF20FC213F20EC201
:101A300012F20DC211F20CC210F2176B166BFBC141
:101A400015F2FAC114F20001BAD703C00FF202C0B6
:101A50000EF201C00DF200C00CF20DC20CF20EC26B
:101A60000DF20FC20EF202010F6B0F5303E10E5184
:101A7000000804E20F6B0E6B0D690C690CC201F0DB
:101A80000DC202F00001120002010B6B050E0A6F7D
:101A9000000172DC02C009F201C008F2020109C2B1
:101AA00003F00851082BD8B4092BE96E03C0EAFFF4
:101AB000050EEF6E0A6B000158DF040E02010A6F7B
:101AC000000173DF166AF2BE168EF29E0201306BC1
:101AD000C4CF2FF2010E326F316B000156EC01F0D2
:101AE00016BEF28EC35002010124066F000E0220C2
:101AF000076F07C20BF206C20AF200018FDF02C0B5
:101B000007F201C006F2020109C203F00851082BD6
:101B1000D8B4092BE96E03C0EAFF06C2EFFF09C281
:101B200003F00851082BD8B4092BE96E03C0EAFF73
:101B30000751EF6E0A6B000138DF166AF2BE168E8F
:101B4000F29E0201306BC4CF2FF2010E326F316B67
:101B5000000156EC01F016BEF28EC35002010124C2
:101B6000066F000E0220076F07C20BF206C20AF2D0
:101B7000000154DF02C007F201C006F2020109C2EF
:101B800003F00851082BD8B4092BE96E03C0EAFF13
:101B900006C2EFFF09C203F008C2E9FF09C2EAFF6B
:101BA0000751EF6E040E085D0A6F000E09590B6FA6
:101BB000010E0C6F0BC20EF20AC20DF2106B400E3A
:101BC0000F6F020E116F00017CDC09C20BF208C21C
:101BD0000AF2A7DD010E02010A6F0001C6DE03EF63
:101BE00013F008C201F007C200F00066012A0900E4
:101BF000F5CFEEFF002EFBD7012EF9D7F86A5EEF86
:101C000013F002011A6B928480B41A818986000055
:101C100000000000899600001A43192FF5D71AC258
:101C200001F000011200ED517F0801E20FD0EC51EC
:101C3000EC2B036A6B0FE96E000E0320EA6E18C2EC
:101C4000EFFFEC517F0801E2EC6BED2B120002017B
:101C500019A1899419B18994000089860000899698
:101C600019431A2FF5D7000112000101F05303E1C7
:101C7000000E016E0FD0EE51EE2B036AEE0FE96EEF
:101C8000000E0320EA6EEFCF17F2F007020117C231
:101C900001F00101000112000201176B80A401D0C4
:101CA000178380A601D0178117C201F00001FCEF55
:101CB0000FF0F294FF0ED76E0201191DD66ED62AD0
:101CC000D58EF2A4FED7D59E000108EF11F0F29454
:101CD0000201191DD76ED72AD66AD58EF2A4FED777
:101CE000D59E00011FEF11F002011A6B92848986C4
:101CF00000000000000080B41A81899600001A4399
:101D0000192FF5D79294080ED8801955016E0152FB
:101D100004E0D8901A33012EFCD71AC201F000015A
:101D20001200929402011BA189941BB189840000C6
:101D30008986000089961B431C2FF5D700011200ED
:101D4000020117A502D0010E01D0000E8996E8B05D
:101D5000898617A702D0010E01D0000E8994E8B041
:101D6000898417A102D0010E01D0000E9296E8B02E
:101D7000928617A302D0010E01D0000E9294E8B013
:101D8000928400012FEF12F002010A6B0E810E8384
:101D9000F298070ED56E0753D8B485D307510A5D64
:101DA000D8B081D3D8900A350825016E000E0921DC
:101DB00001C0E9FFEA6EEFCF0BF2D50E0B5FD890B2
:101DC0000B37080E0B27F9500B25D8B0FA2AF96EFD
:101DD00024D03FD04AD06CD085D0D1D006D10AD102
:101DE00013D14AD172D192D194D1A0D1CFD1FCD10B
:101DF00012D228D265D27BD296D2B3D2E6D2ECD21E
:101E0000F7D204D31CD32ED330D332D335D338D327
:101E10003AD33CD33ED340D342D30A2BD8900A3591
:101E20000825016E000E0921036E01C0E9FFEA6E6C
:101E3000ECCF18F2ED52EFCF17F217C219F20001F2
:101E4000E0DE01C017F201C018F2EDDE02010A2B3C
:101E5000A5D7080E196F0001D4DE01C017F201C02A
:101E600018F2E1DE02010A2B99D7010E196F040E58
:101E70001A6F0001ECDE0201196B080E1A6F0001E7
:101E8000E6DE080E0201196F0001BBDE01C017F289
:101E900001C018F2C8DE080E0201196F0001B1DEA0
:101EA00001C017F201C018F2BEDE02010A2B76D77C
:101EB000196B080E1A6F0001CADE0201196B080EB9
:101EC0001A6F0001C4DE0201196B080E1A6F0001BF
:101ED000BEDE0201196B080E1A6F0001B8DE0201A6
:101EE0000A2B5CD7196B040E1A6F0001B0DE0201D9
:101EF0000A2BD8900A350825016E000E0921036EC1
:101F000001C0E9FFEA6EECCF18F2ED52EFCF17F205
:101F100017C219F2080E1A6F000199DE02010A2B8E
:101F2000D8900A350825016E000E0921036E01C004
:101F3000E9FFEA6EECCF18F2ED52EFCF17F217C2BD
:101F400019F2080E1A6F000182DE02010A2BD890E6
:101F50000A350825016E000E0921036E01C0E9FF54
:101F6000EA6EECCF18F2ED52EFCF17F217C219F26A
:101F7000080E1A6F00016BDE02010A2B0FD7196BD6
:101F8000040E1A6F000163DE02010A2BD8900A3595
:101F90000825016E000E0921036E01C0E9FFEA6EFB
:101FA000ECCF18F2ED52EFCF17F217C219F2080E6C
:101FB0001A6F00014CDE02010A2BD8900A35082561
:101FC000016E000E0921036E01C0E9FFEA6EECCF3D
:101FD00018F2ED52EFCF17F217C219F2080E1A6F6E
:101FE000000135DE02010A2BD9D600013EDE0201D6
:101FF0000A2BD4D6000150D601C017F201C018F246
:1020000012DE02010A2BCAD60EB10FD00F51D8B47E
:1020100010070F070F5305E1105303E10E810A2B40
:10202000BDD60A6B0EB10A2BB9D60A2BD8900A3549
:102030000825016E000E092101C0E9FFEA6EECCF10
:1020400003F0ED52EF500A5D0C6F00010EDE02014D
:10205000106B01C00FF2000108DE000E02010F2715
:10206000015010230F5304E1105302E10A2B96D6BE
:102070000E910CC20AF292D60A2BD8900A35082586
:10208000016E000E092101C0E9FFEA6EECCF03F0FA
:10209000ED52EFCF15F20F0E0324166F0A2BD890D6
:1020A0000A350825016E000E092101C0E9FFEA6E1C
:1020B000ECCF03F0ED52EFCF19F216C2EAFF15C2D2
:1020C000E9FF19C2EFFF0A2B69D60A2BD8900A350F
:1020D0000825016E000E092101C0E9FFEA6EECCF70
:1020E00003F0ED52EFCF15F20F0E0324166F16C258
:1020F00003F015C2E9FF16C2EAFFEFCF17F217C2CD
:1021000018F2000190DD02010A2B48D607C20AF23C
:1021100045D60A2BD8900A350825016E000E0921F4
:1021200001C0E9FFEA6EEFCF0AF238D6010E0001D6
:10213000EC5D036A6B0FE96E000E0320EA6EEFCFD1
:102140000DF202010A2BD8900A350825016E000E07
:10215000092101C0E9FFEA6EECCF03F0ED52EFCFA9
:1021600001F0035211E10D51015C0EE20A2BD890EF
:102170000A350825016E000E092101C0E9FFEA6E4B
:10218000EF500A250A6F01D00A2B08D6010E000174
:10219000EC5D036A6B0FE96E000E0320EA6EEFCF71
:1021A0000DF202010A2BD8900A350825016E000EA7
:1021B000092101C0E9FFEA6EECCF03F0ED52EF50C8
:1021C0000D5D10E103520EE10A2BD8900A35082567
:1021D000016E000E092101C0E9FFEA6EEF500A25E9
:1021E0000A6F01D00A2BDAD50A2BD8900A350825B8
:1021F000016E000E0921036E01C0E9FFEA6EECCF0B
:1022000018F2ED52EFCF17F217C219F2000151D5B3
:1022100002010A2BC3D50A2BD8900A350825016E76
:10222000000E0921036E01C0E9FFEA6EECCF18F23F
:10223000ED52EFCF17F217C219F2000148D5020193
:102240000A2BACD50EB30CD01151D8B4120711071C
:10225000115306E1125304E10E83030E0A279ED5A3
:102260000E93D8900A350825176F000E0921186FB4
:10227000020E1725016E000E182101C0E9FFEA6E5B
:10228000ECCF03F0ED52EF500A5D136F000E0354D4
:10229000146FD8900A350825176F000E0921186FA2
:1022A000040E1725016E000E182101C0E9FFEA6E29
:1022B000ECCF12F2ED52EFCF11F213C20AF26ED54B
:1022C0000A2BD8900A350825016E000E0921036EED
:1022D00001C0E9FFEA6EECCF18F2ED52EFCF17F232
:1022E00017C219F2000100DD02010A2B57D50A2B93
:1022F000D8900A350825016E000E0921036E01C031
:10230000E9FFEA6EECCF18F2ED52EFCF17F217C2E9
:1023100019F20001E9DC01C017F201C018F283DCF8
:1023200002010A2B3BD50001A0DC01C017F202011B
:102330000A2BD8900A350825016E000E0921036E7C
:1023400001C0E9FFEA6EECCF19F2ED52EFCF18F2BF
:1023500017C21BF218C21CF20001E3DC02010A2BB7
:102360001DD5D8900A350825176F000E0921186F62
:10237000040E1725016E000E1821036E01C0E9FF3F
:10238000EA6EECCF18F2ED52EFCF17F2D8900A3583
:102390000825196F000E09211A6F020E1925016E0A
:1023A000000E1A21036E01C0E9FFEA6EECCF1AF2AB
:1023B000ED52EFCF19F217C21BF219C21CF2000145
:1023C000B0DC030E02010A27E9D4080E196F0001E0
:1023D0008BDC02010A2BE2D4080E196F000184DCA9
:1023E00001C017F201C018F21EDC02010A2BD6D47C
:1023F00000013BDC01C017F201C01BF2080E020114
:102400001C6F00018EDC02010A2BC8D40A2BD89065
:102410000A350825016E000E0921036E01C0E9FF8F
:10242000EA6EECCF18F2ED52EFCF17F217C21BF2A3
:10243000080E1C6F000175DC02010A2BAFD40A2BB9
:10244000D8900A350825016E000E092101C0E9FF68
:10245000EA6EEFCF6AF06AC017F2000171D4020190
:102460000A2B9CD4899A0A2B99D4898A0A2B96D450
:10247000BA6A8B920A2B92D40C0EBA6E0A2B8ED4A7
:102480008A840A2B8BD48A940A2B88D48A860A2BB6
:1024900085D48A960A2B82D48A980A2B7FD48A887C
:1024A0000A2B7CD47BD4000170EF13F0010E696F0E
:1024B0000201066F086B290E076F0A6B400E096F49
:1024C00000012BEF09F0010E0201066F000134EC50
:1024D00008F029C0FEF10101FE510001695DD8B08C
:1024E0000DD1036A6951290FE96E000E0320EA6ECF
:1024F000EFCFFFF10101FF5303E10001FFD0010124
:10250000010EFF5FD890FF37080EFF27F950FF2517
:10251000D8B0FA2AF96E06D00BD00ED03CD070D0CD
:1025200075D0E8D00001CEEF0BF00001E7D001013B
:102530008B700001E3D00101020E00016925036ADE
:10254000290FE96E000E0320EA6EEFCF04F2010EB0
:102550006925036A290FE96E000E0320EA6EEFCFAA
:1025600005F204C208F205C209F243EF0CF0030EB3
:102570006925036A290FE96E000E0320EA6EEFCF8A
:1025800004F204C207F2A6EC0CF001C0F1F1040E53
:102590006927A1D70101010E00016925036A290FEE
:1025A000E96E000E0320EA6EEFCFF7F1020E692507
:1025B000036A290FE96E000E0320EA6EEFCF04F2E2
:1025C00004C207F2A6EC0CF0010E01240101F86F21
:1025D000020EF85DF96F030E00016925036A290FE9
:1025E000E96E000E0320EA6EEFCF04F204C207F298
:1025F000A6EC0CF001C0F2F1040E69276CD70101C2
:10260000000144EF0DF0692B66D70101010E0001B6
:102610006925036A290FE96E000E0320EA6EEFCFE9
:1026200004F202010B6B04C20AF20001BCEC09F0D7
:1026300002C001F201C000F2030E6925036A290FEE
:10264000E96E000E0320EA6E166AF2BE168EF29E46
:102650000201306BEFCF2FF2010E326F316B0001B0
:1026600056EC01F016BEF28E020E6925036A290FA0
:10267000E96E000E0320EA6EEF5002010124026FA2
:10268000000E0220036F010E00016925036A290F65
:10269000E96E000E0320EA6EEFCF04F2F86A03C27F
:1026A000F7FF02C2F6FF01C2EAFF00C2E9FF020122
:1026B000086B04C207F20001F1EF0DF0010E69256D
:1026C000036A290FE96E000E0320EA6EEFCF04F2D1
:1026D00004C207F201C209F200C208F2C4EF0EF010
:1026E00001C20BF200C20AF291EC0BF0040E692752
:1026F000F2D601010001692BEED6EDD6C5EF13F03D
:10270000F86AD09E078EC150C00B0F09C16E070E2C
:10271000B46E020E286E340E276E010E0201356F64
:10272000C80E346F050E376F100E366F020E05019E
:10273000116FEC0E106F136B126B00011B6A040E0D
:102740001C6E0C0E1D6EF3EF07F0F6EF07F08B809A
:10275000020E0101FE6FFA0E0201066F000134EC59
:1027600008F00101FE2FF7D78B9000015AEF08F017
:102770006CEF08F0015209E0010E0101FE6F00014B
:0E27800070EF08F0015201E091D6F0D703008F
:020000040030CA
:0E0000002CCE380E000781000FC00FE00F401D
:00000001FF
;PIC18F2550
;CRC=02E9  CREATED="31-janv.-19 15:04"
