:1000000087EF14F068961200046ED8CF05F0E0CFA9
:1000100006F00001E9CF0CF0EACF07F0E1CF08F0DD
:10002000E2CF09F0D9CF0AF0DACF0BF0F3CF12F01C
:10003000F4CF13F0FACF14F000C00EF001C00FF0AF
:1000400002C010F003C011F09DA02AEF00F09EB096
:10005000EBEF07F09DAC30EF00F09EBC0AEF08F02C
:10006000A0AA36EF00F0A1BAACEF07F00EC000F086
:100070000FC001F010C002F011C003F00CC0E9FF86
:1000800007C0EAFF078E08C0E1FF09C0E2FF0AC00F
:10009000D9FF0BC0DAFF12C0F3FF13C0F4FF14C086
:1000A000FAFF045006C0E0FF05C0D8FF1000F76A51
:1000B000BE0FF66E000EF7220900F5501200000385
:1000C000FFFFFFFFFFFFFFFFFFFFFFFFFFFF07AE89
:1000D00003D0F2CF0DF0F29EF76AF00FF66E000E2D
:1000E000F7220900F55007AE02D00DBEF28E1200C5
:1000F0004000400000000000000000000000000080
:1001000000000000000000000000000000000000EF
:10011000F76A200FF66E010EF7220900F550120063
:100120000600FF0901A101190129081580257F7525
:10013000089540810219012908750895409102C06F
:10014000F76A500FF66E010EF7220900F550120003
:100150000000F76A620FF66E010EF7220900F550F3
:1001600012002000F76A740FF66E010EF7220900E4
:10017000F550120009022900010102803209040031
:1001800000020300000009210001000122200007F5
:100190000581034000010705010340000100F76AE3
:1001A000AE0FF66E010EF7220900F55012000100A5
:1001B000F76AC00FF66E010EF7220900F550120023
:1001C0001200F76AD20FF66E010EF7220900F55001
:1001D0001200120102000000004025000100020090
:1001E00001020001F76AF40FF66E010EF722090012
:1001F000F5501200040309040803500047004D00A5
:100200001C03420065006C0061007200620069001E
:100210002700730020005000490043006D9269944C
:1002200068A402D06894FCD7B8EF07F0400E040130
:10023000016F040E036F100E026F880E006F046BC7
:10024000040E076F500E066F0001120070A002D05E
:10025000EDDF7090689ABFEF07F06A6A6892C4EFAA
:1002600007F002016C916BBF6C816B9F6B511008A2
:1002700003E2000E016E24D06CA112D0036A6B5110
:10028000F2CF6DF2F29E000112DF02016DBFF28E1D
:10029000FF0802E1000E01D0010E016E11D010D056
:1002A000036A6B51F2CF6DF2F29E000100DF020192
:1002B0006DBFF28EFF0802E1000E01D0010E016E4B
:1002C0000001120002016B516D03F3CF01F0F4CF76
:1002D00000F06E03F35000266C516D03F3500020C4
:1002E000026E00011200036A02016A51700FE96E8A
:1002F0000F0E0320EA6EEF6A6AC26BF20001B1DFF3
:10030000015228E002016C6B6AC26BF26E6B080E40
:100310006D6F0001D7DF020101C0E9FF040E022466
:10032000EA6EEF6A6C6B6AC26BF26E6B080E6D6FF1
:100330000001C8DF02C06CF201C06BF2040E0201C2
:100340006B27000E6C236BC2E9FF040E6C25EA6E6E
:10035000EF6A00011200010E0201696F69510F0876
:1003600007E369C26AF20001BEDF0201692BF6D71A
:1003700000011200256A246A02015F6B5F530AE1E3
:10038000036A5F51260FE96E000E0320EA6EEF6AE2
:100390005F2BF4D7186A010E196E176A000112005C
:1003A0006A6A686A9F0E6B6E3D0E696E6E6AD3DF75
:1003B000E1DF160E706E68A602D024DEFCD76D98C1
:1003C00035DF030E1F6EC9EF07F0698468986D82F0
:1003D000CEEF07F0689CD3EF07F064C220F0120064
:1003E000206812000201626B245025104DE062511A
:1003F0003F084AE31A50FC0F35E2040F000150EFAA
:1004000002F023C003F02250F2CF64F2F29EAADE83
:10041000020164BFF28E636F25D023C003F0225027
:10042000F2CF64F2F29E74DE020164BFF28E636F5B
:1004300019D023C003F02250F2CF64F2F29ED2DE34
:10044000020164BFF28E636F0DD023C003F022500F
:10045000F2CF64F2F29EB5DE020164BFF28E636FEA
:1004600001D00201222AD8B4232A2450D8B4250668
:1004700024066251622B500FE96E040EEA6ED8B06A
:10048000EA2A63C2EFFFB0D72450251004E162517D
:10049000400801E0176A62C264F200019EDF1200A8
:1004A000E824F76AF736BB0FF66E040EF7220A004F
:1004B000F550FA6E0800F550F96E02041A04320481
:1004C0004A04236A226A1A6A04011351010A0001CC
:1004D00009E0030A0DE0010A0FE0220A2BE0030AFB
:1004E00055E085D0256A120E246E030E1A6E81D057
:1004F000256A290E246E7DD0020E1A6E036A04014D
:1005000012511B0FE96E000E0320EA6E236AEFCF33
:1005100022F023C003F02250F2CF62F2F29E0001DB
:1005200061DE020162BFF28E036A246E03C025F011
:1005300000015FD0D89004011235036AF2CF62F255
:10054000F29E000135DE0900F5CF03F0020162BF23
:10055000F28E226E03C023F0223C02D0235213E01D
:1005600023C003F02250F2CF62F2F29E0001FADDC6
:10057000020162BFF28E036A246E03C025F00001FF
:1005800038D004D0020100012BDF42D0D890040102
:100590001435036AF2CF62F2F29E0001D1DD090048
:1005A000F5CF03F0020162BFF28E226E03C023F08A
:1005B000223C02D0235218E0010E1A6ED89004019A
:1005C0001435036AF2CF62F2F29E0001C2DD090027
:1005D000F5CF03F0020162BFF28E246E03C025F056
:1005E000000107D004D002010001FADE11D0F8DECC
:1005F0000FD00401175308E1255203E12450165D82
:1006000003E2256A16C424F0010E176E0001EADE2B
:1006100012000201615306E1040E1F6E00019BDE11
:1006200002D10201050E1F6E040E646F900E636FFF
:10063000010E626F62510F08D8A0F5D062C26AF253
:10064000000151DE0201656B036A6251F2CF69F26B
:10065000F29E00012CDD020169BFF28EFF086FE0FF
:10066000040E656FD8906235036AF2CF69F2F29E8C
:1006700000012DDD0900F5CF03F0020169BFF28E04
:10068000666F03C067F26C6B62C26BF26E6B080E32
:100690006D6F000117DE01C069F2010E0201012435
:1006A000016E000E0220036E01C0E9FF040E032458
:1006B000EA6E66C2EFFF6C6B62C26BF26E6B080E85
:1006C0006D6F0001FFDD01C069F2020E020101241D
:1006D000016E000E0220036E01C0E9FF040E032428
:1006E000EA6E64C2ECFFED5263C2EFFFD890623550
:1006F000036AF2CF69F2F29E0001E9DC0900F5CF4E
:1007000003F0020169BFF28E632703506423880E51
:10071000686F67A101D0688167A301D068836C6BA3
:1007200062C26BF26E6B080E6D6F0001CBDD0201D1
:1007300001C0E9FF040E0224EA6E68C2EFFF036AFB
:100740006251F2CF69F2F29E0001B1DC020169BF91
:10075000F28EFF084BE065836C6B62C26BF26E6BCE
:10076000080E6D6F0001AEDD02C06AF201C069F2D1
:10077000040E02016927000E6A23020E6925016E2C
:10078000000E6A21036E01C0E9FF040E0324EA6E25
:1007900064C2ECFFED5263C2EFFFD8906235036A8A
:1007A000F2CF69F2F29E000192DC0900F5CF03F06E
:1007B000020169BFF28E6327035064236C6B62C22F
:1007C0006BF26E6B080E6D6F00017CDD02C06AF289
:1007D00001C069F2040E02016927000E6A2369C292
:1007E000E9FF040E6A25EA6E400EEF6E65510608B9
:1007F00002E10E0E656F036A6251F2CF69F2F29E5A
:10080000000155DC020169BFF28E010801E0658933
:10081000036A6251700FE96E0F0E0320EA6E65C223
:10082000EFFF622B07D700016AEF04F004011151BA
:10083000000A00010DE0010A15E0020A21E0060AA3
:100840002CE0030A33E00E0A33E0010A39E049D014
:1008500019C050F40401516B020E0201646F0001D3
:10086000BCDD40D00401122D08D0010E1916020182
:10087000646B0001B2DD03D004010001B1DD32D0B0
:100880000401122D07D019820201646B0001A5DD5D
:1008900003D004010001A4DD25D0020E176E12C49E
:1008A00021F00201646B000198DD1CD00ADE1AD031
:1008B00018C050F4010E0201646F00018EDD12D0E9
:1008C0000401125101080BE312C418F012C461F2C2
:1008D00000019FD60201646B00017FDD040100016D
:1008E00001D07EDDC1EF05F018C061F204011151A5
:1008F000000A000107E00A0A0EE0010A34E00D0ACE
:1009000048E049D00401506B516B020E0201646F44
:10091000000163DD41D00201615322E0010E615DFF
:10092000036AF2CF62F2F29E000139DC020162BF7B
:10093000F28E016E0401145DD8A002D0020110D025
:10094000036A1451260FE96E000E0320EA6EEFCF02
:1009500050F4010E0201646F00013FDD03D002017B
:1009600000013EDD19D00201615310E0036A040169
:100970001451260FE96E000E0320EA6E12C4EFFF39
:100980000201646B000129DD03D00201000128DDB2
:1009900003D097DD01D024DDC1EF05F002016291A3
:1009A00061BF6281619F62A119D06C6B61C26BF201
:1009B0006E6B080E6D6F000185DC02C064F201C031
:1009C00063F2040E02016327000E642363C2E9FF91
:1009D000040E6425EA6E880EEF6E0FD06C6B61C258
:1009E0006BF26E6B080E6D6F00016CDC020101C0D2
:1009F000E9FF040E0224EA6EEF6A000181EF05F0C0
:100A00000201629161BF6281619F62A119D06C6B2A
:100A100061C26BF26E6B080E6D6F000153DC02C099
:100A200064F201C063F2040E02016327000E642326
:100A300063C2E9FF040E6425EA6E840EEF6E10D0E7
:100A40006C6B61C26BF26E6B080E6D6F00013ADC6D
:100A5000020101C0E9FF040E0224EA6E840EEF6E6B
:100A6000000189EF05F00201629161BF6281619F1F
:100A700062A119D06C6B61C26BF26E6B080E6D6F68
:100A8000000120DC02C065F201C064F2040E020124
:100A90006427000E652364C2E9FF040E6525EA6E33
:100AA000EFCF63F210D06C6B61C26BF26E6B080E0D
:100AB0006D6F000107DC020101C0E9FF040E022492
:100AC000EA6EEFCF63F263AF02D063B502D0000EDF
:100AD00001D0010E016E000195EF05F014C46BF218
:100AE00031EC01F001522EE004011151010A000124
:100AF00005E0020A0BE0030A11E023D014C461F2FE
:100B00004DD70201646B000168DC1CD014C461F293
:100B100077D70201646B000160DC14D00401506BD4
:100B2000516B14C461F200019ED7015204E0010E22
:100B30000401506F0001020E0201646F00014DDCE0
:100B400001D04EDCC1EF05F004011151000148DC79
:100B5000C1EF05F0176A040110517F0B000A000174
:100B600007E0010A07E0030A07E0230A07E008D0CC
:100B70005DD607D0B9D605D0B1D703D0E5D701D01F
:100B80002FDC4CEF07F002016C6B61C26BF26E6BF5
:100B9000080E6D6F000162EC01F0020101C0E9FF77
:100BA000040E0224EA6EEFCF63F26251020806E1FE
:100BB00063AD02D0626B02D0010E626F6251030816
:100BC0001CE1840E636F6C6B61C26BF26E6B080E7E
:100BD0006D6F000162EC01F002C067F201C066F2C5
:100BE000040E02016627000E672366C2E9FF040EA9
:100BF0006725EA6E840EEF6E07D0622D03D0C80E13
:100C0000636F02D0880E636FD8906135036AF2CFAC
:100C100066F2F29E000167EC00F00900F5CF03F0E8
:100C2000020166BFF28E646F03C065F26C6B61C235
:100C30006BF26E6B080E6D6F000162EC01F001C08B
:100C400066F2010E02010124016E000E0220036E05
:100C500001C0E9FF040E0324EA6E64C2EFFF65A140
:100C600001D0638165A301D063836C6B61C26BF2B9
:100C70006E6B080E6D6F000162EC01F0020101C0A5
:100C8000E9FF040E0224EA6E63C2EFFF00011200C6
:100C9000036A02016651700FE96E0F0E0320EA6EBF
:100CA000EF521BE06C6B66C26BF26E6B080E6D6FE1
:100CB000000162EC01F002C068F201C067F2040EAC
:100CC00002016727000E682367C2E9FF040E68254A
:100CD000EA6EEFCF69F269AF02D0000E01D0010ECB
:100CE000016E0001120061C266F2D2DF0152D8B477
:100CF00087D002016C6B61C26BF26E6B080E6D6F78
:100D0000000162EC01F002C067F201C066F2040E5D
:100D100002016627000E6723010E6625016E000E94
:100D20006721036E01C0E9FF040E0324EA6E62C26C
:100D3000EFFF6451020820E16C6B61C26BF26E6BD5
:100D4000080E6D6F000162EC01F002C067F201C095
:100D500066F2040E02016627000E672366C2E9FFF1
:100D6000040E6725EA6EEFCF65F265AD02D0646BC5
:100D700002D0010E646F1AD06451040817E16C6B45
:100D800061C26BF26E6B080E6D6F000162EC01F0D8
:100D9000020101C0E9FF040E0224EA6EEFCF65F202
:100DA00065AD03D0010E646F01D0646B642D03D078
:100DB000C80E656F02D0880E656F63A101D0658192
:100DC00063A301D065836C6B61C26BF26E6B080E1E
:100DD0006D6F000162EC01F002C067F201C066F2C3
:100DE000040E02016627000E672366C2E9FF040EA7
:100DF0006725EA6E65C2EFFF010E016E04D00001A7
:100E0000000E016E0201000112000201615300E1B7
:100E10000001120062C26EFF0201625303E0040E81
:100E20001F6E02D0020E1F6E00011CEF07F0186A41
:100E3000176A21C062F2EED72DEF07F0020161536D
:100E40000DE1172C05D00001F2EC01F006D00201F3
:100E50001750020803E10001EAD702010001120065
:100E60001E3002015F6F5F335F331F0E5F171E522C
:100E70004EE1040100513C0B0201606F430E04017E
:100E8000001702016051340825E104010451800B70
:100E900001E0046B00015ED66D98203C07D0020192
:100EA000616B030E626F00016EDE12D00201616B96
:100EB000020E626F000167DE2050FE0809E00201A9
:100EC000616B636B20C062F2040E646F00010BDF84
:100ED0001CD002016051040819E1616B000195DF2B
:100EE0000201616B020E626F00014DDE2050FE08B0
:100EF0000CE0203C01D009D00201616B636B20C083
:100F000062F2010E646F0001EEDE020122D01E507B
:100F1000040812E12068616B000190DF203C01D0E1
:100F200009D00201616B636B20C062F2020E646F34
:100F30000001D9DE0DD002011EB406D05FC261F2FD
:100F4000000163DF05D002015FC261F2000176DFBC
:100F500002010001DFEF07F0A19A1F52D8B439D087
:100F60006852D8B436D068A403D069B40EEF01F04B
:100F70006DB22FD068AA03D069BA26EF01F068A23B
:100F800003D069B22DEF01F068A003D069B0D0EFB3
:100F900001F068A803D069B8E5EF01F068AC03D0B0
:100FA00069BCEAEF01F002015E6B68A60AD069A68F
:100FB00008D06CCF1EF0000102EC00F051D703D036
:100FC000020106D0000102015E515E2B0308EDE232
:100FD000000136EF00F0FA0ECF6E380ECE6E815261
:100FE00002E0000E01D0010E02013151C45C08E2A2
:100FF00033510C0803E18A948A8801D0332B01D045
:10100000336B9E9C010EC26E9D8CC2829E9000012D
:1010100036EF00F0BA500C080CE1C4500201385D04
:1010200001E2BB6A3951C45C02E237C2BBFF346BD8
:101030000001050EC26E9D9CC2829E9C36EF00F0A0
:101040000201475313E0336B346B800ECD6EFA0E02
:10105000CF6E380ECE6E9E909D80CD809E9C9D9CC6
:10106000260EC06E050EC26EC28205D09D90CD9038
:10107000C26A9E9C9D9C00011200130ED26EA19428
:10108000A094928092820D0EC16E030EC06E928467
:101090008094899492868096899692888998899A74
:1010A000929A8A9693968A889398938A818AF19ED7
:1010B0008A9493948B9094908B9294928B94949422
:1010C000080ED56E040ECA6E4F0ECB6E0C0EBD6EA2
:1010D0001D0EBE6E400E0201376F3E0E386F3C0E85
:1010E000396F7E0E316F2D0E326F070EB46EB56AFA
:1010F000F28CF28E010E476F0001A2DF01012D6B11
:101100002C6B2B6B0201306B2E6B2F6B010E3B6F28
:101110003A6B3C6B800E3D6F0001AFEF14F06D6ACF
:10112000696A080E6F6E945030090201946E1F6A4E
:10113000166AF2BE168EF29E0001BAEC01F016BEDF
:10114000F28EA4EF08F0EBD7B1EF14F0166AF2BEFE
:10115000168EF29EBAEC01F016BEF28E6D6A140E77
:101160006F6E696A6D86010E1F6EBAEF08F06DB67C
:1011700001D0ECD71F2C0BD06DBA09D0686A696A10
:10118000A08AC00EF212110E696E020E1F6EB3EF2E
:1011900014F01850016EB5EF14F0036A02013E51CD
:1011A000700FE96E0F0E0320EA6EEF521DE0166A13
:1011B000F2BE168EF29E6C6B3EC26BF26E6B080E28
:1011C0006D6F000162EC01F016BEF28E02C040F2BB
:1011D00001C03FF2020101C0E9FF040E0224EA6EE1
:1011E000EFCF41F241AF02D0000E01D0010E016EEF
:1011F0000001BDEF14F0166AF2BE168EF29E0201D7
:101200006C6B4AC26BF26E6B080E6D6F000162EC84
:1012100001F016BEF28E01C054F2020E020101244A
:10122000016E000E0220036E01C0E9FF040E0324CC
:10123000EA6EECCF50F2ED52EFCF4FF2166AF2BEEB
:10124000168EF29E6C6B4AC26BF26E6B080E6D6F5F
:10125000000162EC01F016BEF28E01C054F2010EE4
:1012600002010124016E000E0220036E01C0E9FF9D
:10127000040E0324EA6E536BEFCF52F2166AF2BEED
:10128000168EF29E6C6B4AC26BF26E6B080E6D6F1F
:10129000000162EC01F016BEF28E020101C0E9FF0E
:1012A000040E0224EA6EEFCF51F251A101D0538116
:1012B00051A301D0538353514E5D08E303E14D51D7
:1012C000525D04E253C24EF252C24DF24CC2EAFFEA
:1012D0004BC2E9FF50C2E2FF4FC2E1FF4EC202F033
:1012E0004DC201F0015202E0022A02D0025206E091
:1012F000E6CFEEFF012EFCD7022EFAD74DC201F049
:101300004EC202F0000190EF09F045C24AF247C216
:101310004CF246C24BF249C24EF248C24DF26BD774
:1013200002C049F201C048F2166AF2BE168EF29E61
:1013300045C261F2020E0201626F000124DC16BE9A
:10134000F28E020148C201F049C202F000019AEF98
:1013500012F0166AF2BE168EF29E47C266F298DC52
:1013600016BEF28E015253E0166AF2BE168EF29E3F
:1013700002016C6B47C26BF26E6B080E6D6F000161
:1013800062EC01F016BEF28E02C050F201C04FF2C4
:10139000040E02014F27000E5023020E4F25016E4E
:1013A000000E5021036E01C0E9FF040E0324EA6E13
:1013B000ECCF4EF2ED52EFCF4DF24EC2EAFF4DC2EE
:1013C000E9FF49C2E2FF48C2E1FF4BC202F04AC254
:1013D00001F0015202E0022A02D0025206E0E6CFFA
:1013E000EEFF012EFCD7022EFAD7166AF2BE168E39
:1013F000F29E47C261F24BC263F24AC262F24CC231
:1014000064F2000170DC16BEF28E015002D0000EB4
:10141000016E1200030E6A6F6B6B020E6C6F160E7C
:101420006D6F010E0201476F496B6A0E486F4B6B7F
:10143000400E4A6F020E4C6F00018BDFCAEF12F0B4
:1014400002014D514F19800B516F4DAF05D04C1F0C
:101450004D1F4C2BD8B44D2B4FAF05D04E1F4F1FF7
:101460004E2BD8B44F2B4C514E03F3CF01F0F4CF99
:1014700000F04F03F35000264D514E03F35000206F
:10148000026E51AF05D0011E021E012AD8B4022AF5
:1014900000018AEF0AF0166AF2BE168EF29E020171
:1014A0006C6B47C26BF2010E6E6F6D6B000162ECEC
:1014B00001F016BEF28E01C04CF202014851012427
:1014C000016E000E022001C049F24A6F4A31036EDC
:1014D0004931026E033202320332023203320232E7
:1014E0000332023203320232030E031602C049F203
:1014F00003C04AF2036A3C51E8BE03064927035081
:101500004A234AC24DF249C24CF24F6B3DC24EF2E1
:10151000000196D702C04AF201C049F2D8900201F8
:101520004A31036E4931496F03C04AF24A514B6F49
:101530004BC2BEFF4A6B4A31036E4931026E033221
:1015400002323F0E031602C04BF2BD50CF0B4B11BF
:10155000BD6E0001F0EF12F0000ED88002013A5586
:10156000476F47514603F3CF47F2476B47C201F03D
:1015700000011200010E02014725C26EC282C2B2F2
:10158000FED7000112000201556B566B010E576F1A
:10159000DA6AD96A020E5A6F4D0E596F020EEA6E60
:1015A000510EE96E5AC2E2FF59C2E1FF57C258F22A
:1015B000D890E550EE02F3505523F4505623582F9F
:1015C000F7D755C2DEFF56C255F2566BD8B0562B30
:1015D000592BD8B45A2B572B57510508DFE100017E
:1015E00009EF0BF002014C6B4B6B48C24AF247C249
:1015F00049F24CC250F24BC24FF24AC24EF249C2BB
:101600004DF2546B536B3BC252F23AC251F200019D
:10161000BAD703C04CF202C04BF201C04AF200C07C
:1016200049F24AC249F24BC24AF24CC24BF20201A1
:101630004C6B4C5303E14B51000804E24C6B4B6B79
:101640004A69496949C201F04AC202F00001120028
:10165000050E6A6F0201476B0001F2DC040E020105
:10166000476F000187DF166AF2BE168EF29E0201F6
:101670006C6BC4CF6BF2010E6E6F6D6B000162EC90
:1016800001F016BEF28EC35002010124456F000E18
:101690000220466F46C248F245C247F20001A2DF6F
:1016A00002C046F201C045F245C26BF0020146514C
:1016B00000016C6F0201476B00015CDF166AF2BE2D
:1016C000168EF29E02016C6BC4CF6BF2010E6E6F30
:1016D0006D6B000162EC01F016BEF28EC350020188
:1016E0000124456F000E0220466F46C248F245C2F3
:1016F00047F2000177DF02C046F201C045F245C261
:101700006DF00201465100016E6F010E0201476F3C
:10171000496B6A0E486F4B6B400E4A6F020E4C6F5E
:10172000000117DE010E0201476F000189DC3CEF6A
:1017300013F055C257F254C256F2020156C2E9FFE5
:1017400057C2EAFF53C2ECFFED5252C2EFFF020E46
:101750005625E96E000E5721EA6EEC6AED52EF6AEB
:1017600056C201F057C202F000015FEF0CF0020E0A
:1017700002014E25E96E000E4F21EA6EECCF53F2C6
:10178000ED52EFCF52F252530CE153530AE1020EE5
:101790005025E96E000E5121EA6EEC6AED52EF6AB7
:1017A0001BD0020E5025016E000E5121036E536FA7
:1017B000020E4E25E96E000E4F21EA6EECCF03F0CB
:1017C000ED52EFCF54F253C2EAFF01C0E9FF03C06C
:1017D000ECFFED5254C2EFFF020E4E25E96E000EF3
:1017E0004F21EA6E51C2ECFFED5250C2EFFF0001F3
:1017F0006CEF0CF0020153C2E9FF54C2EAFF56C27B
:10180000ECFFED5255C2EFFF0001120028C049F273
:1018100027C048F20201485303E14953D8B489D0A4
:1018200048C2E9FF49C2EAFFECCF4FF2ED52EFCFD9
:101830004EF24FBF72D048C2E9FF49C2EAFFECCF77
:1018400051F2ED52EFCF50F24751515D66E303E1A3
:101850004651505D62E348C2E9FF49C2EAFFECCF5E
:101860004DF2ED52EFCF4CF2040E4625016E000E04
:101870004721036E03504D5D40E303E14C51015C91
:101880003CE246514C5D4E6F47514D594F6F040E2F
:101890004E5F000E4F5B040E4825506F000E49212D
:1018A000516F46515027475151234FC253F24EC2F8
:1018B00052F251C255F250C254F200013AD702C05E
:1018C0004BF201C04AF249C24FF248C24EF24BC23B
:1018D00051F24AC250F24BD7020146C24EF2800E7C
:1018E00047254F6F49C254F248C253F2566F46C261
:1018F00055F200017FDF0FD002014CC24EF2800E84
:101900004D254F6F49C254F248C253F2566F4CC234
:1019100055F200016FDF02010CD0020E4825E96E7E
:10192000000E4921EA6EECCF49F2ED52EFCF48F2BA
:1019300072D7485307E1495305E1000E016E026E6C
:1019400008D007D0040E4825016E000E4921036E11
:10195000026E0001120047C201F046C200F00066AC
:10196000012A0900F5CFEEFF002EFBD7012EF9D793
:10197000F86A120002015A6B928480B45A818986F7
:10198000000000000000899600005A43592FF5D747
:101990005AC201F00001120001012D517F0801E23D
:1019A0000FD0036A2C51AB0FE96E000E0320EA6ED4
:1019B00059C2EFFF2C2B2C517F0801E22C6B2D2BF1
:1019C0000001120059C25BF25AC25CF202015BA133
:1019D00089945BB1899400008986000089965B43F5
:1019E0005C2FF5D700011200036A02012F512E0F60
:1019F000E96E010E0320EA6EEFCF58F22F2B30076D
:101A000058C201F0000112000201586B80A401D0FD
:101A1000588380A601D0588158C201F000019AEF86
:101A20000EF0F294FF0ED76E010E02015925FF0A47
:101A3000010FD66ED58EF2A4FED7F294D59E00018A
:101A400082EF0FF0F2940201591DD76ED72AD66AA1
:101A5000D58EF2A4FED7F294D59E000195EF0FF03B
:101A600059C25AF202015B6B928489860000000021
:101A7000000080B45B81899600005B435A2FF5D744
:101A800092945BC201F0000112005AC25CF25BC288
:101A90005DF202015CA189945CB1898400008986B1
:101AA000000089965C435D2FF5D70001120002010A
:101AB00059A502D0010E01D0000E8996E8B08986A2
:101AC00059A702D0010E01D0000E8994E8B0898494
:101AD00059A102D0010E01D0000E9296E8B0928674
:101AE00059A302D0010E01D0000E9294E8B0928466
:101AF000000197EF10F002014B6B4F814F83F2987A
:101B0000070ED56E4853D8B437D348514B5DD8B083
:101B100033D34B514925016E000E4A2101C0E9FF24
:101B2000EA6EEFCF4CF2D50E4C5FD8904C37080ED2
:101B30004C27F9504C25D8B0FA2AF96E24D03BD066
:101B400046D068D081D0C1D0EED0F2D0FBD02ED11B
:101B50004DD168D16AD175D19DD1C4D1D6D1E8D14A
:101B60001FD231D248D261D28CD292D29DD2AAD287
:101B7000BED2E1D2E3D2E5D2E8D2EBD2EDD2EFD2BF
:101B8000F1D2F3D2F5D24B2B4B514925016E000E09
:101B90004A21036E01C0E9FFEA6EEFCF58F258C246
:101BA00059F20001E7DE01C058F201C059F2F4DE3B
:101BB00002014B2BAAD7080E596F0001DBDE01C0D2
:101BC00058F201C059F2E8DE02014B2B9ED7010EFC
:101BD000596F040E5A6F0001F5DE0201596B080EB1
:101BE0005A6F0001EFDE080E0201596F0001C2DEDC
:101BF00001C058F201C059F2CFDE080E0201596F40
:101C00000001B8DE01C058F201C059F2C5DE020180
:101C10004B2B7BD7596B080E5A6F0001D3DE0201A4
:101C2000596B080E5A6F0001CDDE0201596B080E88
:101C30005A6F0001C7DE0201596B080E5A6F00018E
:101C4000C1DE02014B2B61D7596B040E5A6F0001A4
:101C5000B9DE02014B2B4B514925016E000E4A2182
:101C6000036E01C0E9FFEA6EEFCF58F258C259F295
:101C7000080E5A6F0001A6DE02014B2B4B5149257D
:101C8000016E000E4A21036E01C0E9FFEA6EEFCF3C
:101C900058F258C259F2080E5A6F000193DE020141
:101CA0004B2B4B514925016E000E4A21036E01C09A
:101CB000E9FFEA6EEFCF58F258C259F2080E5A6F98
:101CC000000180DE02014B2B20D7596B040E5A6FA6
:101CD000000178DE02014B2B4B514925016E000EAD
:101CE0004A21036E01C0E9FFEA6EEFCF58F258C2F5
:101CF00059F2080E5A6F000165DE02014B2B4B5161
:101D00004925016E000E4A21036E01C0E9FFEA6E0B
:101D1000EFCF58F258C259F2080E5A6F000152DE46
:101D200002014B2BF2D600015FDE02014B2BEDD6F8
:101D300000016AD601C058F201C059F22DDE02013D
:101D40004B2BE3D64FB10FD05051D8B451075007A9
:101D5000505305E1515303E14F814B2BD6D64B6BCA
:101D60004FB14B2BD2D64B2B4B514925016E000E58
:101D70004A2101C0E9FFEA6EEF504B5D4D6F000153
:101D800033DE0201516B01C050F200012DDE000E66
:101D90000201502701505123505304E1515302E1F5
:101DA0004B2BB3D64F914DC24BF2AFD64B2B4B5171
:101DB0004925016E000E4A2101C0E9FFEA6EEFCF0E
:101DC00056F20F0E576F4B2B4B514925016E000EEB
:101DD0004A2101C0E9FFEA6EEFCF5AF257C2EAFF8B
:101DE00056C2E9FF5AC2EFFF4B2B8FD64B2B4B51FC
:101DF0004925016E000E4A2101C0E9FFEA6EEFCFCE
:101E000056F20F0E576F57C203F056C2E9FF57C282
:101E1000EAFFEFCF58F258C259F20001BDDD0201CE
:101E20004B2B73D648C24BF270D64B2B4B514925E6
:101E3000016E000E4A2101C0E9FFEA6EEFCF4BF2BE
:101E400064D6010E01012C5D036AAB0FE96E000E32
:101E50000320EA6EEFCF4EF202014B2B4B51492586
:101E6000016E000E4A21036E01C0E9FFEA6EEF50D9
:101E70004E5D0EE00DE34B2B4B514925016E000EDC
:101E80004A2101C0E9FFEA6EEF504B254B6F01D0AC
:101E90004B2B3BD6010E01012C5D036AAB0FE96EA3
:101EA000000E0320EA6EEFCF4EF202014B2B4B5196
:101EB0004925016E000E4A21036E01C0E9FFEA6E5A
:101EC000EF504E5D0DE14B2B4B514925016E000E3D
:101ED0004A2101C0E9FFEA6EEF504B254B6F01D05C
:101EE0004B2B13D64B2B4B514925016E000E4A212B
:101EF000036E01C0E9FFEA6EEFCF58F258C259F203
:101F000000018FD502014B2B00D64B2B4B5149259D
:101F1000016E000E4A21036E01C0E9FFEA6EEFCFA9
:101F200058F258C259F200018DD502014B2BEDD564
:101F30004FB30FD05251D8B453075207525306E152
:101F4000535304E14F83030E4B27DFD554C24BF2AA
:101F5000DCD54F934B514925586F000E4A21596FDC
:101F6000010E5825016E000E592101C0E9FFEA6EED
:101F7000EF504B5D546F556B4B514925586F000E18
:101F80004A21596F020E5825016E000E592101C0D9
:101F9000E9FFEA6E536BEFCF52F254C24BF2B5D564
:101FA0004B2B4B514925016E000E4A21036E01C097
:101FB000E9FFEA6EEFCF58F258C259F2000150DD46
:101FC00002014B2BA2D54B2B4B514925016E000E24
:101FD0004A21036E01C0E9FFEA6EEFCF58F258C202
:101FE00059F200013DDD01C058F201C059F2D4DCC4
:101FF00002014B2B8AD50001F7DC01C058F2020127
:102000004B2B4B514925016E000E4A21036E01C036
:10201000E9FFEA6EEFCF59F258C25AF259C25BF2A9
:10202000000133DD02014B2B70D54B514925586F10
:10203000000E4A21596F020E5825016E000E5921DB
:10204000036E01C0E9FFEA6EEFCF58F24B5149250C
:10205000596F000E4A215A6F010E5925016E000E6C
:102060005A21036E01C0E9FFEA6EEFCF59F258C260
:102070005AF259C25BF2000108DD030E02014B2740
:1020800044D5080E596F0001EBDC02014B2B3DD506
:10209000080E596F0001E4DC01C058F201C059F28A
:1020A0007BDC02014B2B31D500019EDC01C058F2D4
:1020B00001C05AF2080E02015B6F0001E6DC02016A
:1020C0004B2B23D54B2B4B514925016E000E4A213A
:1020D000036E01C0E9FFEA6EEFCF58F258C25AF220
:1020E000080E5B6F0001D1DC02014B2B0ED54B516A
:1020F0004925586F000E4A21596F010E5825016E6F
:10210000000E592101C0E9FFEA6EEFCFAAF04B2B78
:102110004B514925016E000E4A21036E01C0E9FFB3
:10212000EA6EEFCF58F258C259F20001C0D4010E46
:1021300002014B27EAD4899A4B2BE7D4898A4B2B8F
:10214000E4D4BA6A8B924B2BE0D40C0EBA6E4B2BB4
:10215000DCD48A844B2BD9D48A944B2BD6D48A8650
:102160004B2BD3D48A964B2BD0D48A984B2BCDD4DF
:102170008A884B2BCAD4C9D40001120028C056F259
:1021800027C055F2020E02015525E96E000E5621B8
:10219000EA6EECCF58F2ED52EFCF57F25351575D44
:1021A00003E15451585D0EE0020E5525E96E000E14
:1021B0005621EA6EECCF56F2ED52EFCF55F2000108
:1021C000E1D70201020E5525016E000E5621036E65
:1021D000586F020E5325E96E000E5421EA6EECCFC3
:1021E00003F0ED52EFCF59F258C2EAFF01C0E9FF08
:1021F00003C0ECFFED5259C2EFFF546B536B00016B
:1022000061EF11F028C04CF227C04BF202014B5392
:1022100003E14C53D8B47DD04BC2E9FF4CC2EAFF76
:10222000ECCF54F2ED52EFCF53F254BF64D04BC217
:10223000E9FF4CC2EAFFECCF50F2ED52EFCF4FF284
:10224000020E4B25E96E000E4C21EA6EECCF4EF2E9
:10225000ED52EFCF4DF24DC2E9FF4EC2EAFFECCF97
:1022600054F2ED52EFCF53F254BF37D04F514B25BC
:10227000556F50514C21566F040E5525016E000EBE
:102280005621036E01504D5D28E103504E5D25E15E
:102290004DC2E9FF4EC2EAFFECCF52F2ED52EFCF52
:1022A00051F2040E5125016E000E5221036E0150B1
:1022B0004F27035050234EC254F24DC253F2000137
:1022C0005DD74CC254F24BC253F250C256F24FC2C9
:1022D00055F2FAEC0BF00DD00201020E4B25E96E1F
:1022E000000E4C21EA6EECCF4CF2ED52EFCF4BF2E8
:1022F00000010DD00201020E4B25E96E000E4C21AB
:10230000EA6EECCF4CF2ED52EFCF4BF200017ED7EC
:1023100002010001C7EF11F00201455304E14653E9
:1023200002E136D032D0040E455D476F000E4659AB
:10233000486F47C2E9FF48C2EAFFECCF4CF2ED52CA
:10234000EFCF4BF24CAF1ED047C2E9FF48C2EAFFC5
:10235000ECCF4CF2ED52EFCF4BF2000E4B5D496FDC
:10236000800E4C594A6F48C254F247C253F24AC2D7
:1023700056F249C255F20001FAEC0BF00201466B2D
:10238000456B03D0466B456B03D000013BD7020180
:10239000000112006951692B036A290FE96E000ED2
:1023A0000320EA6EEFCF45F2020130514525486B1C
:1023B000476F48510008D8A023D0466B4551465D71
:1023C0001DE22E512E2B036A2E0F016E010E0322E9
:1023D00003C048F200016951692B036A290FE96EB5
:1023E000000E0320EA6EEFCF49F2020148C2EAFF75
:1023F00001C0E9FF49C2EFFF462BE0D74551302726
:1024000000019CEF12F02DC145F2020145513E083A
:1024100002E3455101D03F0E456F45C26AF0010EFF
:10242000466F4651455D22E3036A46516A0F016ECD
:10243000000E032203C048F201012B512B2B036A2B
:10244000AB0FE96E000E0320EA6EEFCF49F20201F6
:1024500048C2EAFF01C0E9FF49C2EFFF01012B5169
:102460007F0801E22B6B0201462BDBD745510101AE
:102470002D5F010E0201476F496B6A0E486F4B6B6F
:10248000400E4A6F020E4C6F0001A9EC09F0C9EF33
:1024900013F02DC145F2020145513F0802E34551B9
:1024A00001D0400E456F466B4551465D22E2036AFE
:1024B00046516A0F016E000E032203C048F201016B
:1024C0002B512B2B036AAB0FE96E000E0320EA6E33
:1024D000EFCF49F2020148C2EAFF01C0E9FF49C259
:1024E000EFFF01012B517F0801E22B6B0201462B0C
:1024F000DBD7455101012D5F010E0201476F496B8A
:102500006A0E486F4B6B400E4A6F020E4C6F000113
:10251000A9EC09F07FEF14F08B80010E696F0201C6
:10252000456F476B290E466F496B400E486F00019F
:1025300085EF09F029C03EF2695102013E5DD8A045
:10254000E2D1036A00016951290FE96E000E0320F0
:10255000EA6EEFCF3FF202013F53D8B4D4D1010E5F
:102560003F5FD8903F37080E3F27F9503F25D8B03E
:10257000FA2AF96E0CD010D018D046D07AD07FD07D
:10258000F1D0F7D0FCD003D107D132D1B6D10001C0
:102590000AEF0AF00201B7D1006A8BB0002A010EDF
:1025A000001A8B9000B08B80AED1020E000169251D
:1025B000036A290FE96E000E0320EA6EEFCF45F2A1
:1025C000010E6925036A290FE96E000E0320EA6EE9
:1025D000EFCF46F245C247F246C248F24BEF0AF04F
:1025E000030E6925036A290FE96E000E0320EA6EC7
:1025F000EFCF45F245C246F2ACEC0AF001C031F231
:10260000040E692799D70201010E00016925036AAA
:10261000290FE96E000E0320EA6EEFCF37F2020EAB
:102620006925036A290FE96E000E0320EA6EEFCFD9
:1026300045F245C246F2ACEC0AF0010E012402015B
:10264000386F020E385D396F030E00016925036A89
:10265000290FE96E000E0320EA6EEFCF45F245C266
:1026600046F2ACEC0AF001C032F2040E692764D7DE
:102670000201000128EF0BF0692B5ED70201010E69
:1026800000016925036A290FE96E000E0320EA6E36
:10269000EFCF45F20201476B45C246F2000106EC5E
:1026A0000CF002C041F201C040F2030E6925036A3A
:1026B000290FE96E000E0320EA6E166AF2BE168E2E
:1026C000F29E02016C6BEFCF6BF2010E6E6F6D6BC1
:1026D000000162EC01F016BEF28E020E6925036A5B
:1026E000290FE96E000E0320EA6EEF50020101246B
:1026F000426F000E0220436F010E00016925036A3C
:10270000290FE96E000E0320EA6EEFCF45F2F86A5A
:1027100043C2F7FF42C2F6FF41C2EAFF40C2E9FFEF
:102720000201476B45C246F20001ABEC0CF0010E12
:102730006925036A290FE96E000E0320EA6EEFCFC8
:1027400045F245C248F241C24AF240C249F27BEC2E
:102750000DF041C246F240C245F2DEDD040E6927AB
:10276000EBD602012F6B2E6B306B0001692BE4D688
:1027700002010001692B0ED60001DED60201010123
:102780002B6B2C6B2D6B0001692BD6D6020100013F
:102790003AD6692BD1D60201010E00016925036AE0
:1027A000290FE96E000E0320EA6EEFCF45F2020E0C
:1027B0006925036A290F016E000E032201C046F24B
:1027C00003C047F245C248F203C04AF201C049F2D1
:1027D00000017BEC0DF0010E6925036A290FE96EFB
:1027E000000E0320EA6E020EEF246927A5D602012F
:1027F000010E00016925036A290FE96E000E03200E
:10280000EA6EEFCF45F20201476B45C246F2000186
:1028100006EC0CF002C041F201C040F2030E692543
:10282000036A290FE96E000E0320EA6E166AF2BEF3
:10283000168EF29E02016C6BEFCF6BF2010E6E6F83
:102840006D6B000162EC01F016BEF28E020E69257E
:10285000036A290FE96E000E0320EA6EEF500201B1
:102860000124426F000E0220436F040E000169250F
:10287000036A290FE96E000E0320EA6EEFCF44F2DF
:10288000010E6925036A290FE96E000E0320EA6E26
:10289000EFCF45F2F86A43C2F7FF42C2F6FF41C2EA
:1028A000EAFF40C2E9FF0201476B45C246F2000160
:1028B000ABEC0CF0010E6925036A290FE96E000EDE
:1028C0000320EA6EEFCF45F245C248F241C24AF218
:1028D00040C249F27BEC0DF0020144074453D8B4E6
:1028E00002D00001E7D741C246F240C245F20001E2
:1028F00013DD050E692720D602010001CAD5692B18
:102900001BD61AD602018B900001C0EF14F0F86AB2
:10291000D09E078E02012E6B2F6B306BC150C00B07
:102920000F09C16E070EB46E020E286E700E276E70
:10293000010E716F8C0E706F050E736F100E726F3B
:10294000020E0501116FEC0E106F136B126B00017C
:102950001B6A040E1C6E0C0E1D6E3DEF08F0A3EFFB
:1029600008F0B7EF08F0C9EF08F0015209E0010ED6
:1029700002013E6F0001CDEF08F0015201E0CCD51D
:04298000F0D7030089
:10600000F5F1F3EF00E514F0F4E417F5F1E42FEE09
:0E601000B2EEC2EE12EE8AF0F4E509EA0500E7
:04603C00F5F1F2EF99
:0460400003E50AFF6B
:06604A00D9000204D90098
:106050000204D8D8D8D9000204D8D9F00F20D9909A
:106060000188D9060020D8D8D9070020D9B60BBAA4
:0C607000D8D8D9203C88D8D7D8E60D013C
:0260AE00F5F10A
:1060B000F3EF00E514F0F4E417F5F1E42FEEB2EE9F
:0A60C000C2EE12EE0AF0F4E4EBFF6A
:0C60E400DA2A0EDA1509DA0000DAF86E8C
:1060F000DAAA0EDA550ADAF76EDAAA0EDA540ADAF2
:106100000000DAF66EEA0409EE00ECDAFFFFE609B9
:0261100001FF8D
:02613E00F5F179
:10614000F3EF00E514F0F4E47FF1F5F4F0E513FF6C
:10616000F5F1F9F6F3EF00E514F0F4F7F8E47FF158
:06617000F5F4F0E513FF59
:06618A00EA0600EE00EE43
:0C61900000EA0606E60305EA0604ECEC53
:0261AE00F5F109
:1061B000F5F1F3EF00E514F0F0F4F4E42FEEB2EEB5
:0A61C000C2EE12EE0AF0F4E4EBFF69
:0C61E400F5F1F9F6F3EF00E53CF7F8F0F8
:1061F000F4E47FF1F5F4F0E513EA0600EE00EE00BA
:10620000EA061FE502F5F1E45EF0F4E42FE105EAA9
:066210000606DD03DBFFC2
:0C622000EA0604ECECEA0606E6081FFFA4
:02622E00EA067E
:1062300005ECECEA0606E6081FEA0600EE00EE00B2
:10624000EA0604ECECEA0606E60803EA0600EE00BD
:0E625000EE00EA0606E60306EA0604ECECFFA2
:10626000EA0602EDEDEA0606E60806EA0602EDEDAC
:0E627000EA0618E42FEA0617E405EA0606FF20
:10628000EA0603EDEDEA0608E4BCEA0617EA06189A
:10629000E45EEA0617EA0606EA0600EE00EE00EA09
:1062A0000602EDEDEA0618E45EEA0617E405EA06E2
:1062B00006E61203EA0600EE00EE00EA0606E60332
:1062C00006EA0602EDEDEA0608E48DEA0600EE00B5
:0E62D000EE00EA0609EA0608E45EEA0617FF99
:1062E000EA060BEA0608E45EEA0617EA0600EE0094
:1062F000EE00EA0609E502EA0602EDEDEA0618E418
:1063000076EA060AE405EA0606EA0600EE00EE0072
:10631000EA0602EDEDEA0618E476EA060AE405EA82
:106320000606E61203FFEA0600EDEDEA0606E603BE
:1063300006EA0618E476EA060AE405FFEA0600EE35
:1063400000EE00EA0606E60307EA0609E502EA06A9
:1063500002EDEDEA0618E476EA060AE405EA06022A
:10636000EDEDEA0606EA0602EDEDE60802EA0608A9
:06637000E48DEA0606FFC1
:08637800EA0600EE00EE00EA67
:106380000609E502EA060BE502FFEA0602EDEDEA80
:106390000608E476EA0606FFEA0603EDEDEA0608DB
:0663A000E501EA0603FF1F
:0663AA00EA0600EE00EE21
:1063B00000EA0602EDEDEA0608E48DEA0606E60DBF
:1063C00003EA0600EDEDEA0606E60306EA0608E43F
:1063D0008DFFE105EA0606DD03DBEA0604ECECFFCF
:1063E000E105EA0606DD03DBEA0604EDEDEA060850
:1063F000E476EA0600EE00EE00EA0609E502EA06A7
:1064000002EDEDEA0606EA0602EDEDE60802EA060E
:1064100008E476EA0606EA0600EE00EE00EA060662
:10642000E60307EA0609E502EA0602EDEDEA0608D8
:10643000E48DEA0606EA0609E502EA0602EDEDEA5F
:106440000608E48DEA0600EE00EE00EA0606E60322
:1064500007EA0609E502EA0602EDEDEA0608E48D20
:10646000EA0600EE00EE00EA0611E501E419EA068C
:1064700011E501E419EA0606E6030FFFEA0602ED5C
:10648000EDEA0606E60802EA0602EDEDEA0618E481
:1064900076EA060AE405EA0606EA0600EEFEEE7F64
:1064A000EA0606E60306EA0601EA0607EA0608E542
:1064B00002EA0601EA0607E502EA0603EEFEEE7FBF
:1064C000EA0601EA0607EA0608E502EA0601EA0624
:0E64D00007EA0602EDEDEA0618E4BCEA06064D
:1064E000EA0600EE00EE00EA0602EDEDEA0618E428
:1064F000BCEA0606E60D03FFEA0600EE00EE00EA3F
:106500000606E60306EA0602EDEDEA0618E4BCFF1D
:10651000EA0600EEFEEE7FEA0609EA0608E503FF5A
:10652000EA0602EDEDEA0606E60802EA0602EDEDED
:10653000EA0618E45EEA060EE405EA0606FFEA0645
:1065400000EE00EE00EA0602EDEDEA0618E476EA57
:10655000060EE405EA0606E61203EA0600EDEDEA99
:106560000606E60306EA0618E476EA060EE405EAFD
:106570000606E60D01EA0600EE00EE00EA0609E571
:1065800006EA0602EDEDEA0606EA0602EDEDEA0687
:1065900008E42FEA060EE405EA0606EA0600EE0025
:1065A000EE00EA0602EDEDEA0608E42FEA060EE444
:1065B00005EA0606E61203EA0600EE00EE00EA0629
:1065C00006E60306EA0602EDEDEA0608E42FEA060F
:1065D0000EE405EA0600EE00EE00EA0606E6030613
:1065E000EA0602EDEDEA0608E42FEA060EE405EA03
:1065F0000606E61201EA0600EE00EE00EA0606E6EE
:0E6600000306EA0604ECECEA0606E60801FFD3
:020000040030CA
:0E0000002CCE380E000781000FC00FE00F401D
:00000001FF
;PIC18F2550
;CRC=07AB  CREATED="03-avr.-19 01:28"
